:020000040000FA
:1000000090030020ED010000F5010000F701000061
:10001000F9010000FB010000FD01000000000000EC
:10002000000000000000000000000000FF010000D0
:1000300001020000000000000302000005020000B1
:10004000070200000702000007020000070200008C
:10005000070200000702000007020000070200007C
:10006000410F000007020000070200000702000025
:10007000650F00002510000011110000751100002F
:10008000070200000702000007020000070200004C
:10009000070200000702000007020000070200003C
:1000A00005050000110F0000290F000007020000E5
:1000B000070200000702000007020000070200001C
:1000C0000702000007020000070200000D0D0000FB
:1000D00007020000070200000702000007020000FC
:1000E0000702000000000000000000000000000007
:1000F0000000000000000000000000000000000000
:1001000000000000000000000000000000000000EF
:1001100000000000000000000000000000000000DF
:1001200000000000000000000000000000000000CF
:1001300000000000000000000000000000000000BF
:100140000000000000F002F800F041F80AA090E87A
:10015000000C82448344AAF10107DA4501D100F082
:1001600036F8AFF2090EBAE80F0013F0010F18BF0E
:10017000FB1A43F0010318471C2200003C22000038
:10018000103A24BF78C878C1FAD8520724BF30C8C3
:1001900030C144BF04680C60704700000023002495
:1001A00000250026103A28BF78C1FBD8520728BF87
:1001B00030C148BF0B607047642900F07780002091
:1001C00070471FB502F08EF81FBD10B510BD00F0CE
:1001D00067F91146FFF7F5FF01F068FB00F085F9BC
:1001E00003B4FFF7F2FF03BC01F02CF90948804784
:1001F00009480047FEE7FEE7FEE7FEE7FEE7FEE709
:10020000FEE7FEE7FEE7FEE704480549034A054B23
:1002100070470000A50E000045010000900100207D
:100220009003002090010020704700000FB40449A3
:1002300010B503AA029800F005F910BC5DF814FB94
:10024000180000202DE9F0410E46044600202062EF
:100250002046E168884730B3252805D0D4E901213C
:100260009047206A401CF2E7E16820460027884753
:10027000050018D0A5F14100192802D820354FF407
:1002800000673246294620462760FFF795FF40B1B8
:10029000012804D0F61D26F007060836D8E7361DDB
:1002A000D6E72846DAE7206ABDE8F0812DE9F0417B
:1002B0000646002410687529314616A510D0AFF304
:1002C0000080002802DA404213A507E031688A075F
:1002D00001D512A502E0490704D511A5012401E0CA
:1002E000AFF3008000210A2206F1240709E0B0FBE9
:1002F000F2FCB0FBF2F302FB1C00303078541846DD
:10030000491C0028F3D123462A463046BDE8F04177
:1003100000F03EB8000000002D0000002B0000009F
:100320002000000010B5203AC0F00B80B1E8185052
:10033000203AA0E81850B1E81850A0E81850BFF4CF
:10034000F5AF5FEA027C24BFB1E81850A0E818506E
:1003500044BF18C918C0BDE810405FEA827C24BFC2
:1003600051F8043B40F8043B08BF7047D20728BF50
:1003700031F8023B48BF11F8012B28BF20F8023B9F
:1003800048BF00F8012B70477047704770477047AF
:100390002DE9F0470D4699469246044600F124089F
:1003A0000168880604D5E06921F01001216000E0B1
:1003B0000120A84201DD471B00E00027A1697A194E
:1003C00002EB0900081AA0612078C00602D420467A
:1003D000AFF30080002608E0D4E901211AF80600F6
:1003E0009047206A401C761C20624E45F4DB207842
:1003F000C0060AD52046AFF3008006E0D4E901210B
:1004000030209047206A401C2062381EA7F1010767
:10041000F4DC07E0D4E9012118F805009047206AD0
:10042000401C2062281EA5F10105F3DC2046AFF335
:1004300000802078000602D50220BDE8F087012068
:10044000FBE70000074B70B50D467B4400F011F848
:100450000446284600F020F810B14FF0FF3070BD80
:10046000204670BD4F13000001694A1C02610878E4
:10047000704700B58FB0CDE90131002105910549E4
:100480007944CDE9031011466846FFF7DBFE0FB053
:1004900000BD0000E5FFFFFF007B00F0800070471B
:1004A000754600F02BF8AE4605006946534620F02D
:1004B0000700854618B020B5FFF7A6FEBDE820402E
:1004C0004FF000064FF000074FF000084FF0000B10
:1004D00021F00701AC46ACE8C009ACE8C009ACE8C3
:1004E000C009ACE8C0098D46704710B50446AFF3AB
:1004F00000802046BDE81040FFF772BE00487047FC
:100500003001002070B5002413490968886E8047C7
:1005100005460E4610480068C26E28463146904790
:10052000022305EA0300002148404940084312D055
:100530000A4800F01DF800BF08E0084830F8142011
:10054000214607A0FFF772FE601CC4B2022CF4DB48
:1005500006A0FFF76BFE70BD04080002100000202B
:100560005B25645D3A25640D090000000D0A00005A
:10057000094B10B55968C1F3044109E003EB81024E
:10058000D2F8984020F811409269120602D4491C12
:100590002029F3D310BD000000200140064A46F692
:1005A0005A111160044950310A6802430A60034934
:1005B00001200870704700000004014000802042C4
:1005C000044908680968C0F3022001F0E0610901EC
:1005D00000F08CBE080401401CB56B4601AA002146
:1005E000032000F0F1FB37490868374A00F4E020A7
:1005F000B0F5403F2ED007DC30B3B0F5803F25D0BA
:10060000B0F5003F06D123E0B0F5802F24D0B0F53F
:10061000A02F23D00020019B002B51D00968C1F3EB
:1006200009018B0502D541F47E4109B2002947D06A
:10063000264B904293F8D82016D1002A009A0FD06A
:1006400092ED0F0A526A19E02148E4E72148E2E7F7
:100650002148E0E72148DEE72148DCE71046DAE7F9
:1006600092ED070A526809E0002A009A03D092ED41
:100670000E0A126A02E092ED060A126800EE901A63
:10068000C2F54071B7EE002AF8EEE00A20EE201A1B
:1006900000EE901AF8EEE01AF0EE420A40EE210A5F
:1006A00081EE200AF0EE420A70EEC00A00EE100A57
:1006B000B8EE400A80EE201ABCEEC10A10EE100A15
:1006C0001CBD000004040140006CDC0200802042DC
:1006D00060E31600C0C62D00808D5B00001BB700D4
:1006E00000366E0104490868096800F0070001F44B
:1006F000E021090300F0FABD08040140044908683C
:100700000968C0F3021001F0E04100F0EFBD000005
:1007100008040140014AC2E900107047400000206F
:10072000002100F001B800002DE9F0470C462249F5
:10073000064646F65A10086000F03EFB00F001093C
:10074000012000F029FB00F031FE0CB1012500E092
:1007500000251A49012281F8C021174B0C331F686C
:1007600027F4E00707431F60002316B181F8E42156
:1007700001E081F8E43181F8E021114FDFF844C055
:1007800003E00DB1641E05D03A709CF80080B8F10A
:10079000000FF6D12EB910B181F8C02101E081F827
:1007A000C0310A70484600F0FFFA05B114B10120CB
:1007B000BDE8F0870020FBE70004014000802042F4
:1007C000048A204204892042002100F001B8000080
:1007D0002DE9F0470C462249064646F65A100860B5
:1007E00000F0EAFA00F00109012000F0D5FAB6F5B0
:1007F000007F03D000201CB1012502E00120FAE7B0
:100800000025174A174B0C32012110B183F8A411AF
:1008100006E0176847F003071760002783F8A47104
:1008200083F8A011104FDFF844C003E00DB1641E3F
:1008300005D039709CF80080B8F1000FF6D120B9CE
:10084000106820F00300304310601970484600F033
:10085000ABFA05B114B10120BDE8F0870020FBE739
:100860000004014000802042008A2042008920428A
:10087000034A52F820000088084000D00120704749
:1008800064230000074A52F8200042898A434281CB
:1008900082898A43828182888A438280C2888A438D
:1008A000C280704764230000064A52F82000428943
:1008B0008A43428182898A43828182880A43828074
:1008C0007047000064230000034A52F82000428869
:1008D0000A4342807047000064230000034A52F834
:1008E000200042888A434280704700006423000051
:1008F00010B504461548006812214269012090474E
:100900001CB3124800680221426B012090470F4837
:1009100000681021426B012090470C4800680221BA
:10092000826A01209047094800681021826A0120EC
:10093000904706480830006881693320884703489B
:100940002C30006841690220884710BD240800024D
:10095000002144F603404FF0844202EB4010017244
:100960007047012144F603404FF0844202EB4010EF
:100970000172704700B500F049F800F00CF8FFF77D
:10098000F0FF00BD002144F603404FF0844202EB2B
:10099000401001717047012144F603404FF084423A
:1009A00002EB40100171704710B50A480068012140
:1009B000026808469047074800680721026802203D
:1009C000904700F011F800F021F8FFF7DBFFFFF788
:1009D000BFFF10BD2408000200B500F020F8FFF7AB
:1009E000D1FFFFF7BEFF00BD002144F602404FF0EB
:1009F000844202EB401001707047012144F602402E
:100A00004FF0844202EB401001707047002144F621
:100A100003404FF0844202EB401001707047012107
:100A200044F603404FF0844202EB401001707047DF
:100A300010B50346072093FBF0F100FB1130C4B260
:100A4000072C26D2DFE804F0040B12191C1F220029
:100A5000FFF7E5FFFFF796FFFFF77AFF1CE0FFF7D0
:100A6000D5FFFFF798FFFFF773FF15E0FFF7CEFF05
:100A7000FFF788FFFFF775FF0EE000F00FF80BE0BF
:100A800000F014F808E0FFF7A7FF05E0FFF772FF9A
:100A900002E0FFF7B2FF00BF00BF10BD00B5FFF7D7
:100AA000BEFFFFF778FFFFF75CFF00BD00B5FFF763
:100AB000B6FFFFF770FFFFF74BFF00BDB0EE401A27
:100AC00010B99FED790A704790ED100A80ED110A78
:100AD00090ED0F0A80ED100AC0ED060A80ED071AAE
:100AE00030EEC10A80ED0F0A0178002975D190ED32
:100AF000010AD0ED0F1A20EE210A80ED090A90EDCF
:100B00000A0AD0ED021A90ED0F2A01EE820A80ED5A
:100B10000A0A90ED0D0A80ED0E0A90ED0C0A80EDA8
:100B20000D0A90ED0F0AD0ED101A30EE610A80ED3B
:100B30000C0A90ED030AD0ED0C1A20EE210A80ED8C
:100B40000B0A90ED0A0AD0ED051AB4EEE10AF1EEB7
:100B500010FA04DD90ED050A80ED0A0A10E090ED30
:100B60000A0AD0ED051AF1EE611AB4EEE10AF1EECF
:100B700010FA05D290ED050AB1EE400A80ED0A0A9E
:100B800090ED090AD0ED0A1A30EE210AD0ED0B1AC9
:100B900030EE210A80ED080A90ED080AD0ED041A23
:100BA000B4EEE10AF1EE10FA04DD90ED040A80EDF6
:100BB000080A76E090ED080AD0ED041AF1EE611A09
:100BC000B4EEE10AF1EE10FA6BD290ED040AB1EE48
:100BD000400A80ED080A64E0FFE70178012960D14E
:100BE00090ED0F0AD0ED101A30EE610AD0ED011A27
:100BF00020EE210A80ED090A90ED020AD0ED0F1ACD
:100C000020EE210A80ED0A0A90ED0D0A80ED0E0A11
:100C100090ED0C0A80ED0D0A90ED0F0AD0ED101A40
:100C2000B0EE002A02EE610AD0ED111A30EE210A70
:100C300080ED0C0A90ED030AD0ED0C1A20EE210A8B
:100C400080ED0B0A90ED090AD0ED0A1A30EE210A68
:100C5000D0ED0B1A30EE210AD0ED081A30EE210A41
:100C600080ED080A90ED080AD0ED041AB4EEE10A0E
:100C7000F1EE10FA04DD90ED040A80ED080A10E0B0
:100C800090ED080AD0ED041AF1EE611AB4EEE10A13
:100C9000F1EE10FA05D290ED040AB1EE400A80EDB3
:100CA000080A90ED080A0EE70000000000B102B942
:100CB0007047017092ED001A80ED011A92ED011A51
:100CC00080ED021A92ED021A80ED031A80ED040AFB
:100CD000C0ED050A9FED0C1A80ED0E1A80ED0D1A7D
:100CE00080ED0C1A9FED081A80ED081A80ED0B1AA2
:100CF00080ED0A1A80ED091A80ED111A80ED101AA4
:100D000080ED0F1A00BFD3E70000000010B51F48A8
:100D10000068C16B0120884704461C4800682146D2
:100D2000426B01209047192000F0AAFD04F0020058
:100D3000C0B117480068401C154908604FF498403E
:100D40004FF0844101EB4010007958B91048006819
:100D50000621B0FBF1F201FB12000E490870087881
:100D6000FFF766FE04F0100070B14FF498404FF0AA
:100D7000844101EB4010007C30B900200449086038
:100D800004490878FFF754FE10BD00002408000253
:100D90000C0000201C01002002494A6882434A607E
:100DA00070470000003004E002494A6802434A608C
:100DB00070470000003004E00248406800F47020F2
:100DC00070470000003004E0F0B50F4C00262568A5
:100DD0006D1C16D00D4F256885420AD0BD4208D043
:100DE000854201D129B1491E656804EB85040834A8
:100DF000F1E7854205D160688000083410601C600E
:100E0000F0BD16601E60F0BD041020001DE1D00B87
:100E100010B54FF4B54020490880204800680122F1
:100E20000C2183690B2098471C480068012203218C
:100E300083690B2098471A494FF40040FFF76AFC7A
:100E400016481030006801680120884713480838A8
:100E500000680121426D0020904710480838006862
:100E60000121426D084690470020FFF759FC0320FE
:100E7000FFF7AAFC09481038006800220521036822
:100E800002209847054810380068002205210368B1
:100E90000820984710BD00000C48004024080002BC
:100EA000006CDC021548006840F4700013490860CB
:100EB0004FF4B5401249088080201249486146F637
:100EC0005A10114908604FF48030091D0860081D50
:100ED000006820F00710C01C091D086000200A49A6
:100EE00008600A48006920F0300008490861084697
:100EF000406920F0300048617047000088ED00E054
:100F00000C480040003004E00004014000100140A3
:100F100010B503480068016A0248884710BD000008
:100F20005C08000200C0004010B503480068016A78
:100F30000248884710BD00005C08000220C0004045
:100F400010B5074800680221C26B48079047044863
:100F5000343800680121C2680846904710BD00007F
:100F60005808000210B52DED068B264800680221B6
:100F7000C26B25489047002140F602004FF08442A2
:100F800002EB4010017121498968214A1268891ACF
:100F9000642201FB02F001F07CF89FED1E0B53EC84
:100FA000102B01F0A1F89FED1D0B53EC102B00F05E
:100FB000BBFE01F011F815490860C968144A52686F
:100FC000891A642201FB02F001F063F89FED110B16
:100FD00053EC102B01F088F89FED100B53EC102B05
:100FE00000F0A2FE00F0F8FF08494860084680685B
:100FF000074908600548C068486000F083FCBDEC04
:10100000068B10BD58080002000800404800002070
:10101000200000203333333333330B400000000013
:101020000080764010B53648007800F08000002837
:1010300064D134480068C16C3348884708B33148EC
:101040000068816B30488847002140F604004FF06B
:10105000844202EB401001712948007800F0400002
:1010600078B12748007800F03F003F280AD1244893
:10107000007840F08000224908704FF6FF70234945
:10108000088004E01E480078401C1D4908701D4877
:1010900000680421C26D1C48904778B31948006865
:1010A0000421C26B184890471548007800F04000B2
:1010B000A0B11448006808220421C3691248984767
:1010C00060B90F48007840F080000D490870042195
:1010D0000D4800F0AFF80D4908800FE000200849E6
:1010E00008700A49088007480068816906488847EF
:1010F0000348007840F040000149087010BD00002E
:1011000014000020580800020008004016000020CB
:1011100010B5154800680221C26D1448904710B3FD
:10112000114800680221C26B10489047002140F628
:1011300002404FF0844202EB401001710C4880697C
:10114000401C0B49886120210A20FFF791FB28B140
:1011500007488068401C0649886004E004488068AD
:10116000401E0349886010BD58080002000C004072
:101170004800002010B5154800680621C26D1448CB
:10118000904710B3114800680621C26B1048904781
:10119000002140F606404FF0844202EB40100171FE
:1011A0000C48C069401C0B49C86104210920FFF7A5
:1011B0005FFB28B10748C068401C0649C86004E0CE
:1011C0000448C068401E0349C86010BD58080002AA
:1011D000000C00404800002000B587B04FF40070BC
:1011E00001903020029042F2107003900020049091
:1011F00010200590042006900C48006801A9826820
:101200000B48904709480068102102680848904739
:10121000064800680221C26B0548904703482C38F5
:10122000006881691C20884707B000BD580800028B
:1012300000080040FF2202EB5101C9B200EB41005F
:10124000408A704770B50126420102F1844234465B
:10125000167003880D8823F0C0032B4303804B696D
:10126000002513B182F8344001E082F834508B69D4
:1012700013B182F82C4001E082F82C500B6923B1A5
:10128000012B05D0022B0CD107E082F83C5008E07E
:1012900082F83C4082F8385003E082F83C4082F803
:1012A00038404B6A13B182F8304001E082F8305088
:1012B0008A88C2800A7B0B89120202EB03120B8C14
:1012C0001A44028102884FF6C103898B1A400A43EF
:1012D0000280304670BD420102F1844292F84433EC
:1012E0000BB1C181704792F88433F9E72DE9F041E1
:1012F00031F0704216D10917082913D2DFE801F046
:10130000120406080A0C0E1002240CE004240AE061
:10131000082408E0102406E0202404E0402402E031
:10132000802400E001241D4BDFF874804FF4FA356F
:101330004FF4004606282FD2DFE800F003210B27E8
:101340002A14184F387850B10120FFF727F9387860
:1013500028B11878B0B1B5FBF4F0BDE8F081D8F849
:10136000040016E00F4F3F1D387828B10220FFF728
:1013700015F938780028ECD1D8F8000009E042F2DD
:10138000107006E0B6FBF4F0E7E7FFF725F900E0A0
:101390000548B0FBF4F0E0E70020DEE73C862042A1
:1013A000400000200089204200366E011A481B4987
:1013B000006842181A498A422BD91A491A4A01442C
:1013C000914202D84FF480107047184942181849CA
:1013D0008A4202D84FF400107047164A02448A42EB
:1013E00002D84FF440107047134A02448A4202D890
:1013F0004FF480007047114A02448A4202D84FF4E9
:10140000A00070470E4A1044884202D84FF4C00032
:10141000704700207047000040000020C0BDF0FF72
:10142000C0C62D00FFF6C2FFFF083D00FFED85FF9F
:10143000FF117A00FFDB0BFFFFC991FEFFB717FE1C
:10144000FFA59DFD00BF7047024601208840104067
:1014500008B1012070470020FCE7000000B58BB008
:1014600004210920FFF70EFA20210A20FFF70AFACB
:101470002C48006801220421C369082098472948A4
:10148000006801221021C3690A209847264B0FCB20
:10149000CDE90923CDE9070122483430006807A9C6
:1014A00042682248904718221F49103101A8FEF7D0
:1014B00039FF1C483430006801A902691B48904775
:1014C0000620019017483430006801A902691748C6
:1014D0009047144834300068202102681348904730
:1014E000104834300068816B104888470D4834300C
:1014F00000680221C26B0D4890470A4834300068EA
:101500000621C26B09489047064808300068816987
:101510001F20884703480830006881691E208847DB
:101520000BB000BD2408000220230000000C004086
:1015300010B5FFF7D7F80749B0FBF1F0064908707E
:101540004FF0E020006940F004004FF0E021086116
:1015500010BD000040420F001C00002010B50446E2
:1015600004E04FF47A7000F005F8641E002CF8D106
:1015700010BD00000146114A12784A434FF0E023A3
:101580005A6100229A611A46126942F001021A61F8
:1015900000BF4FF0E022106900F001021AB100F420
:1015A0008032002AF5D04FF0E022126922F00102C9
:1015B0004FF0E0231A6100229A6170471C0000205E
:1015C0002DE9F0472DED048B04460E4604B11EB9FB
:1015D000BDEC048BBDE8F0872068802803D1FFF7BD
:1015E0008DF805460BE02068402803D1FEF7E8FFA0
:1015F000054604E080202060FFF780F80546AE42F3
:1016000000D9E5E700EE105AF8EE400A00EE106A45
:10161000B8EE400A80EE801ABCEEC10A10EE100A45
:101620001FFA80F89FED3D9A4FF0000954E09FEDBE
:101630003C0AF0EE408A4FF0000A002739E03B46B2
:10164000F81707EB5070C010A7EBC000C0F10700FF
:1016500081B24846FFF7F8FE40448244781C00EE11
:10166000100AB8EEC01A00EE106AB8EE400AC1EED9
:10167000000A00EE10AAB8EE401A00EE105AB8EEBA
:10168000400AC1EE001A30EEE10AB0EE408AB5EE33
:10169000C08AF1EE10FA03D2B1EE480AB0EE408AE9
:1016A000B4EEE88AF1EE10FA01DDF0EE488A781C1B
:1016B000C7B20A2FC3DD38EEC90ADFED1A0AB4EE4D
:1016C000E00AF1EE10FA03D2B0EE689AC4F80C907A
:1016D00009F101001FFA80F9B9F1FF0FA7DDB8F198
:1016E000140F05DA00202062C4F80480A06013E023
:1016F0000120206200EE108AB8EE400AF3EE000AE4
:1017000080EE201ABCEEC10A10EE100A80B26060B2
:101710006068A8EB0010A06000BF59E70050C34705
:1017200000000000476C00AD10B59FED130A134890
:1017300080ED000A9FED100A80ED020A9FED0E0A6F
:1017400080ED030A00F072F80C498861DFED0C0AA5
:101750009FED0C0A0C4A002108481C30FFF7A6FA3E
:10176000DFED070A9FED070A074A0C320021034804
:101770006430FFF79BFA10BD0000000070000020ED
:101780000000C84300007A442800002010B500F093
:10179000D5F900F05BFA00F0F7F910BD70B504461A
:1017A0000D46E1B20248FFF796FD204670BD0000ED
:1017B0000010004010B500F01BF9FFF7B5FF002046
:1017C00008490870487000F031F80649486000F098
:1017D00029F8044988600020C8600021014801619F
:1017E00010BD00001C01002010B5FFF7CFFF00F076
:1017F00001F810BD10B50A48806890ED040ABDEEEE
:10180000C00A074880ED030A806890ED050ABDEE26
:10181000C00A034880ED040A0C3000F045F910BD01
:101820001C010020004870477000002000487047ED
:101830004800002010B508210520FFF735F80821E1
:101840000520FFF741F8FF210720FFF72DF8FF21C2
:101850000720FFF739F80A20FFF78CFEFF21072049
:10186000FFF710F84FF4FA70FFF784FE034804788E
:1018700008210520FFF732F8204610BD604C0040DB
:1018800008B50CE00021009104E0BDF80010491CEF
:1018900089B20091BDF80010B1F57A7FF5DB011E29
:1018A000A0F1010290B2EDD108BD0000FFF7B0FA3F
:1018B0004FF4E13000F0E0F9FFF73AFE0120FFF7C6
:1018C00017F8FFF771F8FFF775FF08A0FEF7AEFCF9
:1018D0000A49096808688047094800F0E5F804E00B
:1018E000FFF782FF0120FFF739FEF9E748656C6CCE
:1018F0006F2C4D5350343332210D0A002C08000256
:101900000400002010B52DED068B3449886900F0E5
:10191000D7FB41EC1A0B9FED320B53EC102B00F070
:10192000E3FB41EC190B9FED300B53EC102B00F057
:10193000FBF941EC180B00F07FFB28490862C869ED
:1019400000F0BEFB41EC1A0B9FED250B53EC102B66
:1019500000F0CAFB41EC190B9FED230B53EC102B4D
:1019600000F0E2F941EC180B00F066FB1B494862FD
:10197000886800F08EFB41EC1A0B9FED190B53ECBD
:10198000102B00F0B1FB41EC190B9FED170B53EC42
:10199000102B00F0C9F941EC180B00F01DFB0F49AA
:1019A0000861C86800F075FB41EC1A0B9FED0C0B49
:1019B00053EC102B00F098FB41EC190B9FED0A0B38
:1019C00053EC102B00F0B0F941EC180B00F004FBC5
:1019D00002494861BDEC068B10BD000048000020A4
:1019E0009320046EE25C35400000000000807640E9
:1019F00010B530214FF47A7000F01EF8402101201C
:101A0000FEF752FF80210120FEF74EFF4021032008
:101A1000FEF74AFF80210320FEF746FF4021032006
:101A2000FEF752FF80210320FEF74EFFFFF716FD61
:101A3000FFF7D2FB10BD000030B587B004460D465D
:101A40001848006801224021836902209847154800
:101A50000068012280218369022098474FF40070BA
:101A600001900295039408200490C0200590002066
:101A700006900C483430006801A9C26A4FF08040DB
:101A800090470A20049007483430006801A9C26AD0
:101A90004FF08040904708210520FEF715FF07B062
:101AA00030BD00002408000270B50546002440E067
:101AB00055F8240000281DDA402000EB84111E4850
:101AC000006842680120904755F82400002802DB96
:101AD00055F8240002E055F8240040420246082050
:101AE00000EB4401144834300068436B4FF08040F1
:101AF00098471CE0402000EB84110F480068826882
:101B00000120904755F82400002802DB55F82400F6
:101B100002E055F8240040420246082000EB440150
:101B2000054834300068436B4FF080409847601C94
:101B3000C4B2022CBCDB70BD2408000210B5002426
:101B4000FFF778FE044620110E4908710F2000EAC5
:101B5000C400082101EA44010843C4F3C00108435A
:101B6000022101EA640108430649487108460079E8
:101B70004979401A00EE100AB8EEC00A014880ED1B
:101B8000000A10BD7000002010B52DED088B2A4909
:101B90008969086800F07DFA41EC1B0B9FED270B6B
:101BA00053EC102B00F0A0FA41EC1A0B9FED250B23
:101BB00053EC102B00F0B8F841EC190B00F082F850
:101BC00008EE100A1C48D0ED020AB0EE600AF0EEF2
:101BD000480A1C30FEF772FF174880ED040A0146E0
:101BE0008969486800F055FA41EC1B0B9FED130B17
:101BF00053EC102B00F078FA41EC1A0B9FED110B0F
:101C000053EC102B00F090F841EC190B00F05AF84F
:101C100008EE100A0848D0ED030AB0EE600AF0EEB4
:101C2000480A6430FEF74AFFB1EE400A024880EDF0
:101C3000050ABDEC088B10BD7000002000000000FC
:101C40000000F03FA4703D0AD7A3E03F094890EDA3
:101C5000000AFAEE0E0A30EEC00A80ED020A90ED9C
:101C6000000AFAEE0E0A30EE200AB1EE400A80EDCC
:101C7000030A70477000002010B58AB0044628227D
:101C80000D496846FEF74EFB21466846FFF798FC73
:101C90000A48006801220C2183691046984769466A
:101CA0000748FFF7CFFA05483C30006881680448D0
:101CB00088470AB010BD0000F82200002408000286
:101CC0000010004021F00042A2F16052B2F5801FE6
:101CD00001F0004328BFD2F17F6C0BD95FEA001CF2
:101CE00043EAC20242EB507018BF704728BF20F091
:101CF00001007047B2F5801FBCBF184670474FEA1D
:101D0000410C1CF5001F02D2084600F0F0BA70B575
:101D100000F094FA00000089FFF7F6BF4FF0004092
:101D2000A0F58000704700002DE9C04130B4DFF815
:101D3000A0C23CEA111418BF3CEA131400F0EC8076
:101D400081EA03051CEA111444EAD57418BF1CEAA1
:101D5000131500F0C780A4EB05044FF0004545EAD9
:101D6000C12145EAC32341EA505143EA525304F1E9
:101D70007F74994204F500344FEAC0204FEAC22232
:101D800008BF904200F09C804FEA13650FF24016A6
:101D9000765D4FEA134506FB05F7C7F1807706FB32
:101DA00007F74FEAD737A7FB03687642C8F58038B4
:101DB000A7FB06CE38BFA8F1010807FB08E64FF0E5
:101DC000000EA6FB028CE6FB03CEDCF1000CCEF18C
:101DD000004E38BFAEF1010EA6FB0C584FF00007C5
:101DE0004FF00005E6FB0E87A1FB08C6A0FB07CE5F
:101DF00016EB0E0645F10005E1FB076515F1E04E17
:101E00007EBFA4F580345FEA46066D4116F1800777
:101E100045F100054FEA17274FEA066647EA0567CE
:101E2000A6F1DE46B6F1805F4FEA15251FD9384688
:101E300024F0010C05EBC471BCF1FE6F01EB0C1139
:101E400002D8F0BCBDE8008124425CBF01F5801ED1
:101E50009EEAC47F02D4F0BCBDE80081244238D49D
:101E6000F0BCA1F1C041BDE8004100F035BA4FEA35
:101E7000D22242EA43524FEAD323A7FB02864FEA1B
:101E8000D02040EA415007FB03661EEA0E0F4FEADE
:101E9000D12105FB026658BFA6EB0056B6EB0056F3
:101EA0004FEA520E4EEAC37E18EB0E0E56EB530E5F
:101EB000BDD518EB02085E417F1C55F10005B6E761
:101EC0004FF480154FF000074FF000064FF0000868
:101ED000ADE7F0BC4FF0000001F1C04101F000415E
:101EE000BDE8008111EA0C1F0CEA131500D00CE0CC
:101EF00013EA0C1F00F025804FF00000F0BC81EACF
:101F0000030101F00041BDE80081F0BCBDE80041E3
:101F100081EA030100F0E0B9F0BCBDE8004170B512
:101F200000F08CF9097EFC3E00F007B881EA03015D
:101F30004FF0000001F00041704781EA030100F01A
:101F4000CBB9F0BCBDE800414FF00000214970471B
:101F5000FFFDFBF9F7F5F4F2F0EEEDEBE9E8E6E46E
:101F6000E3E1E0DEDDDBDAD8D7D5D4D3D1D0CFCDF5
:101F7000CCCBCAC8C7C6C5C4C2C1C0BFBEBDBCBB2E
:101F8000BAB9B8B7B6B5B4B3B2B1B0AFAEADACAB29
:101F9000AAA9A8A8A7A6A5A4A3A3A2A1A09F9F9E03
:101FA0009D9C9C9B9A9999989797969595949393B5
:101FB000929191908F8F8E8E8D8C8C8B8B8A89894C
:101FC00088888787868585848483838282818180CF
:101FD0000000FF070000F87F4FEA41034FEA535328
:101FE000A3F58063D3F11E03C8BFD3F1210C0CDD30
:101FF0004FF0004242EAC12242EA505232FA03FC58
:102000008CEAE17CACEBE1707047102BC4BF002080
:10201000704703F5787CBCF1FF3F04D06FF00042BD
:1020200082EA2100704770B500F008F949922480D7
:1020300000207047F2E700004FEA1153A3F58063D8
:10204000D3F11E03A8BFD3F1200C08DB4FF00042F0
:1020500042EAC12252EA505232FA03F07047094272
:102060000BD4102BC4BF0020704703F5787CBCF163
:10207000FF3F05D04FF0FF3070474FF00000704732
:1020800070B500F0DBF800BF499224800020704753
:10209000F0E710F0004248BF4042B0FA80F310FA77
:1020A00003F10AD0C3F11D0303F580634FEA4150E9
:1020B00002EB035202EBD12170474FF00000704752
:1020C000B0FA80F310FA03F10AD0C3F11D0303F54F
:1020D00080634FEA41504FEA035202EBD12170472F
:1020E0004FF0000070470000DFF848C170B51CEAEF
:1020F000111E1EBF1CEA13159EEA0C0F95EA0C0F69
:1021000000F06F8081EA030423EA4C134EEAD47E88
:1021100021EA4C1141F4801143F48013AE44A1FB39
:10212000024CA0FB0365AEF17F7E361955EB0C0522
:10213000A1FB034C4CF10003A0FB021C16EB0C06A8
:10214000654153F10003094218BF46F0010613F43C
:10215000007F0BD14FEA03314FEA0530340341EAE7
:10216000155140EA16506FF003020AE04FEAC3210E
:102170004FEAC520F40241EA555140EA56506FF04B
:10218000020202EB2E4201EB025585EACE710AD023
:102190005FEA440C18BF24F0004450F1000041F104
:1021A000000120EAD47040F2FE7C624500D270BD8E
:1021B000A84214BF4FF080444FF04044002E08BFA7
:1021C0000024BEF1806FA8BFA1F1C041BDE87040FE
:1021D00080F282804FF0000001F1C04101F0004127
:1021E00070479EEA0C0F0CEA131518BF95EA0C0F06
:1021F00006D04FF0000081EA030E0EF0004170BDE2
:1022000000F01CF88900013E00F007B800F009B8A2
:102210004FEA430C5FEA5C5C08D081EA030100F0FE
:102220005BB84FEA410C5FEA5C5CF6D14FF000000E
:10223000014970470000FF070000F87F0EF1020E11
:102240002EF0030E5EF8046B364205D4012A43EBF0
:10225000030515F5001F12D8012841EB010C1CF5F0
:10226000001F0CD80ED14FEAD17C15F5001F0CEBE6
:102270004C0C0CF1020C08BF4CEBD37C04E04FF08B
:10228000080C01E04FEAD37C0CEB4C0526FA05F66E
:1022900006F00706B6F1040C06D20EEB860CBDE87C
:1022A00070404CF0010C6047DFE80CF0090B0202B3
:1022B0004FF000414FF00000A1F5002170BD19461C
:1022C0001046012851EB010418BFD4F5001484BF57
:1022D000002001F0004170BD0808A0F500114FEA90
:1022E000310170474FF04070E1EE100A7047FF2156
:1022F00041EAD050C0057047800000001A0000007D
:10230000000000006F00000000000000000000005E
:1023100000000000000000000100000000000000BC
:102320000002000030000000000000000400000077
:102330000200000000400000000000000008000053
:10234000100000000000000000000000330000004A
:1023500034000000350000003600000037000000A7
:102360003800000000000000004C0040014C00401C
:10237000204C0040214C0040404C0040414C00406B
:10238000604C0040614C0040804C0040814C00405B
:10239000204D0040B4230000000000204800000051
:1023A00080010000FC2300004800002048030000DA
:1023B0009C01000000000000E8030000E8030000AA
:1023C000000000000000000000000000000000000D
:1023D0000000000000000000000000000000C842F3
:1023E0000000803F000000000000C8420000803F65
:0C23F000000000000000000000000000E1
:0400000500000145B1
:00000001FF
