:020000040000FA
:10000000080400205D010000650100006701000098
:10001000690100006B0100006D010000000000009C
:100020000000000000000000000000006F01000060
:100030007101000000000000730100007501000064
:1000400077010000770100007701000077010000D0
:1000500077010000770100007701000077010000C0
:100060008D15000077010000770100007701000086
:10007000B1150000711600005D170000C1170000E7
:100080007701000077010000770100007701000090
:100090007701000077010000770100007701000080
:1000A000BD0700005D150000751500007701000018
:1000B0007701000077010000770100007701000060
:1000C00077010000770100007701000011130000A4
:1000D0007701000077010000770100007701000040
:1000E0007701000000000000000000000000000098
:1000F0000000000000000000000000000000000000
:1001000000000000000000000000000000000000EF
:1001100000000000000000000000000000000000DF
:1001200000000000000000000000000000000000CF
:1001300000000000000000000000000000000000BF
:1001400000000000DFF810D000F026FB0048004758
:1001500091220000AFF30080080400200648804789
:1001600006480047FEE7FEE7FEE7FEE7FEE7FEE79C
:10017000FEE7FEE7FEE7FEE7F114000045010000A0
:1001800040EA01039B0703D009E008C9121F08C019
:10019000042AFAD203E011F8013B00F8013B521E99
:1001A000F9D27047D2B201E000F8012B491EFBD210
:1001B00070470022F6E710B513460A460446194672
:1001C000FFF7F0FF204610BD2DE9FE4F804681EA83
:1001D0000300C00F0C46009021F0004123F00045C1
:1001E000B8EB0200A94105D24046214690461C4684
:1001F0000B46024623F00040104347D0270DC7F3BB
:100200000A00C3F30A510290401A019040286BDAA9
:10021000C3F3130040F4801B0098924620B10023E2
:10022000D2EB030A63EB0B0B01985946C0F1400275
:10023000504600F0ECF906460D4650465946019AE4
:1002400000F004FA10EB08006141002487EA115223
:1002500084EAE7731A4340D0009A62B3019A012AF4
:100260004FEA075215DC001B61EB02014FF0004220
:1002700002EA0752CDE90042001C41F580113246E6
:100280002B4600F03BFA03B0BDE8F08F4046214614
:10029000F9E7001B61EB0201001C41F58013001817
:1002A0005B412018A2F5001747EB030140EAD57027
:1002B000B6196D4111E06D084FEA360645EAC07582
:1002C0004FEA0752001B61EB0201001C41F580114F
:1002D00049084FEA30000019514132462B4603B01D
:1002E000BDE8F04F00F0FBB9009801224000002368
:1002F000D0EB020263EBE073009821464FEAE07412
:10030000B8EB000061EB0401E9E783F000435BE731
:1003100081F0004158E72DE9FE4F81EA030404F023
:10032000004421F0004100944FF0000B23F0004303
:1003300050EA01045ED052EA03045BD0C3F30A54CE
:10034000C1F30A552C44A4F2F3340194A0FB0254E7
:10035000C1F3130141F48011C3F3130343F4801379
:1003600001FB024400FB034E840A970A44EA8154CD
:1003700047EA8357A4FB076802958D0A05FB0785AA
:100380004FEA932C04FB0C542705029D4FEA0658B4
:1003900047EA1637B5EB08056EEB070C870E920E91
:1003A00047EA811742EA8312A7FB0201B6EB0B0171
:1003B00064EB00042B0D43EA0C335E1844EB1C5035
:1003C000DA465146E7FB0201C5F313044FEA0B334B
:1003D00043EA14534FEA0432019C43EA0603A4F1B2
:1003E0000C040294009CCDE900B400F087F903B03E
:1003F000BDE8F08F00200146F9E72DE9F04D81EAD4
:10040000030404F0004B21F0004514464FF0000AAD
:1004100023F0004150EA050220D054EA01021DD029
:10042000C5F30A570246C5F31303C1F31300C1F322
:100430000A5640F4801543F48013A7EB0608101BFE
:10044000D64608F2FD3873EB050002D308F1010827
:1004500001E092185B41B8F1000F03DA0020014679
:10046000BDE8F08D00204FF48011064684460EE072
:10047000171B73EB050705D3121B63EB050306433C
:100480004CEA010C49084FEA300092185B4150EAEF
:100490000107EDD152EA030012D082EA040083EA98
:1004A0000501084305D0101BAB4106D201220023F1
:1004B00006E000224FF0004302E06FF0010253100B
:1004C0001AEB06004CEB085110EB0A0041EB0B0154
:1004D000BDE8F04D00F003B90EB5C10F80EAE07041
:1004E0000844CA07002140F233438DE80E000A4653
:1004F0000B4600F003F903B000BD0EB540F23341E6
:1005000002910021CDE900110A460B4600F0F6F8F1
:1005100003B000BD70B5C1F30A5201F000450024DC
:10052000C1F3130140F2FF3341F480119A4201DA22
:10053000002070BD40F233439A42A2F2334203DC02
:10054000524200F073F800E090402C43F1D040425A
:1005500070BDC1F30A5210B5C1F3130140F2FF336D
:1005600041F480119A4201DA002010BD40F2334379
:100570009A42A2F2334203DC524200F057F810BD17
:10058000904010BD00F0004230F000400AD0C10D94
:1005900001F56071C0F3160042EA0151C20840073C
:1005A0001143704700200146704701F0004330B40A
:1005B00021F0004150EA010206D00A0DA2F5607256
:1005C000C1F31301002A02DC30BC00207047440F45
:1005D00044EAC104C100E01830BC00EBC25000F096
:1005E00047B830B50B46014600202022012409E01F
:1005F00021FA02F59D4205D303FA02F5491B04FADC
:1006000002F52844151EA2F10102F1DC30BD202ABA
:1006100004DB203A00FA02F1002070479140C2F159
:10062000200320FA03F3194390407047202A04DB8B
:10063000203A21FA02F00021704721FA02F3D0405B
:10064000C2F120029140084319467047202A06DB78
:10065000CB17203A41FA02F043EAE07306E041FA90
:1006600002F3D040C2F1200291400843194670477E
:100670000029A8BF7047401C490008BF20F00100B6
:10068000704710B4B0FA80FC00FA0CF050EA010494
:1006900004BF10BC704749B1CCF1200421FA04F426
:1006A00011FA0CF118BF012121430843A3EB0C01FF
:1006B000CB1D4FEA00614FEA102042BF002010BC62
:1006C000704700EBC35010440029A4BF10BC704712
:1006D000401C490008BF20F0010010BC704710B555
:1006E000141E73F1000408DA401C41F10001921855
:1006F0005B411A4301D120F0010010BD2DE9F04DFE
:1007000092469B4611B1B1FA81F202E0B0FA80F252
:1007100020329046FFF77BFF04460F4640EA0A006E
:1007200041EA0B0153465A46084313D0114653EA97
:10073000010019D0C8F140025046FFF777FF054687
:100740000E46504659464246FFF761FF084305D022
:10075000012004E020463946BDE8F08D0020054325
:1007600046EAE0762C4337430A986305E40AA0EB97
:1007700008000022FD0A44EA47540A3002D500204E
:100780000146E9E7010510196941DDE9084500194D
:100790006941BDE8F04DA2E7064C074D06E0E06870
:1007A00040F0010394E8070098471034AC42F6D3B8
:1007B000FFF7CCFCC0330000E033000070B500242C
:1007C00013490968886E804705460E461048006840
:1007D000C26E284631469047022305EA03000021F5
:1007E00048404940084312D00A4800F01DF800BFB5
:1007F00008E0084830F81420214607A001F048F925
:10080000601CC4B2022CF4DB06A001F041F970BDFB
:1008100004080002100000205B25645D3A25640D89
:10082000090000000D0A0000094B10B55968C1F31A
:10083000044109E003EB8102D2F8984020F811400E
:100840009269120602D4491C2029F3D310BD00007E
:1008500000200140064A46F65A1111600449503101
:100860000A6802430A6003490120087070470000CB
:100870000004014000802042044908680968C0F370
:10088000022001F0E061090101F056B808040140BE
:100890001CB56B4601AA0021032000F0BBFD3749BF
:1008A0000868374A00F4E020B0F5403F2ED007DC5E
:1008B00030B3B0F5803F25D0B0F5003F06D123E03E
:1008C000B0F5802F24D0B0F5A02F23D00020019BBD
:1008D000002B51D00968C1F309018B0502D541F401
:1008E0007E4109B2002947D0264B904293F8D82088
:1008F00016D1002A009A0FD092ED0F0A526A19E021
:100900002148E4E72148E2E72148E0E72148DEE723
:100910002148DCE71046DAE792ED070A526809E061
:10092000002A009A03D092ED0E0A126A02E092EDBC
:10093000060A126800EE901AC2F54071B7EE002A5E
:10094000F8EEE00A20EE201A00EE901AF8EEE01A17
:10095000F0EE420A40EE210A81EE200AF0EE420A51
:1009600070EEC00A00EE100AB8EE400A80EE201ABF
:10097000BCEEC10A10EE100A1CBD000004040140C8
:10098000006CDC020080204260E31600C0C62D002F
:10099000808D5B00001BB70000366E0104490868BB
:1009A000096800F0070001F4E021090300F0C4BF6A
:1009B00008040140044908680968C0F3021001F006
:1009C000E04100F0B9BF000008040140014AC2E95B
:1009D000001070475C000020002100F001B800000A
:1009E0002DE9F0470C462249064646F65A100860A3
:1009F00000F008FD00F00109012000F0F3FC00F018
:100A0000FBFF0CB1012500E000251A49012281F805
:100A1000C021174B0C331F6827F4E00707431F6002
:100A2000002316B181F8E42101E081F8E43181F876
:100A3000E021114FDFF844C003E00DB1641E05D082
:100A40003A709CF80080B8F1000FF6D12EB910B1C1
:100A500081F8C02101E081F8C0310A70484600F0F9
:100A6000C9FC05B114B10120BDE8F0870020FBE707
:100A70000004014000802042048A20420489204270
:100A8000002100F001B800002DE9F0470C46224992
:100A9000064646F65A10086000F0B4FC00F0010962
:100AA000012000F09FFCB6F5007F03D000201CB1B0
:100AB000012502E00120FAE70025174A174B0C3206
:100AC000012110B183F8A41106E0176847F003076D
:100AD0001760002783F8A47183F8A011104FDFF886
:100AE00044C003E00DB1641E05D039709CF800804D
:100AF000B8F1000FF6D120B9106820F003003043A0
:100B000010601970484600F075FC05B114B1012061
:100B1000BDE8F0870020FBE7000401400080204290
:100B2000008A204200892042034A52F820000088AF
:100B3000084000D00120704790330000074A52F867
:100B4000200042898A43428182898A438281828845
:100B50008A438280C2888A43C280704790330000F3
:100B6000064A52F8200042898A43428182898A4398
:100B7000828182880A43828070470000903300009F
:100B8000034A52F8200042880A434280704700001E
:100B900090330000034A52F8200042888A43428082
:100BA000704700009033000010B50748007840F00F
:100BB0002000054908700846007840F010000870D1
:100BC000C82001F025F910BD454C00400A480078C6
:100BD00040F01000084908700846007840F02000F6
:100BE00008700846007820F0100008700846007869
:100BF00020F0200008707047434C004008480078FF
:100C000020F01000064908700846007840F02000E7
:100C100008700846007840F0100008707047000027
:100C2000434C00400848007840F010000649087026
:100C30000846007840F0200008700846007820F050
:100C40002000087070470000434C004010B5044677
:100C50001548006812214269012090471CB31248D0
:100C600000680221426B012090470F480068102164
:100C7000426B012090470C4800680221826A0120E3
:100C80009047094800681021826A01209047064871
:100C90000830006881693320884703482C30006899
:100CA00041690220884710BD24080002002144F653
:100CB00003404FF0844202EB401001727047012163
:100CC00044F603404FF0844202EB4010017270473B
:100CD00000B500F049F800F00CF8FFF7F0FF00BD98
:100CE000002144F603404FF0844202EB40100171B2
:100CF0007047012144F603404FF0844202EB40105C
:100D00000171704710B50A48006801210268084661
:100D1000904707480068072102680220904700F0CA
:100D200011F800F021F8FFF7DBFFFFF7BFFF10BD60
:100D30002408000200B500F020F8FFF7D1FFFFF70C
:100D4000BEFF00BD002144F602404FF0844202EB9A
:100D5000401001707047012144F602404FF0844278
:100D600002EB401001707047002144F603404FF041
:100D7000844202EB401001707047012144F60340A9
:100D80004FF0844202EB40100170704710B50346EB
:100D9000072093FBF0F100FB1130C4B2072C26D2E0
:100DA000DFE804F0040B12191C1F2200FFF7E5FF17
:100DB000FFF796FFFFF77AFF1CE0FFF7D5FFFFF77D
:100DC00098FFFFF773FF15E0FFF7CEFFFFF788FFEF
:100DD000FFF775FF0EE000F00FF80BE000F014F8DD
:100DE00008E0FFF7A7FF05E0FFF772FF02E0FFF75B
:100DF000B2FF00BF00BF10BD00B5FFF7BEFFFFF799
:100E000078FFFFF75CFF00BD00B5FFF7B6FFFFF707
:100E100070FFFFF74BFF00BD30B5002419E004F16F
:100E2000B001C8B2002100F02EF90021084600F000
:100E30002AF90021102000F026F9002505E0012103
:100E4000002000F020F9681CC5B2802DF7DB601C83
:100E5000C4B2082CE3DB30BD10B5FFF7A5FE0021BE
:100E6000AE2000F010F90021084600F00CF9002136
:100E7000102000F008F90021402000F004F90021C2
:100E8000812000F000F90021CF2000F0FCF80021C3
:100E9000A12000F0F8F80021C82000F0F4F80021AB
:100EA000A62000F0F0F80021A82000F0ECF80021C6
:100EB0003F2000F0E8F80021D32000F0E4F8002102
:100EC000084600F0E0F80021D52000F0DCF8002111
:100ED000802000F0D8F80021D92000F0D4F80021BB
:100EE000F12000F0D0F80021DA2000F0CCF8002149
:100EF000122000F0C8F80021DB2000F0C4F8002127
:100F0000402000F0C0F80021202000F0BCF80021B3
:100F1000022000F0B8F800218D2000F0B4F8002184
:100F2000142000F0B0F80021A42000F0ACF800215B
:100F3000A62000F0A8F8FFF76FFF0021AF2000F017
:100F4000A2F810BD30B504460D4605F1B001C8B297
:100F5000002100F098F8102141EA1410002100F05F
:100F600092F804F00F00002100F08DF830BD000071
:100F70002DE9F04F82460F4690461C464FF000097F
:100F8000204604EBD071C1F3470B0025082C01D19A
:100F900006261EE02046E31704EB5373DB102146C0
:100FA0004FEAE47C04EB5C7C4FEAEC0CA4EBCC0C49
:100FB000BCF1000F02D04FF0010C01E04FF0000C2B
:100FC0006344224604EBD27C4FEA6C0C03FB0CF327
:100FD0009EB2A8F1200000F0FF0939465046FFF705
:100FE000B1FF002526E095FBFBF00BFB105038B954
:100FF000082C05D039467A1CD7B25046FFF7A2FF1D
:10100000082C09D109EB49010C4A02EB4101485D6A
:10101000012100F038F80BE0102C07D1084901EB52
:101020000911485D012100F02EF801E0BDE8F08FC4
:10103000681C85B2B542D6DB00BFF7E7F82900008F
:10104000322C00002DE9F0410546884616461C4624
:10105000002713E03846791CCFB2325C2346414664
:101060002846FFF785FF082C02D1A81DC5B205E070
:10107000204604EBD07105EB6101CDB2F05D002894
:10108000E8D1BDE8F08130B505460C46FFF79EFD7E
:10109000782000F07BF9FFF7C5FD1CB1402000F07F
:1010A00075F902E0002000F071F9FFF7BBFD28465A
:1010B00000F06CF9FFF7B6FDFFF7A0FD30BD0000B2
:1010C000B0EE401A10B99FED790A704790ED100A02
:1010D00080ED110A90ED0F0A80ED100AC0ED060AAE
:1010E00080ED071A30EEC10A80ED0F0A0178002961
:1010F00075D190ED010AD0ED0F1A20EE210A80ED96
:10110000090A90ED0A0AD0ED021A90ED0F2A01EEBD
:10111000820A80ED0A0A90ED0D0A80ED0E0A90ED2C
:101120000C0A80ED0D0A90ED0F0AD0ED101A30EE8A
:10113000610A80ED0C0A90ED030AD0ED0C1A20EE46
:10114000210A80ED0B0A90ED0A0AD0ED051AB4EEE3
:10115000E10AF1EE10FA04DD90ED050A80ED0A0ACD
:1011600010E090ED0A0AD0ED051AF1EE611AB4EE26
:10117000E10AF1EE10FA05D290ED050AB1EE400A4F
:1011800080ED0A0A90ED090AD0ED0A1A30EE210A24
:10119000D0ED0B1A30EE210A80ED080A90ED080A16
:1011A000D0ED041AB4EEE10AF1EE10FA04DD90ED90
:1011B000040A80ED080A76E090ED080AD0ED041AE2
:1011C000F1EE611AB4EEE10AF1EE10FA6BD290ED95
:1011D000040AB1EE400A80ED080A64E0FFE70178F6
:1011E000012960D190ED0F0AD0ED101A30EE610A9E
:1011F000D0ED011A20EE210A80ED090A90ED020AD5
:10120000D0ED0F1A20EE210A80ED0A0A90ED0D0AAA
:1012100080ED0E0A90ED0C0A80ED0D0A90ED0F0A9C
:10122000D0ED101AB0EE002A02EE610AD0ED111ACC
:1012300030EE210A80ED0C0A90ED030AD0ED0C1A75
:1012400020EE210A80ED0B0A90ED090AD0ED0A1A72
:1012500030EE210AD0ED0B1A30EE210AD0ED081A3B
:1012600030EE210A80ED080A90ED080AD0ED041A4C
:10127000B4EEE10AF1EE10FA04DD90ED040A80ED1F
:10128000080A10E090ED080AD0ED041AF1EE611A98
:10129000B4EEE10AF1EE10FA05D290ED040AB1EED7
:1012A000400A80ED080A90ED080A0EE700000000F1
:1012B00000B102B97047017092ED001A80ED011A79
:1012C00092ED011A80ED021A92ED021A80ED031AD6
:1012D00080ED040AC0ED050A9FED0C1A80ED0E1A90
:1012E00080ED0D1A80ED0C1A9FED081A80ED081A9A
:1012F00080ED0B1A80ED0A1A80ED091A80ED111AA3
:1013000080ED101A80ED0F1A00BFD3E70000000037
:1013100010B51B480068C16B012088470446184877
:1013200000682146426B01209047192000F05CFFC5
:1013300004F0020080B113480068401C11490860A5
:10134000084600680621B0FBF1F201FB12000E49CD
:1013500008700878FFF71AFD04F0100070B1002043
:1013600008490860084600680621B0FBF1F201FB5D
:101370001200054908700878FFF708FD10BD00004D
:10138000240800020C0000203C010020002123E082
:10139000134A127822F02002114B1A7000F08002DA
:1013A0002AB11A46127842F010021A7005E00C4A6F
:1013B000127822F010020A4B1A70094A127842F091
:1013C0002002074B1A701A46127822F020021A7077
:1013D0004206100E4A1CD1B20829D9DB7047000022
:1013E000434C004002494A6882434A60704700000B
:1013F000003004E002494A6802434A607047000036
:10140000003004E00248406800F47020704700009B
:10141000003004E0F0B50F4C002625686D1C16D096
:101420000D4F256885420AD0BD4208D0854201D1C2
:1014300029B1491E656804EB85040834F1E785424B
:1014400005D160688000083410601C60F0BD166033
:101450001E60F0BD041020001DE1D00B10B54FF44C
:10146000B540204908802048006801220C2183698A
:101470000B2098471C4800680122032183690B2038
:1014800098471A494FF40040FFF7A0FA1648103069
:101490000068016801208847134808380068012166
:1014A000426D002090471048083800680121426DC5
:1014B000084690470020FFF78FFA0320FFF7E0FA75
:1014C0000948103800680022052103680220984767
:1014D0000548103800680022052103680820984755
:1014E00010BD00000C48004024080002006CDC0223
:1014F0001548006840F47000134908604FF4B54087
:101500001249088080201249486146F65A10114954
:1015100008604FF48030091D0860081D006820F045
:101520000710C01C091D086000200A4908600A480D
:10153000006920F03000084908610846406920F041
:10154000300048617047000088ED00E00C48004022
:10155000003004E0000401400010014010B50348D1
:101560000068016A0248884710BD00005C0800025C
:1015700000C0004010B503480068016A024888476F
:1015800010BD00005C08000220C0004010B50748F4
:1015900000680221C26B480790470448343800684D
:1015A0000121C2680846904710BD0000580800029B
:1015B00010B52DED068B264800680221C26B254828
:1015C0009047002140F602004FF0844202EB4010A9
:1015D000017121498968214A1268891A642201FB34
:1015E00002F0FEF779FF9FED1E0B53EC102BFEF778
:1015F00092FE9FED1D0B53EC102BFEF7FEFEFEF747
:1016000089FF15490860C968144A5268891A64221A
:1016100001FB02F0FEF760FF9FED110B53EC102B66
:10162000FEF779FE9FED100B53EC102BFEF7E5FE55
:10163000FEF770FF0849486008468068074908605F
:101640000548C068486000F057FEBDEC068B10BD31
:10165000580800020008004064000020200000201C
:101660003333333333330B400000000000807640C7
:1016700010B53648007800F08000002864D1344866
:101680000068C16C3348884708B331480068816BF3
:1016900030488847002140F604004FF0844202EBB6
:1016A000401001712948007800F0400078B12748C7
:1016B000007800F03F003F280AD12448007840F02D
:1016C0008000224908704FF6FF702349088004E02B
:1016D0001E480078401C1D4908701D480068042100
:1016E000C26D1C48904778B3194800680421C26B4A
:1016F000184890471548007800F04000A0B1144801
:10170000006808220421C3691248984760B90F484D
:10171000007840F080000D49087004210D4800F069
:10172000AFF80D4908800FE00020084908700A4909
:1017300008800748006881690648884703480078A0
:1017400040F040000149087010BD00001400002066
:1017500058080002000800401600002010B5154887
:1017600000680221C26D1448904710B31148006808
:101770000221C26B10489047002140F602404FF012
:10178000844202EB401001710C488069401C0B49F7
:10179000886120210A20FFF7C7F928B1074880682F
:1017A000401C0649886004E004488068401E0349E4
:1017B000886010BD58080002000C00406400002042
:1017C00010B5154800680621C26D1448904710B343
:1017D000114800680621C26B10489047002140F66E
:1017E00006404FF0844202EB401001710C48C06982
:1017F000401C0B49C86104210920FFF795F928B165
:101800000748C068401C0649C86004E00448C06836
:10181000401E0349C86010BD58080002000C00407B
:101820006400002000B587B04FF4007001903020B4
:10183000029042F210700390002004901020059056
:10184000042006900C48006801A982680B48904764
:101850000948006810210268084890470648006857
:101860000221C26B0548904703482C380068816903
:101870001C20884707B000BD58080002000800403F
:10188000FF2202EB5101C9B200EB4100408A7047D0
:1018900070B50126420102F1844234461670038875
:1018A0000D8823F0C0032B4303804B69002513B13F
:1018B00082F8344001E082F834508B6913B182F829
:1018C0002C4001E082F82C500B6923B1012B05D08C
:1018D000022B0CD107E082F83C5008E082F83C4033
:1018E00082F8385003E082F83C4082F838404B6A76
:1018F00013B182F8304001E082F830508A88C2800B
:101900000A7B0B89120202EB03120B8C1A44028130
:1019100002884FF6C103898B1A400A430280304681
:1019200070BD420102F1844292F844330BB1C1818F
:10193000704792F88433F9E72DE9F04131F07042B5
:1019400016D10917082913D2DFE801F0120406089E
:101950000A0C0E1002240CE004240AE0082408E01B
:10196000102406E0202404E0402402E0802400E06B
:1019700001241D4BDFF874804FF4FA354FF4004614
:1019800006282FD2DFE800F003210B272A14184F76
:10199000387850B10120FEF75DFF387828B118780B
:1019A000B0B1B5FBF4F0BDE8F081D8F8040016E062
:1019B0000F4F3F1D387828B10220FEF74BFF3878D3
:1019C0000028ECD1D8F8000009E042F2107006E0DF
:1019D000B6FBF4F0E7E7FEF75BFF00E00548B0FB7D
:1019E000F4F0E0E70020DEE73C8620425C000020C7
:1019F0000089204200366E011A481B4900684218CF
:101A00001A498A422BD91A491A4A0144914202D8EA
:101A10004FF4801070471849421818498A4202D87A
:101A20004FF400107047164A02448A4202D84FF41D
:101A300040107047134A02448A4202D84FF4800093
:101A40007047114A02448A4202D84FF4A0007047FE
:101A50000E4A1044884202D84FF4C000704700205C
:101A6000704700005C000020C0BDF0FFC0C62D0024
:101A7000FFF6C2FFFF083D00FFED85FFFF117A0072
:101A8000FFDB0BFFFFC991FEFFB717FEFFA59DFD12
:101A90000FB4054B10B503A9044A029800F018F8DA
:101AA00010BC5DF814FB000051200000180000205D
:101AB00002E008C8121F08C1002AFAD17047704717
:101AC000002001E001C1121F002AFBD17047000075
:101AD0002DE9FF4F89B09B460446002506E02528E6
:101AE0000BD05A460B999047641C6D1C2078002837
:101AF000F5D10DB02846BDE8F08F0027B846012289
:101B0000474900E0074314F8013F203B02FA03F085
:101B10000842F7D120782E2819D114F8010F47F088
:101B200004072A280ED06FF02F022078A0F1300190
:101B300009290CD808EB880102EB410100EB0108F0
:101B4000641CF2E70A98641C50F8048B0A90207811
:101B50000028CED0642808D0692806D075281ED069
:101B60005A460B9990476D1C58E00A994FF00A09A4
:101B700001C90A91002802DA40422D2102E039050C
:101B800004D52B218DF82010012103E0F90704D0A2
:101B90002021F7E78A4608AE0DE00021FAE70A990E
:101BA0004FF00A0901C90A91F7E74946FEF719FD06
:101BB000303106F8011D0028F7D1ADEB060000F129
:101BC0002009780701D44FF00108C84502DDA8EBD1
:101BD000090000E000208046002706E008A85A46D9
:101BE000C05D0B9990476D1C7F1C5745F6DB04E0E8
:101BF00030205A460B9990476D1CB8F10001A8F1AE
:101C00000108F5DC05E016F8010B5A460B999047E0
:101C10006D1CB9F10001A9F10109F4DC641C65E750
:101C200009280100024601208840104008B1012027
:101C300070470020FCE700001CB50D4884690D4981
:101C400003C9CDE9000100F017F805E0684600F08F
:101C500025FC012000F0DCF805488069001B2828DD
:101C6000F4D3002000900190684600F017FC1CBDE2
:101C700064000020643300001CB500200090019037
:101C8000684600F00BFC0A2000F0C2F81CBD000002
:101C90001CB50D4884690D4903C9CDE90001FFF762
:101CA000EBFF05E0684600F0F9FB012000F0B0F81A
:101CB00005488069001B7828F4D30020009001902B
:101CC000684600F0EBFB1CBD640000205C330000A4
:101CD0001CB50D4884690D4903C9CDE90001FFF722
:101CE000CBFF05E0684600F0D9FB012000F090F83A
:101CF00005488069001B8C28F4D3002000900190D7
:101D0000684600F0CBFB1CBD64000020543300008B
:101D100000B58BB004210920FEF710FF20210A2016
:101D2000FEF70CFF2C48006801220421C36908203B
:101D300098472948006801221021C3690A20984762
:101D4000264B0FCBCDE90923CDE9070122483430DA
:101D5000006807A942682248904718221F4910319D
:101D600001A8FEF70DFA1C483430006801A9026989
:101D70001B4890470620019017483430006801A99D
:101D800002691748904714483430006820210268DF
:101D900013489047104834300068816B10488847DA
:101DA0000D48343000680221C26B0D4890470A4844
:101DB000343000680621C26B094890470648083055
:101DC000006881691F2088470348083000688169DE
:101DD0001E2088470BB000BD240800022C330000F1
:101DE000000C004010B5FEF7D9FD0749B0FBF1F03B
:101DF000064908704FF0E020006940F004004FF001
:101E0000E021086110BD000040420F001C000020CE
:101E100010B5044604E04FF47A7000F005F8641E33
:101E2000002CF8D110BD00000146114A12784A4337
:101E30004FF0E0235A6100229A611A46126942F07B
:101E400001021A6100BF4FF0E022106900F00102A8
:101E50001AB100F48032002AF5D04FF0E022126966
:101E600022F001024FF0E0231A6100229A617047CC
:101E70001C0000202DE9F0472DED048B04460E4692
:101E800004B11EB9BDEC048BBDE8F0872068802842
:101E900003D1FEF78FFD05460BE02068402803D1F3
:101EA000FEF7EAFC054604E080202060FEF782FD94
:101EB0000546AE4200D9E5E700EE105AF8EE400ABA
:101EC00000EE106AB8EE400A80EE801ABCEEC10A3D
:101ED00010EE100A1FFA80F89FED3D9A4FF00009AE
:101EE00054E09FED3C0AF0EE408A4FF0000A0027D4
:101EF00039E03B46F81707EB5070C010A7EBC00065
:101F0000C0F1070081B24846FFF78CFE404482448E
:101F1000781C00EE100AB8EEC01A00EE106AB8EE97
:101F2000400AC1EE000A00EE10AAB8EE401A00EE18
:101F3000105AB8EE400AC1EE001A30EEE10AB0EED7
:101F4000408AB5EEC08AF1EE10FA03D2B1EE480A2B
:101F5000B0EE408AB4EEE88AF1EE10FA01DDF0EE60
:101F6000488A781CC7B20A2FC3DD38EEC90ADFEDF4
:101F70001A0AB4EEE00AF1EE10FA03D2B0EE689A53
:101F8000C4F80C9009F101001FFA80F9B9F1FF0FB4
:101F9000A7DDB8F1140F05DA00202062C4F8048030
:101FA000A06013E00120206200EE108AB8EE400A23
:101FB000F3EE000A80EE201ABCEEC10A10EE100A01
:101FC00080B260606068A8EB0010A06000BF59E7B5
:101FD0000050C34700000000476C00AD10B59FEDF6
:101FE000130A134880ED000A9FED100A80ED030AE2
:101FF0009FED0E0A80ED040A00F0CCF80C49C86190
:10200000DFED0C0A9FED0C0A0C4A00210848203035
:10201000FFF74EF9DFED070A9FED070A074A0C327A
:10202000002103486830FFF743F910BD00000000AD
:102030008C0000200000C84300007A4428000020E3
:1020400010B500F075FA00F00BFB00F0A7FA10BD18
:1020500070B504460D46E1B20248FFF762FC204627
:1020600070BD00000010004010B500F0BBF9FFF794
:10207000B5FF00F0CFF800200A490870487000F062
:1020800089F80849486000F07DF80649886000F04A
:102090007DF80449C86000200861002101484161C1
:1020A00010BD00003C01002010B52148007830B977
:1020B00000201F49086100211D48416135E01C488E
:1020C0000078012813D1FFF7BBFF1948806890ED15
:1020D000050ABDEEC00A164880ED040A806890ED3E
:1020E000060ABDEEC00A124880ED050A1DE0104840
:1020F0000078022813D100F0C3F80D48C06890EDB5
:10210000050ABDEEC00A0A4880ED040AC06890EDD9
:10211000060ABDEEC00A064880ED050A05E000206B
:102120000349086100210248416100F003F810BD35
:102130003C01002010B5024800F0B0F910BD0000CD
:102140004C01002001460022002007E001F00103BD
:102150000BB1531CDAB24910431CD8B20828F5DB86
:102160001046704701460022002007E001F00103FD
:102170000BB1531CDAB24910431CD8B20828F5DB66
:1021800010467047004870478C0000200048704798
:1021900054010020004870476400002010B5082159
:1021A0000520FEF7DDFC08210520FEF7E9FCFF21F4
:1021B0000720FEF7D5FCFF210720FEF7E1FC0A20EF
:1021C000FFF732FEFF210720FEF7B8FC4FF49660C0
:1021D000FFF72AFE0348047808210520FEF7DAFC01
:1021E000204610BD604C004008B50CE00021009175
:1021F00004E0BDF80010491C89B20091BDF8001040
:10220000B1F57A7FF5DB011EA0F1010290B2EDD1AC
:1022100008BD000010B59FED150A154880ED000AB5
:102220009FED120A80ED030A9FED100A80ED040A6B
:1022300000200F498871C871FFF7ACFF0C49C861D5
:10224000DFED0C0A9FED0C0A0C4A002108482030F3
:10225000FFF72EF8DFED070A9FED070A074A0C3259
:10226000002103486830FFF723F810BD000000008C
:10227000540100200000C84300007A4440000020C0
:1022800010B500F033FA00F0C9FA00F065FA10BD9D
:10229000FFF7E4F84FF4E13000F088FBFFF7A2FD10
:1022A0000120FEF7D3FCFEF72DFDFFF7DDFEFEF764
:1022B000D3FD082309A200210846FEF7C3FE09A0AA
:1022C000FFF7E6FB0B4909680868804704E0FFF761
:1022D000EBFE0120FFF79CFDF9E7000068656C6CE0
:1022E0006F00000048656C6C6F2C4D5350343332D6
:1022F000210D0A002C08000210B52DED068B344983
:102300008869FEF7FAF841EC1A0B9FED320B53EC9B
:10231000102BFEF700F841EC190B9FED300B53EC3E
:10232000102BFEF76AF841EC180BFEF712F928495A
:102330000862C869FEF7E1F841EC1A0B9FED250B26
:1023400053EC102BFDF7E7FF41EC190B9FED230B2E
:1023500053EC102BFEF751F841EC180BFEF7F9F88F
:102360001B4948628868FEF7B7F841EC1A0B9FEDED
:10237000190B53EC102BFDF7CEFF41EC190B9FED21
:10238000170B53EC102BFEF738F841EC180BFEF747
:10239000C1F80F490861C868FEF79EF841EC1A0BB6
:1023A0009FED0C0B53EC102BFDF7B5FF41EC190B17
:1023B0009FED0A0B53EC102BFEF71FF841EC180BA6
:1023C000FEF7A8F802494861BDEC068B10BD00007D
:1023D000640000209320046EE25C354000000000A1
:1023E0000080764010B530214FF47A7000F01EF86E
:1023F00040210120FEF7B4FB80210120FEF7B0FB55
:1024000040210320FEF7ACFB80210320FEF7A8FB50
:1024100040210320FEF7B4FB80210320FEF7B0FB30
:10242000FFF776FCFFF7FEF910BD000030B587B06E
:1024300004460D46184800680122402183690220A5
:102440009847154800680122802183690220984737
:102450004FF4007001900295039408200490C0206E
:102460000590002006900C483430006801A9C26A2B
:102470004FF0804090470A200490074834300068AD
:1024800001A9C26A4FF08040904708210520FEF75D
:1024900077FB07B030BD00002408000270B5054688
:1024A000002440E055F8240000281DDA402000EB0D
:1024B00084111E48006842680120904755F82400A6
:1024C000002802DB55F8240002E055F824004042C1
:1024D0000246082000EB4401144834300068436B86
:1024E0004FF0804098471CE0402000EB84110F48DB
:1024F000006882680120904755F82400002802DB1C
:1025000055F8240002E055F8240040420246082015
:1025100000EB4401054834300068436B4FF08040C5
:102520009847601CC4B2022CBCDB70BD24080002BA
:1025300010B50024FFF732FE04462011FFF702FE1B
:102540001549887104F00F00FFF7FCFD1249C871AE
:1025500008468079C97908440F490872201108712A
:102560000F2000EAC400082101EA44010843C4F333
:10257000C0010843022101EA640108430649487189
:10258000084600794979401A00EE100AB8EEC00AF0
:10259000014880ED000A10BD8C00002010B52DED23
:1025A000088B2A49C9690868FDF796FF41EC1B0BA7
:1025B0009FED270B53EC102BFDF7ADFE41EC1A0BF2
:1025C0009FED250B53EC102BFDF717FF41EC190B7A
:1025D000FDF7EBFF08EE100A1C48D0ED030AB0EE41
:1025E000600AF0EE480A2030FEF76AFD174880EDD9
:1025F000050A0146C9694868FDF76EFF41EC1B0BEF
:102600009FED130B53EC102BFDF785FE41EC1A0BDD
:102610009FED110B53EC102BFDF7EFFE41EC190B66
:10262000FDF7C3FF08EE100A0848D0ED040AB0EE2B
:10263000600AF0EE480A6830FEF742FDB1EE400A4B
:10264000024880ED060ABDEC088B10BD8C0000200E
:10265000000000000000F03FA4703D0AD7A3E03F57
:10266000F7EE000AB0EE600A1D48007A20B9FFEECE
:10267000000AB0EE600A19E01948007A032803DA6C
:102680001748007A052804DCDFED160AB0EE600A70
:102690000CE01348007A022804DCF7EE000AB0EEE2
:1026A000600A03E0DFED100AB0EE600AFBEE040AF8
:1026B00060EE200A0A4890ED001AF0EE001A41EE92
:1026C000610AC0ED030AFBEE040A60EE200A90EDF9
:1026D000001AF0EE001A51EE610AC0ED040A7047CC
:1026E0008C0000209A99193F9A99993E10B50024C0
:1026F000FFF754FD04462011FFF734FD154988719A
:1027000004F00F00FFF72EFD1249C87108468079CA
:10271000C97908440F490872201108710F2000EA96
:10272000C400082101EA44010843C4F3C00108437E
:10273000022101EA6401084306494871084600790C
:102740004979401A00EE100AB8EEC00A014880ED3F
:10275000000A10BD5401002010B52DED088B2A4948
:10276000C9690868FDF7B8FE41EC1B0B9FED270B0C
:1027700053EC102BFDF7CFFD41EC1A0B9FED250B11
:1027800053EC102BFDF739FE41EC190BFDF70DFF53
:1027900008EE100A1C48D0ED030AB0EE600AF0EE15
:1027A000480A2030FEF78CFC174880ED050A0146E8
:1027B000C9694868FDF790FE41EC1B0B9FED130BB8
:1027C00053EC102BFDF7A7FD41EC1A0B9FED110BFD
:1027D00053EC102BFDF711FE41EC190BFDF7E5FE54
:1027E00008EE100A0848D0ED040AB0EE600AF0EED8
:1027F000480A6830FEF764FCB1EE400A024880EDFA
:10280000060ABDEC088B10BD54010020000000003A
:102810000000F03FA4703D0AD7A3E03F00B52DEDC6
:102820000C8B99B064216846FDF7C3FCB7EE000A33
:10283000B0EE408A56488079032806DB5448C079B8
:10284000032802DBFFF744FA97E0514880792828F3
:1028500005DB01204F490870FFF7EEF98DE04C4889
:10286000807968B94A48C07950B94A48007838B187
:10287000002048490870FFF70BFAFFF7FDF97CE0EC
:102880004348C079032802DBFFF722FA75E040488D
:10289000007A28B9FFF7FCF919B0BDEC0C8B00BD2C
:1028A0003B48007A032803DA3948007A052804DC1B
:1028B0009FED390AB0EE408A0CE03548007A0228D4
:1028C00004DCB7EE000AB0EE408A03E09FED330A65
:1028D000B0EE408A2E4890ED000A10EE101A08461D
:1028E000FDF750FE41EC1C0B9FED2D0B53EC102B14
:1028F000FDF711FD41EC1A0BBAEE0E0A28EE000AA4
:1029000010EE101A0846FDF73DFE41EC1B0B53EC90
:102910001A2BFDF7FAFC41EC190BFDF746FE1C499A
:10292000C860084690ED000A10EE101A0846FDF740
:1029300029FE41EC1D0B9FED1A0B53EC102BFDF7FC
:10294000EAFC41EC1B0BBAEE0E0A28EE000A10EE70
:10295000101A0846FDF716FE41EC1C0B53EC1B2B1E
:10296000FDF732FC41EC1A0B81F0004141EC190BF0
:10297000FDF71BFE064908618EE79FED0B0A044830
:1029800080ED030A9FED080A80ED040A00BF83E78B
:102990005401002058000020CDCCCC3ECDCC4C3E84
:1029A000000000000000E03F0000000010B58AB009
:1029B000044628220D496846FDF7E2FB2146684699
:1029C000FFF758FA0A48006801220C218369104673
:1029D000984769460748FEF75BFF05483C300068AA
:1029E0008168044888470AB010BD00000433000025
:1029F0002408000200100040000000000000000059
:102A0000002F000000000700070000147F147F144F
:102A100000242A7F2A1200626408132300364955D5
:102A2000225000000503000000001C2241000000AD
:102A300041221C000014083E08140008083E080843
:102A4000000000A06000000808080808000060609E
:102A50000000002010080402003E5149453E0000DD
:102A6000427F4000004261514946002141454B31BF
:102A7000001814127F10002745454539003C4A498B
:102A800049300001710905030036494949360006FD
:102A90004949291E00003636000000005636000065
:102AA00000081422410000141414141400004122E0
:102AB000140800020151090600324959513E007CB8
:102AC0001211127C007F49494936003E41414122A2
:102AD000007F4141221C007F49494941007F09098B
:102AE0000901003E4149497A007F0808087F00003B
:102AF000417F4100002040413F01007F08142241F6
:102B0000007F40404040007F020C027F007F0408AD
:102B1000107F003E4141413E007F09090906003E09
:102B20004151215E007F0919294600464949493132
:102B30000001017F0101003F4040403F001F204055
:102B4000201F003F4038403F006314081463000713
:102B50000870080700615149454300007F4141006A
:102B600000020C304000000041417F0000040201DF
:102B700002040040404040400000010204000020E8
:102B800054545478007F4844443800384444442026
:102B900000384444487F00385454541800087E09D3
:102BA00001020018A4A4A47C007F0804047800009B
:102BB000447D4000004080847D00007F1028440058
:102BC0000000417F4000007C04180478007C080469
:102BD000047800384444443800FC242424180018A5
:102BE000242418FC007C0804040800485454542091
:102BF00000043F444020003C4040207C001C20401A
:102C0000201C003C4030403C004428102844001C5C
:102C1000A0A0A07C004464544C440000087642000C
:102C200000007E0000000042760800000008100846
:102C30001000000000000000000000000000000084
:102C40000000000000F80000000000000033300029
:102C5000000000100C06100C060000000000000030
:102C6000000040C07840C0784000043F04043F04A6
:102C70000400007088FC08300000001820FF211EAE
:102C80000000F008F000E018000000211C031E21E5
:102C90001E0000F00888700000001E212324192760
:102CA000211010160E0000000000000000000000BF
:102CB0000000000000E018040200000000071820D7
:102CC000400000020418E000000000402018070047
:102CD0000000404080F0804040000202010F0102ED
:102CE0000200000000F0000000000101011F0101CE
:102CF0000100000000000000000080B07000000033
:102D000000000000000000000000000101010101BE
:102D10000101000000000000000000303000000051
:102D20000000000000008060180400601806010028
:102D3000000000E010080810E000000F1020201034
:102D40000F00001010F8000000000020203F20209D
:102D50000000007008080888700000302824222134
:102D600030000030088888483000001820202011EA
:102D70000E000000C02010F8000000070424243FCB
:102D8000240000F808888808080000192120201174
:102D90000E0000E0108888180000000F112020119C
:102DA0000E0000380808C83808000000003F000086
:102DB00000000070880808887000001C2221212271
:102DC0001C0000E010080810E00000003122221171
:102DD0000F00000000C0C000000000000030300004
:102DE0000000000000800000000000008060000083
:102DF00000000000804020100800000102040810BC
:102E000020004040404040404000040404040404CA
:102E10000400000810204080000000201008040278
:102E20000100007048080808F0000000003036017A
:102E30000000C030C828E810E00007182724231439
:102E40000B000000C038E0000000203C23020227F5
:102E5000382008F8888888700000203F2020201142
:102E60000E00C0300808080838000718202020107D
:102E7000080008F808080810E000203F2020201073
:102E80000F0008F88888E8081000203F2020232041
:102E9000180008F88888E8081000203F2000030088
:102EA0000000C03008080838000007182020221E43
:102EB000020008F808000008F808203F210101215D
:102EC0003F20000808F8080800000020203F2020CC
:102ED000000000000808F8080800C08080807F001B
:102EE000000008F888C028180800203F2001263874
:102EF000200008F8080000000000203F20202020CB
:102F0000300008F8F800F8F80800203F003F003FC4
:102F1000200008F830C00008F808203F20000718FB
:102F20003F00E01008080810E0000F1020202010DB
:102F30000F0008F808080808F000203F21010101EF
:102F40000000E01008080810E0000F182424385092
:102F50004F0008F8888888887000203F2000030C04
:102F6000302000708808080838000038202121220D
:102F70001C00180808F8080818000000203F20006E
:102F8000000008F808000008F808001F2020202092
:102F90001F000878880000C83808000007380E01B4
:102FA0000000F80800F80008F800033C0700073CA0
:102FB0000300081868808068180820302C03032C50
:102FC00030200838C800C83808000000203F200022
:102FD000000010080808C8380800203826212020E2
:102FE0001800000000FE020202000000007F4040C6
:102FF0004000000C30C00000000000000001063856
:10300000C00000020202FE000000004040407F00BD
:1030100000000000040202020400000000000000A2
:1030200000000000000000000000808080808080A0
:103030008080000202040000000000000000000088
:1030400000000000808080800000001924222222DD
:103050003F2008F8008080000000003F1120201170
:103060000E000000008080800000000E1120202053
:103070001100000000808088F800000E1120201050
:103080003F200000808080800000001F222222223A
:103090001300008080F0888888180020203F2020BE
:1030A00000000000808080808000006B94949493E6
:1030B000600008F8008080800000203F2100002090
:1030C0003F2000809898000000000020203F202032
:1030D0000000000000809898000000C08080807F81
:1030E000000008F8000080808000203F24022D307E
:1030F0002000000808F8000000000020203F2020E9
:1031000000008080808080808000203F20003F2061
:10311000003F8080008080800000203F2100002050
:103120003F200000808080800000001F20202020A1
:103130001F00808000808000000080FFA1202011FF
:103140000E000000008080808000000E112020A072
:10315000FF80808080008080800020203F21200030
:10316000010000008080808080000033242424241B
:103170001900008080E0808000000000001F2020F7
:1031800000008080000000808000001F20202010B0
:103190003F20808080000080808000010E30080683
:1031A000010080800080008080800F300C030C3094
:1031B0000F0000808000808080000020312E0E31C2
:1031C0002000808080000080808080818E701806C2
:1031D000010000808080808080000021302C22212E
:1031E000300000000000807C020200000000003F70
:1031F000404000000000FF00000000000000FF0051
:1032000000000002027C800000000040403F0000FF
:10321000000000060101020204040000000000009A
:1032200000000000F010101010FF10101010F0003F
:10323000000000000F04040404FF040404040F0051
:1032400000004040405F555555755555555F40400D
:1032500040000040200F094989790909090F2040E1
:10326000000000FE02424ACA4A4ACA4A4A4202FED4
:10327000000000FF40504C4340404F50505C40FF26
:1032800000000000F888888888FF88888888F8000F
:10329000000000001F080808087F888888889F8031
:1032A000F00080828282828282E2A2928A8682807A
:1032B0008000000000000040807F0000000000004F
:1032C0000000101010FF109008888888FF888888F8
:1032D00008000444827F01808040432C10284681EE
:1032E00080000010101010D030FF30D0121C1010D1
:1032F000000010080402010000FF000001020408A1
:1033000010000000800000001A0000000000000013
:103310006F0000000000000000000000000000003E
:10332000000000000100000000000000000200009A
:103330003000000000000000040000000200000057
:103340000040000000000000000800001000000025
:1033500000000000A8FDFFFF580200005802000016
:10336000A8FDFFFFBC020000BC02000044FDFFFFFF
:1033700044FDFFFF000000003300000034000000A7
:103380003500000036000000370000003800000063
:1033900000000000004C0040014C0040204C004068
:1033A000214C0040404C0040414C0040604C0040EB
:1033B000614C0040804C0040814C0040204D00405A
:1033C000E03300000000002064000000B01A00009C
:1033D0004434000064000020A4030000C01A000070
:1033E00000000000E8030000E80300000000000007
:1033F00000000000000000000000000000000000CD
:1034000000000000000000000000C8420000803FF3
:10341000000000000000C8420000803F00000000E3
:103420000000C8420000803F000000000000C842C9
:103430000000803F000000000000000000000000CD
:043440000000000088
:0400000500000145B1
:00000001FF
