:020000040000FA
:1000000018060020ED010000F5010000F7010000D6
:10001000F9010000FB010000FD01000000000000EC
:10002000000000000000000000000000FF010000D0
:1000300001020000000000000302000005020000B1
:10004000070200000702000007020000070200008C
:10005000070200000702000007020000070200007C
:100060001114000007020000070200000702000050
:10007000351400001D150000091600006D16000063
:10008000070200000702000007020000070200004C
:10009000070200000702000007020000070200003C
:1000A00039050000E1130000F91300000702000009
:1000B000070200000702000007020000070200001C
:1000C000070200000702000007020000A91000005C
:1000D00007020000070200002511000007020000CF
:1000E0000702000000000000000000000000000007
:1000F0000000000000000000000000000000000000
:1001000000000000000000000000000000000000EF
:1001100000000000000000000000000000000000DF
:1001200000000000000000000000000000000000CF
:1001300000000000000000000000000000000000BF
:100140000000000000F002F800F041F80AA090E87A
:10015000000C82448344AAF10107DA4501D100F082
:1001600036F8AFF2090EBAE80F0013F0010F18BF0E
:10017000FB1A43F001031847784600009846000038
:10018000103A24BF78C878C1FAD8520724BF30C8C3
:1001900030C144BF04680C60704700000023002495
:1001A00000250026103A28BF78C1FBD8520728BF87
:1001B00030C148BF0B607047642900F08B8000207D
:1001C00070471FB503F023FE1FBD10B510BD00F032
:1001D00081F91146FFF7F5FF02F010FC00F09FF9DE
:1001E00003B4FFF7F2FF03BC01F0A8FB0948804706
:1001F00009480047FEE7FEE7FEE7FEE7FEE7FEE709
:10020000FEE7FEE7FEE7FEE704480549034A054B23
:10021000704700007513000045010000180400201D
:100220001806002018040020704700000FB404498D
:1002300010B503AA029800F037F910BC5DF814FB62
:10024000180000200FB41CB5074B06AA7B44694672
:100250000090059800F00FF90020694600F01EF9A3
:100260001CBC5DF814FB00004D0200002DE9F041BC
:100270000E460446002020622046E168884730B3DD
:10028000252805D0D4E901219047206A401CF2E7D7
:10029000E168204600278847050018D0A5F14100F5
:1002A000192802D820354FF40067324629462046E7
:1002B0002760FFF781FF40B1012804D0F61D26F02A
:1002C00007060836D8E7361DD6E72846DAE7206A5B
:1002D000BDE8F0812DE9F04106460024106875293B
:1002E000314616A510D0AFF30080002802DA404254
:1002F00013A507E031688A0701D512A502E0490776
:1003000004D511A5012401E0AFF3008000210A22E9
:1003100006F1240709E0B0FBF2FCB0FBF2F302FBAC
:100320001C00303078541846491C0028F3D123466D
:100330002A463046BDE8F04100F03EB8000000001B
:100340002D0000002B0000002000000010B5203A16
:10035000C0F00B80B1E81850203AA0E81850B1E87E
:100360001850A0E81850BFF4F5AF5FEA027C24BF34
:10037000B1E81850A0E8185044BF18C918C0BDE82B
:1003800010405FEA827C24BF51F8043B40F8043BF4
:1003900008BF7047D20728BF31F8023B48BF11F8A9
:1003A000012B28BF20F8023B48BF00F8012B704703
:1003B00070477047704770472DE9F0470D469946E2
:1003C0009246044600F124080168880604D5E069D5
:1003D00021F01001216000E00120A84201DD471B4F
:1003E00000E00027A1697A1902EB0900081AA06150
:1003F0002078C00602D42046AFF30080002608E033
:10040000D4E901211AF806009047206A401C761CA6
:1004100020624E45F4DB2078C0060AD52046AFF3B3
:10042000008006E0D4E9012130209047206A401C7A
:100430002062381EA7F10107F4DC07E0D4E90121AE
:1004400018F805009047206A401C2062281EA5F17C
:100450000105F3DC2046AFF300802078000602D5CA
:100460000220BDE8F0870120FBE7000001694A1C7B
:1004700002610878704700B58FB0CDE901310021E5
:10048000059105497944CDE9031011466846FFF707
:10049000EDFE0FB000BD0000E5FFFFFF0A6802F8A7
:1004A000010B0A6070470000074B70B50D467B4496
:1004B000FFF7E1FF0446284600F008F810B14FF0BE
:1004C000FF3070BD204670BD871A0000007B00F031
:1004D00080007047754600F02BF8AE46050069466F
:1004E000534620F00700854618B020B5FFF78CFE74
:1004F000BDE820404FF000064FF000074FF0000825
:100500004FF0000B21F00701AC46ACE8C009ACE8A5
:10051000C009ACE8C009ACE8C0098D46704710B509
:100520000446AFF300802046BDE81040FFF758BEF8
:1005300000487047B403002070B5002413490968CF
:10054000886E804705460E4610480068C26E2846F1
:1005500031469047022305EA030000214840494004
:10056000084312D00A4800F01DF800BF08E0084810
:1005700030F81420214607A0FFF758FE601CC4B2D3
:10058000022CF4DB06A0FFF751FE70BD0408000248
:10059000100000205B25645D3A25640D0900000011
:1005A0000D0A0000094B10B55968C1F3044109E078
:1005B00003EB8102D2F8984020F8114092691206AC
:1005C00002D4491C2029F3D310BD000000200140B3
:1005D000064A46F65A111160044950310A6802432E
:1005E0000A600349012008707047000000040140C0
:1005F00000802042044908680968C0F3022001F025
:10060000E061090101F0EEB8080401401CB56B4639
:1006100001AA0021032000F03FFE37490868374A4D
:1006200000F4E020B0F5403F2ED007DC30B3B0F549
:10063000803F25D0B0F5003F06D123E0B0F5802FF4
:1006400024D0B0F5A02F23D00020019B002B51D047
:100650000968C1F309018B0502D541F47E4109B255
:10066000002947D0264B904293F8D82016D1002A73
:10067000009A0FD092ED0F0A526A19E02148E4E780
:100680002148E2E72148E0E72148DEE72148DCE7AE
:100690001046DAE792ED070A526809E0002A009A4C
:1006A00003D092ED0E0A126A02E092ED060A126879
:1006B00000EE901AC2F54071B7EE002AF8EEE00A9B
:1006C00020EE201A00EE901AF8EEE01AF0EE420A40
:1006D00040EE210A81EE200AF0EE420A70EEC00AD6
:1006E00000EE100AB8EE400A80EE201ABCEEC10AF5
:1006F00010EE100A1CBD000004040140006CDC0276
:100700000080204260E31600C0C62D00808D5B0093
:10071000001BB70000366E0104490868096800F044
:10072000070001F4E021090301F05CB8080401406E
:10073000044908680968C0F3021001F0E04101F0C3
:1007400051B8000008040140014AC2E90010704796
:1007500094000020002100F001B800002DE9F047CE
:100760000C462249064646F65A10086000F08CFDF9
:1007700000F00109012000F077FD01F093F80CB1C1
:10078000012500E000251A49012281F8C021174BFC
:100790000C331F6827F4E00707431F60002316B1DE
:1007A00081F8E42101E081F8E43181F8E021114F82
:1007B000DFF844C003E00DB1641E05D03A709CF828
:1007C0000080B8F1000FF6D12EB910B181F8C02128
:1007D00001E081F8C0310A70484600F04DFD05B1D6
:1007E00014B10120BDE8F0870020FBE700040140C0
:1007F00000802042048A204204892042002100F027
:1008000001B800002DE9F0470C462249064646F69D
:100810005A10086000F038FD00F00109012000F0D6
:1008200023FDB6F5007F03D000201CB1012502E0B6
:100830000120FAE70025174A174B0C32012110B1AD
:1008400083F8A41106E0176847F003071760002734
:1008500083F8A47183F8A011104FDFF844C003E0BF
:100860000DB1641E05D039709CF80080B8F1000FFE
:10087000F6D120B9106820F00300304310601970E1
:10088000484600F0F9FC05B114B10120BDE8F0873D
:100890000020FBE70004014000802042008A204243
:1008A00000892042034A52F820000088084000D006
:1008B00001207047C0470000054B002A53F8200074
:1008C000028B02D00A43028370478A43FBE7000091
:1008D000C0470000074A52F8200042898A434281FB
:1008E00082898A43828182888A438280C2888A433D
:1008F000C2807047C0470000064A52F82000428973
:100900008A43428182898A43828182880A43828023
:1009100070470000C0470000034A52F82000428898
:100920000A43428070470000C0470000034A52F863
:10093000200042888A43428070470000C047000080
:1009400010B50748007840F02000054908700846B7
:10095000007840F010000870C82001F0C9F910BDFF
:10096000444C00400A48007840F0100008490870E4
:100970000846007840F0200008700846007820F013
:10098000100008700846007820F0200008707047BA
:10099000424C00400848007820F0100006490870DA
:1009A0000846007840F0200008700846007840F0C3
:1009B0001000087070470000424C00400848007862
:1009C00040F01000064908700846007840F020000A
:1009D00008700846007820F020000870704700007A
:1009E000424C004010B50446154800681221426987
:1009F000012090471CB3124800680221426B01207D
:100A000090470F4800681021426B012090470C4826
:100A100000680221826A012090470948006810217D
:100A2000826A0120904706480830006881693320B7
:100A3000884703482C30006841690220884710BD70
:100A400024080002002144F603404FF0844202EBE8
:100A5000401001727047012144F603404FF0844278
:100A600002EB40100172704700B500F049F800F049
:100A70000CF8FFF7F0FF00BD002144F603404FF0F3
:100A8000844202EB401001717047012144F603409B
:100A90004FF0844202EB40100171704710B50A48D4
:100AA000006801210268084690470748006807214E
:100AB00002680220904700F011F800F021F8FFF7DB
:100AC000DBFFFFF7BFFF10BD2408000200B500F0F8
:100AD00020F8FFF7D1FFFFF7BEFF00BD002144F66D
:100AE00002404FF0844202EB401001707047012138
:100AF00044F602404FF0844202EB40100170704710
:100B0000002144F603404FF0844202EB4010017094
:100B10007047012144F603404FF0844202EB40103D
:100B20000170704710B50346072093FBF0F100FBFE
:100B30001130C4B2072C26D2DFE804F0040B1219DE
:100B40001C1F2200FFF7E5FFFFF796FFFFF77AFF74
:100B50001CE0FFF7D5FFFFF798FFFFF773FF15E0E5
:100B6000FFF7CEFFFFF788FFFFF775FF0EE000F0FD
:100B70000FF80BE000F014F808E0FFF7A7FF05E01E
:100B8000FFF772FF02E0FFF7B2FF00BF00BF10BD2A
:100B900000B5FFF7BEFFFFF778FFFFF75CFF00BD72
:100BA00000B5FFF7B6FFFFF770FFFFF74BFF00BD83
:100BB00030B5002419E004F1B001C8B2002100F002
:100BC0002EF90021084600F02AF90021102000F03B
:100BD00026F9002505E00121002000F020F9681C1D
:100BE000C5B2802DF7DB601CC4B2082CE3DB30BD3E
:100BF00010B5FFF7A5FE0021AE2000F010F900218E
:100C0000084600F00CF90021102000F008F900213E
:100C1000402000F004F90021812000F000F90021BB
:100C2000CF2000F0FCF80021A12000F0F8F800210E
:100C3000C82000F0F4F80021A62000F0F0F8002110
:100C4000A82000F0ECF800213F2000F0E8F8002197
:100C5000D32000F0E4F80021084600F0E0F800217D
:100C6000D52000F0DCF80021802000F0D8F8002129
:100C7000D92000F0D4F80021F12000F0D0F80021B4
:100C8000DA2000F0CCF80021122000F0C8F8002192
:100C9000DB2000F0C4F80021402000F0C0F8002163
:100CA000202000F0BCF80021022000F0B8F800215C
:100CB0008D2000F0B4F80021142000F0B0F80021DD
:100CC000A42000F0ACF80021A62000F0A8F8FFF75F
:100CD0006FFF0021AF2000F0A2F810BD30B5044630
:100CE0000D4605F1B001C8B2002100F098F81021BE
:100CF00041EA1410002100F092F804F00F000021E6
:100D000000F08DF830BD00002DE9F04F82460F460F
:100D100090461C464FF00009204604EBD071C1F309
:100D2000470B0025082C01D106261EE02046E317BC
:100D300004EB5373DB1021464FEAE47C04EB5C7C4C
:100D40004FEAEC0CA4EBCC0CBCF1000F02D04FF03E
:100D5000010C01E04FF0000C6344224604EBD27C0E
:100D60004FEA6C0C03FB0CF39EB2A8F1200000F0DC
:100D7000FF0939465046FFF7B1FF002526E095FBF5
:100D8000FBF00BFB105038B9082C05D039467A1C03
:100D9000D7B25046FFF7A2FF082C09D109EB490151
:100DA0000C4A02EB4101485D012100F038F80BE0EC
:100DB000102C07D1084901EB0911485D012100F011
:100DC0002EF801E0BDE8F08F681C85B2B542D6DB95
:100DD00000BFF7E7223E00005C4000002DE9F04133
:100DE0000546884616461C46002713E03846791CFF
:100DF000CFB2325C234641462846FFF785FF082CD8
:100E000002D1A81DC5B205E0204604EBD07105EB68
:100E10006101CDB2F05D0028E8D1BDE8F08130B5C8
:100E200005460C46FFF79EFD782000F0F1F9FFF72C
:100E3000C5FD1CB1402000F0EBF902E0002000F0FD
:100E4000E7F9FFF7BBFD284600F0E2F9FFF7B6FD32
:100E5000FFF7A0FD30BD0000B0EE401A10B99FEDC5
:100E6000790A704790ED100A80ED110A90ED0F0A93
:100E700080ED100AC0ED060A80ED071A30EEC10AB7
:100E800080ED0F0A0178002975D190ED010AD0EDAF
:100E90000F1A20EE210A80ED090A90ED0A0AD0ED22
:100EA000021A90ED0F2A01EE820A80ED0A0A90EDF7
:100EB0000D0A80ED0E0A90ED0C0A80ED0D0A90ED02
:100EC0000F0AD0ED101A30EE610A80ED0C0A90ED99
:100ED000030AD0ED0C1A20EE210A80ED0B0A90EDEA
:100EE0000A0AD0ED051AB4EEE10AF1EE10FA04DDBB
:100EF00090ED050A80ED0A0A10E090ED0A0AD0EDA7
:100F0000051AF1EE611AB4EEE10AF1EE10FA05D21B
:100F100090ED050AB1EE400A80ED0A0A90ED090A4B
:100F2000D0ED0A1A30EE210AD0ED0B1A30EE210A6C
:100F300080ED080A90ED080AD0ED041AB4EEE10A3B
:100F4000F1EE10FA04DD90ED040A80ED080A76E077
:100F500090ED080AD0ED041AF1EE611AB4EEE10A40
:100F6000F1EE10FA6BD290ED040AB1EE400A80ED7A
:100F7000080A64E0FFE70178012960D190ED0F0ACB
:100F8000D0ED101A30EE610AD0ED011A20EE210AE0
:100F900080ED090A90ED020AD0ED0F1A20EE210A29
:100FA00080ED0A0A90ED0D0A80ED0E0A90ED0C0A14
:100FB00080ED0D0A90ED0F0AD0ED101AB0EE002A68
:100FC00002EE610AD0ED111A30EE210A80ED0C0A12
:100FD00090ED030AD0ED0C1A20EE210A80ED0B0AE9
:100FE00090ED090AD0ED0A1A30EE210AD0ED0B1A65
:100FF00030EE210AD0ED081A30EE210A80ED080A01
:1010000090ED080AD0ED041AB4EEE10AF1EE10FA00
:1010100004DD90ED040A80ED080A10E090ED080A66
:10102000D0ED041AF1EE611AB4EEE10AF1EE10FA15
:1010300005D290ED040AB1EE400A80ED080A90ED69
:10104000080A0EE70000000000B102B97047017005
:1010500092ED001A80ED011A92ED011A80ED021A4C
:1010600092ED021A80ED031A80ED040AC0ED050A24
:101070009FED0C1A80ED0E1A80ED0D1A80ED0C1A02
:101080009FED081A80ED081A80ED0B1A80ED0A1A00
:1010900080ED091A80ED111A80ED101A80ED0F1AFB
:1010A00000BFD3E70000000010B51B480068C16B0B
:1010B000012088470446184800682146426B0120F9
:1010C0009047192001F0D8FB04F0020080B11348CA
:1010D0000068401C11490860084600680621B0FB02
:1010E000F1F201FB12000E4908700878FFF71AFDB3
:1010F00004F0100070B1002008490860084600683C
:101100000621B0FBF1F201FB1200054908700878D6
:10111000FFF708FD10BD0000240800020C000020AD
:101120007401002010B538480068C16B042088475E
:101130000446354800682146426B04209047192038
:1011400001F0AFFB04F0010060B144F6214041061C
:1011500001EB4010007828B92C48007840F00100DD
:101160002A49087004F0040060B144F621404106A9
:1011700001EB4010007A28B92448007840F00200C2
:101180002249087004F0080060B144F6214041068D
:1011900001EB4010007B28B91C48007840F00400A7
:1011A0001A49087004F0200060B144F6214041065D
:1011B00001EB4010007D28B91448007840F0080089
:1011C0001249087004F0400060B144F62140410625
:1011D00001EB4010007E28B90C48007840F0100068
:1011E0000A49087004F0800060B144F621404106CD
:1011F00001EB4010007F28B90448007840F020003F
:101200000249087010BD00002408000230000020D0
:10121000002123E0134A127822F02002114B1A70A9
:1012200000F080022AB11A46127842F010021A70B9
:1012300005E00C4A127822F010020A4B1A70094A93
:10124000127842F02002074B1A701A46127822F0E8
:1012500020021A704206100E4A1CD1B20829D9DBAE
:1012600070470000424C004002494A6882434A608D
:1012700070470000003004E002494A6802434A60B7
:1012800070470000003004E00248406800F470201D
:1012900070470000003004E0F0B50F4C00262568D0
:1012A0006D1C16D00D4F256885420AD0BD4208D06E
:1012B000854201D129B1491E656804EB85040834D3
:1012C000F1E7854205D160688000083410601C6039
:1012D000F0BD16601E60F0BD041020001DE1D00BB3
:1012E00010B54FF4B540204908802048006801221D
:1012F0000C2183690B2098471C48006801220321B8
:1013000083690B2098471A494FF40040FFF71CFAF5
:1013100016481030006801680120884713480838D3
:1013200000680121426D002090471048083800688D
:101330000121426D084690470020FFF70BFA032079
:10134000FFF75CFA0948103800680022052103689D
:1013500002209847054810380068002205210368DC
:101360000820984710BD00000C48004024080002E7
:10137000006CDC021548006840F4700013490860F6
:101380004FF4B5401249088080201249486146F662
:101390005A10114908604FF48030091D0860081D7B
:1013A000006820F00710C01C091D086000200A49D1
:1013B00008600A48006920F03000084908610846C2
:1013C000406920F0300048617047000088ED00E07F
:1013D0000C480040003004E00004014000100140CF
:1013E00010B503480068016A0248884710BD000034
:1013F0005C08000200C0004010B503480068016AA4
:101400000248884710BD00005C08000220C0004070
:1014100010B5074800680221C26B4807904704488E
:10142000343800680121C2680846904710BD0000AA
:101430005808000210B52DED068B2E4800680221D9
:10144000C26B2D489047002140F602004FF08442C5
:1014500002EB4010017129498968294A1268891AEA
:10146000642201FB02F002F04EFA9FED260B53ECD2
:10147000102B02F073FA9FED250B53EC102B02F0AA
:101480008DF802F0E3F91D490860C9681C4A5268EA
:10149000891A642201FB02F002F035FA9FED190B64
:1014A00053EC102B02F05AFA9FED180B53EC102B53
:1014B00002F074F802F0CAF91049486008468068E2
:1014C0000F4908600D48C068486001F0C1FA114832
:1014D0000068401C0F49086008460068642806D16F
:1014E000002008600C480068401C0B490860BDECF7
:1014F000068B10BD58080002000800409C00002028
:10150000280000203333333333330B400000000016
:1015100000807640240000202000002010B53648CE
:10152000007800F08000002864D134480068C16C65
:101530003348884708B331480068816B3048884792
:10154000002140F604004FF0844202EB401001718C
:101550002948007800F0400078B12748007800F072
:101560003F003F280AD12448007840F080002249FB
:1015700008704FF6FF702349088004E01E48007889
:10158000401C1D4908701D4800680421C26D1C489C
:10159000904778B3194800680421C26B18489047F7
:1015A0001548007800F04000A0B1144800680822F7
:1015B0000421C3691248984760B90F48007840F089
:1015C00080000D49087004210D4800F0AFF80D4966
:1015D00008800FE00020084908700A490880074881
:1015E00000688169064888470348007840F0400059
:1015F0000149087010BD00001400002058080002C6
:10160000000800401600002010B5154800680221AF
:10161000C26D1448904710B3114800680221C26B94
:1016200010489047002140F602404FF0844202EB00
:10163000401001710C488069401C0B4988612021D1
:101640000A20FFF72FF928B107488068401C064997
:10165000886004E004488068401E0349886010BD2B
:1016600058080002000C00409C00002010B51548EE
:1016700000680621C26D1448904710B311480068F5
:101680000621C26B10489047002140F606404FF0FB
:10169000844202EB401001710C48C069401C0B49A8
:1016A000C86104210920FFF7FDF828B10748C06888
:1016B000401C0649C86004E00448C068401E034955
:1016C000C86010BD58080002000C00409C000020BB
:1016D00000B587B04FF4007001903020029042F2C4
:1016E00010700390002004901020059004200690B4
:1016F0000C48006801A982680B48904709480068B7
:101700001021026808489047064800680221C26B11
:101710000548904703482C38006881691C20884799
:1017200007B000BD5808000200080040FF2202EB8D
:101730005101C9B200EB4100408A704770B50126E3
:10174000420102F184423446167003880D8823F06A
:10175000C0032B4303804B69002513B182F834404A
:1017600001E082F834508B6913B182F82C4001E01B
:1017700082F82C500B6923B1012B05D0022B0CD120
:1017800007E082F83C5008E082F83C4082F838508C
:1017900003E082F83C4082F838404B6A13B182F88B
:1017A000304001E082F830508A88C2800A7B0B8981
:1017B000120202EB03120B8C1A44028102884FF6CC
:1017C000C103898B1A400A430280304670BD420132
:1017D00002F1844292F844330BB1C181704792F810
:1017E0008433F9E72DE9F04131F0704216D1091741
:1017F000082913D2DFE801F0120406080A0C0E10C3
:1018000002240CE004240AE0082408E0102406E086
:10181000202404E0402402E0802400E001241D4B49
:10182000DFF874804FF4FA354FF4004606282FD2C3
:10183000DFE800F003210B272A14184F387850B145
:101840000120FEF7C5FE387828B11878B0B1B5FB95
:10185000F4F0BDE8F081D8F8040016E00F4F3F1D0A
:10186000387828B10220FEF7B3FE38780028ECD192
:10187000D8F8000009E042F2107006E0B6FBF4F080
:10188000E7E7FEF7C3FE00E00548B0FBF4F0E0E751
:101890000020DEE73C8620429400002000892042A0
:1018A00000366E011A481B49006842181A498A42DC
:1018B0002BD91A491A4A0144914202D84FF4801098
:1018C00070471849421818498A4202D84FF400104C
:1018D0007047164A02448A4202D84FF440107047BB
:1018E000134A02448A4202D84FF480007047114ADA
:1018F00002448A4202D84FF4A00070470E4A1044B6
:10190000884202D84FF4C0007047002070470000A2
:1019100094000020C0BDF0FFC0C62D00FFF6C2FF3E
:10192000FF083D00FFED85FFFF117A00FFDB0BFF95
:10193000FFC991FEFFB717FEFFA59DFD00BF7047D1
:1019400010B500F043F99FED130A134880ED000A2B
:101950009FED100A80ED020A9FED0E0A80ED030A4A
:1019600000F05AFF0C498861DFED0C0A9FED0C0A6C
:101970000C4A002108481C30FFF766FBDFED070A20
:101980009FED070A074A0C32002103486430FFF735
:101990005BFB10BD00000000080300200000C843EE
:1019A00000007A447C00002010B5002401F06CF99E
:1019B000044601F0EBF901F087F9204610BD02461C
:1019C00001208840104008B1012070470020FCE74A
:1019D0007CB504460D4885690D4903C9CDE9000170
:1019E00000F03AF805E0684601F004F9012000F043
:1019F0007FF906488069401BA042F4D30020009084
:101A00000190684601F0F6F87CBD00009C000020C3
:101A1000944700007CB504460D4885690D4903C90B
:101A2000CDE9000100F018F805E0684601F0E2F8A1
:101A3000012000F05DF906488069401BA042F4D304
:101A4000002000900190684601F0D4F87CBD0000B1
:101A50009C0000208C4700001CB5002000900190E5
:101A6000684601F0C7F80A2000F042F91CBD0000EA
:101A70007CB504460D48C5690D4903C9CDE900018F
:101A8000FFF7EAFF05E0684601F0B4F8012000F036
:101A90002FF90648C069401BA042F4D300200090F3
:101AA0000190684601F0A6F87CBD00009C00002073
:101AB000844700007CB504460D4885690D4903C97B
:101AC000CDE90001FFF7C8FF05E0684601F092F894
:101AD000012000F00DF906488069401BA042F4D3B4
:101AE000002000900190684601F084F87CBD000061
:101AF0009C0000207C47000000B58BB00421092029
:101B0000FEF7E8FE20210A20FEF7E4FE2C480068DC
:101B100001220421C369082098472948006801224E
:101B20001021C3690A209847264B0FCBCDE9092322
:101B3000CDE9070122483430006807A942682248ED
:101B4000904718221F49103101A8FEF7FFFB1C48DF
:101B50003430006801A902691B48904706200190B3
:101B600017483430006801A90269174890471448A3
:101B70003430006820210268134890471048343000
:101B80000068816B104888470D4834300068022196
:101B9000C26B0D4890470A48343000680621C26B7A
:101BA0000948904706480830006881691F20884727
:101BB00003480830006881691E2088470BB000BDCB
:101BC0002408000254470000000C004010B53C48B7
:101BD0000068ED21426904209047394800680121DE
:101BE000426B04209047364800680421426B084647
:101BF0009047334800680821426B042090473048E2
:101C000000682021426B042090472D480068402145
:101C1000426B042090472A4800688021426B0420D0
:101C20009047274800680121826A04209047244891
:101C300000680421826A084690472148006808210C
:101C4000826A042090471E4800682021826A04208E
:101C500090471B4800684021826A0420904718483A
:101C600000688021826A042090470022012104201C
:101C7000FEF722FE002204210846FEF71DFE002288
:101C800008210420FEF718FE002220210420FEF780
:101C900013FE002240210420FEF70EFE00228021C8
:101CA0000420FEF709FE06480830006881693620E6
:101CB000884703482C30006841691020884710BDD0
:101CC0002408000210B5FEF727FD0749B0FBF1F02C
:101CD000064908704FF0E020006940F004004FF022
:101CE000E021086110BD000040420F001C000020F0
:101CF00010B5044604E04FF47A7000F005F8641E55
:101D0000002CF8D110BD00000146114A12784A4358
:101D10004FF0E0235A6100229A611A46126942F09C
:101D200001021A6100BF4FF0E022106900F00102C9
:101D30001AB100F48032002AF5D04FF0E022126987
:101D400022F001024FF0E0231A6100229A617047ED
:101D50001C0000202DE9F0472DED048B04460E46B3
:101D600004B11EB9BDEC048BBDE8F0872068802863
:101D700003D1FEF7DDFC05460BE02068402803D1C7
:101D8000FEF738FC054604E080202060FEF7D0FC1A
:101D90000546AE4200D9E5E700EE105AF8EE400ADB
:101DA00000EE106AB8EE400A80EE801ABCEEC10A5E
:101DB00010EE100A1FFA80F89FED3D9A4FF00009CF
:101DC00054E09FED3C0AF0EE408A4FF0000A0027F5
:101DD00039E03B46F81707EB5070C010A7EBC00086
:101DE000C0F1070081B24846FFF7E9FD4044824454
:101DF000781C00EE100AB8EEC01A00EE106AB8EEB9
:101E0000400AC1EE000A00EE10AAB8EE401A00EE39
:101E1000105AB8EE400AC1EE001A30EEE10AB0EEF8
:101E2000408AB5EEC08AF1EE10FA03D2B1EE480A4C
:101E3000B0EE408AB4EEE88AF1EE10FA01DDF0EE81
:101E4000488A781CC7B20A2FC3DD38EEC90ADFED15
:101E50001A0AB4EEE00AF1EE10FA03D2B0EE689A74
:101E6000C4F80C9009F101001FFA80F9B9F1FF0FD5
:101E7000A7DDB8F1140F05DA00202062C4F8048051
:101E8000A06013E00120206200EE108AB8EE400A44
:101E9000F3EE000A80EE201ABCEEC10A10EE100A22
:101EA00080B260606068A8EB0010A06000BF59E7D6
:101EB0000050C34700000000476C00AD10B59FED17
:101EC000130A134880ED000A9FED100A80ED030A03
:101ED0009FED0E0A80ED040A00F09EFC0C49C861DB
:101EE000DFED0C0A9FED0C0A0C4A00210848203057
:101EF000FFF7AAF8DFED070A9FED070A074A0C3241
:101F0000002103486830FFF79FF810BD0000000073
:101F1000C40000200000C84300007A4434000020C0
:101F200010B5002400F08EFF044601F025F800F003
:101F3000C1FF204610BD000070B504460D46E1B259
:101F40000248FFF744FC204670BD0000001000402E
:101F500010B500F0F3FDFFF7B1FF00F0B7FCFFF79D
:101F6000EFFC00200C490870487000F055FC0A494D
:101F7000486000F049FC0849886000F049FC0649C7
:101F8000C86000F005FC0449086100204861002198
:101F90000148816110BD00007401002070B500246B
:101FA000FE48007830B90020FC4948610021FB4818
:101FB0008161C9E3F948007801287DD1F8480078AB
:101FC000012816D000F02CFCF6490860F348406860
:101FD000006AF5490860F1484068406AF3490860C2
:101FE0000020F34908702820FFF714FD0120EC4978
:101FF0000870FFF795FF0446082C02D0EC480078E3
:1020000048B10020E54948610021E4488161012090
:10201000E749087098E3E7480078401CE5490870F4
:102020000846007864283CD100F0FAFBDD490968D5
:10203000451A2A46E0A1E348FEF704F90823E14ADD
:1020400000210846FEF7CAFED44840680068D3491C
:1020500049684968451805EBD5704210DAA1D9489E
:10206000FEF7F0F80823D74A01210020FEF7B6FE5C
:10207000CA484068016AC9484068406A0844400844
:10208000C9490968C94B1B681944A0EB5102D3A187
:10209000CC48FEF7D7F80823CA4A02210020FEF7F1
:1020A0009DFEBE48806890ED050ABDEEC00ABB48A3
:1020B00080ED050A806800E007E090ED060ABDEEBD
:1020C000C00AB64880ED060A3EE3B448007802280C
:1020D0007ED1B3480078022816D000F0A1FBB149A8
:1020E0000860AE484068006AAF490860AB48406885
:1020F000406AAE4908600020AD4908702820FFF70B
:1021000089FC0220A6490870FF2000F015FC044657
:10211000802C06D10020A149486100219F4881619F
:1021200012E3A4480078401CA249087008460078D1
:1021300064283ED10020087000F072FB99490968BC
:10214000451A2A469CA19F48FEF77CF808239D4A21
:1021500000210846FEF742FE9048406800688F491B
:1021600049684968451805EBD570421096A1954815
:10217000FEF768F80823934A01210020FEF72EFE9F
:1021800086484068016A85484068406A08444008BB
:1021900085490968854B1B681944A0EB51028FA142
:1021A0008848FEF74FF80823864A02210020FEF7F0
:1021B00015FE7A48C06890ED050ABDEEC00A774862
:1021C00080ED050AC06890ED060ABDEEC00A00E089
:1021D00003E0724880ED060AB6E2704800780328F2
:1021E0007ED16F48007803281CD000F019FB6D49A0
:1021F00008606A484068006A6B4908606748406840
:10220000406A6A4908600020694908704FF44870C4
:10221000FFF700FCFFF720FC3220FFF729FC03202A
:102220005F490870FFF7C0FB0446032C02DB012066
:102230005F4908705E48007830B100205749486116
:102240000021564881617FE25A480078401C594974
:1022500008700846007864283ED10020087000F01D
:10226000DFFA50490968451A2A4653A15548FDF737
:10227000E9FF0823534A00210846FEF7AFFD47480F
:1022800040680068454949684968451805EBD570BC
:1022900042104DA14B48FDF7D5FF0823494A0121C3
:1022A0000020FEF79BFD3D484068016A3B484068BE
:1022B000406A084440083C4909683C4B1B68194483
:1022C000A0EB510245A13F48FDF7BCFF08233D4A62
:1022D00002210020FEF782FD4FF42F702F4900E00D
:1022E00004E0486101462D4881612DE22B480078C9
:1022F000042852D12A480078042816D000F090FA19
:102300002849086025484068006A27490860234832
:102310004068406A2549086000202549087004206B
:102320001F4908702820FFF775FB3048007808BB6C
:10233000FFF7F6FD0446082C02D01D48007838B19E
:102340002820FFF767FB29480078401C27490870C0
:102350001248806890ED050ABDEEC00A0F4880ED76
:10236000050A806890ED060ABDEEC00A0B4880EDB4
:10237000060AF7E01D48007801284ED1FFF7D0FD8E
:102380000446082C02D00A48007888B32820FFF7BA
:1023900041FB16480078401C2BE03AE17401002014
:1023A0004C00002050000020540000205800002065
:1023B0004D0000204E00002054696D653A256420D0
:1023C000732000009001002056656C6F636974797A
:1023D0003A256420636D2F732000000044697374F4
:1023E000616E63653A256420636D20005C00002007
:1023F00001E0D7490870D748806890ED050ABDEE26
:10240000C00AD44880ED050A806890ED060ABDEE4A
:10241000C00AD04880ED060AA4E0CD480078022822
:1024200029D1CD48007830B9002000F085FA01208C
:10243000C949087003E0FF2000F07EFA0446802CB2
:1024400007D12820FFF7E6FAC1480078401CC049B0
:102450000870C048C06890ED050ABDEEC00ABD48CE
:1024600080ED050AC06890ED060ABDEEC00AB948C5
:1024700080ED060A76E0B6480078032872D1B748A6
:10248000007858B94FF47A70FFF7C4FAFFF7E4FA0E
:102490003920FFF7EDFA0120B0490870FFF784FA00
:1024A0000446032C02DB0120AD490870AC480078DB
:1024B00030B10020A74948610021A648816151E060
:1024C000A8480078401CA74908700846007864288E
:1024D00041D10020087000F0A3F9A3490968451A0A
:1024E0002A46AFF22C11A148FDF7ACFE08239F4A03
:1024F00000210846FEF772FC96484068006895493E
:1025000049684968451805EBD5704210AFF248118B
:102510009648FDF797FE0823944A01210020FEF714
:102520005DFC8C484068016A8A484068406A0844FB
:1025300041088F4800688F4B1B681844A1EB50027C
:10254000AFF268118948FDF77DFE0823874A022112
:102550000020FEF743FC4FF42F707E49486101468E
:102560007C4881617A48007838B179480078012840
:1025700003D07748007802284AD17A480078401C76
:1025800078490870084600786428F5D10020087062
:1025900000F046F974490968451A2A46AFF2E81175
:1025A0007248FDF74FFE0823704A00210846FEF7E7
:1025B00015FC6848406800686649496849684518DC
:1025C00005EBD5704210AFF200216848FDF73AFEE6
:1025D0000823664A01210020FEF700FC5D484068A0
:1025E000016A5C484068406A0844410860480068E5
:1025F000604B1B681844A1EB5002AFF220215B48EE
:10260000FDF720FE0823594A02210020FEF7E6FBD1
:102610009AE05048007805287ED157480078012874
:1026200016D000F0FDF8504908604A484068006A3A
:102630004F49086047484068406A4E49086000209A
:10264000474908702820FFF7E5F901204A4908703A
:10265000FFF766FC0446082C02D041480078C8B158
:1026600000203C49486100213A48816101203C49F1
:10267000087000F0D5F83C490968401A0A2863D36D
:102680003E48007800285FD13549087001203B4959
:10269000087059E000F0C4F833490968451A2A4621
:1026A000AFF2EC213148FDF7CDFD08232F4A002180
:1026B0000846FEF793FB27484068006825494968AB
:1026C0004968451805EBD5704210AFF20431274830
:1026D000FDF7B8FD0823254A01210020FEF77EFB07
:1026E0001C484068016A1B484068406A0844410829
:1026F0001F4800681F4B1B681844A1EB5002AFF243
:1027000024311A48FDF79EFD0823184A02210020B3
:10271000FEF764FB0F4800E010E0806890ED050ACA
:10272000BDEEC00A0B4880ED050A806890ED060AF0
:10273000BDEEC00A074880ED060A05E00020054905
:10274000486100210348816100F01AF870BD000063
:102750005C000020740100205D0000205E0000206D
:102760004D0000204E00002050000020900100206D
:1027700054000020580000204C0000205F00002082
:1027800010B5024800F036FA10BD000088010020A4
:10279000004870470803002001460022002007E09F
:1027A00001F001030BB1531CDAB24910431CD8B23B
:1027B0000828F5DB1046704701460022002007E09C
:1027C00001F001030BB1531CDAB24910431CD8B21B
:1027D0000828F5DB1046704701460022002007E07C
:1027E00001F001030BB1531CDAB24910431CD8B2FB
:1027F0000828F5DB10467047024908780021014A95
:10280000117070473000002000487047C40000205D
:102810000048704758020020004870479C00002084
:1028200001480068704700002000002010B5082112
:102830000520FEF761F808210520FEF76DF8FF215D
:102840000720FEF759F8FF210720FEF765F80A2058
:10285000FFF75AFAFF210720FEF73CF84FF4966085
:10286000FFF752FA0348047808210520FEF75EF8C6
:10287000204610BD604C004008B50CE000210091DE
:1028800004E0BDF80010491C89B20091BDF80010A9
:10289000B1F57A7FF5DB011EA0F1010290B2EDD116
:1028A00008BD08B50CE00021009104E0BDF800105F
:1028B000491C89B20091BDF80010B1F57A7FF5DBB3
:1028C000011EA0F1010290B2EDD108BD10B59FED3F
:1028D000150A154880ED000A9FED120A80ED030AE3
:1028E0009FED100A80ED040A00200F498871C8711D
:1028F000FFF792FF0C49C861DFED0C0A9FED0C0A4F
:102900000C4A002108482030FEF79EFBDFED070A45
:102910009FED070A074A0C32002103486830FEF792
:1029200093FB10BD00000000580200200000C843C7
:1029300000007A446000002070B50446002500F0D5
:1029400067FB05462A480078204029490870294835
:10295000C079032806D108460078022802D0012059
:10296000087030E022480078012825D121480079FC
:102970000E2810D01F4800790F280CD01D48007970
:102980000C2808D01B48007900F0080018B9194835
:102990008079032810DB8220FFF76AF802201449AF
:1029A00008709FED150A134880ED050A9FED120A85
:1029B00080ED060A802070BD0D480078022802D004
:1029C00000200B4908700A48007802280AD19FEDC0
:1029D0000A0A084880ED050A9FED070A80ED060AFD
:1029E0008020E8E700F0AEFB00F04AFB2846E2E773
:1029F000790000205802002000000000FEF770FC63
:102A00004FF4E13000F0BEFCFFF75CF90120FDF768
:102A1000E9FFFEF743F8FFF79BFAFEF7E9F807A096
:102A2000FDF704FC094909680868804704E0FFF7DE
:102A3000B5FA0120FFF75CF9F9E7000048656C6C16
:102A40006F2C4D5350343332210D0A002C080002F4
:102A500010B52DED068B3449886900F06BFF41EC11
:102A60001A0B9FED320B53EC102B00F077FF41EC6B
:102A7000190B9FED300B53EC102B00F08FFD41EC48
:102A8000180B00F013FF28490862C86900F052FFD4
:102A900041EC1A0B9FED250B53EC102B00F05EFF61
:102AA00041EC190B9FED230B53EC102B00F076FD3E
:102AB00041EC180B00F0FAFE1B494862886800F0F0
:102AC00022FF41EC1A0B9FED190B53EC102B00F079
:102AD00045FF41EC190B9FED170B53EC102B00F049
:102AE0005DFD41EC180B00F0B1FE0F490861C868AC
:102AF00000F009FF41EC1A0B9FED0C0B53EC102B6F
:102B000000F02CFF41EC190B9FED0A0B53EC102B3E
:102B100000F044FD41EC180B00F098FE02494861BA
:102B2000BDEC068B10BD00009C0000209320046EBD
:102B3000E25C3540000000000080764010B5302196
:102B40004FF47A7000F01EF840210120FDF7D4FE0A
:102B500080210120FDF7D0FE40210320FDF7CCFEAF
:102B600080210320FDF7C8FE40210320FDF7D4FE9D
:102B700080210320FDF7D0FEFEF7BEFFFEF7A8FD83
:102B800010BD000030B587B004460D4618480068F7
:102B900001224021836902209847154800680122DC
:102BA00080218369022098474FF4007001900295BC
:102BB000039408200490C0200590002006900C4843
:102BC0003430006801A9C26A4FF0804090470A2063
:102BD000049007483430006801A9C26A4FF0804071
:102BE000904708210520FDF797FE07B030BD000093
:102BF0002408000270B50546002440E055F8240082
:102C000000281DDA402000EB84111E48006842684D
:102C10000120904755F82400002802DB55F82400D5
:102C200002E055F8240040420246082000EB44012F
:102C3000144834300068436B4FF0804098471CE0E4
:102C4000402000EB84110F48006882680120904703
:102C500055F82400002802DB55F8240002E055F85E
:102C6000240040420246082000EB4401054834306D
:102C70000068436B4FF080409847601CC4B2022C40
:102C8000BCDB70BD2408000270B50024FFF7B4FD62
:102C90000446042000EA6400022101EAE40108433A
:102CA000C4F3401108430749087104F00700487154
:102CB000FFF7BCFD0546FFF78FFD02498871084606
:102CC000807970BD0803002010B52DED088B2A49CE
:102CD0008969086800F017FE41EC1B0B9FED270B7C
:102CE00053EC102B00F03AFE41EC1A0B9FED250B34
:102CF00053EC102B00F052FC41EC190B00F074FB6C
:102D000008EE100A1C48D0ED020AB0EE600AF0EEA0
:102D1000480A1C30FEF7A0F8174880ED040A014667
:102D20008969486800F0EFFD41EC1B0B9FED130B28
:102D300053EC102B00F012FE41EC1A0B9FED110B1F
:102D400053EC102B00F02AFC41EC190B00F04CFB6B
:102D500008EE100A0848D0ED030AB0EE600AF0EE63
:102D6000480A6430FEF778F8B1EE400A024880ED78
:102D7000050ABDEC088B10BD080300200000000010
:102D80000000F03FA4703D0AD7A3E03F10B52C48E7
:102D9000007918B92A484079002847D02848007996
:102DA00000F0040030B13220FEF712FEB420FEF72E
:102DB00081FE44E02248007900F0020030B1322068
:102DC000FEF706FE8C20FEF775FE38E01C48007901
:102DD00000F0010030B18220FEF7FAFD6420FEF71A
:102DE00069FE2CE01648407900F0040030B1322032
:102DF000FEF7EEFDB420FEF73BFE20E010484079E0
:102E000000F0020030B13220FEF7E2FD8C20FEF728
:102E10002FFE14E00A48407900F0010078B18220CA
:102E2000FEF7D6FD6420FEF723FE08E0BAEE040AA2
:102E3000034880ED020AB2EE040A80ED030A10BDD9
:102E40000803002010B50024FFF7F0FC0446201111
:102E5000FFF7A2FC1649887104F00F00FFF79CFCF5
:102E60001349C87108468079C97908441049087225
:102E700020110871102000EAC400082101EA440171
:102E80000843C4F3C0010843022101EA6401084376
:102E900007494871084600794979401A00EE100A3E
:102EA000B8EEC00A024880ED000A007A10BD0000AA
:102EB000C400002010B52DED088B2A49C9690868A7
:102EC00000F021FD41EC1B0B9FED270B53EC102B69
:102ED00000F044FD41EC1A0B9FED250B53EC102B39
:102EE00000F05CFB41EC190B00F07EFA08EE100AD2
:102EF0001C48D0ED030AB0EE600AF0EE480A20301C
:102F0000FDF7AAFF174880ED050A0146C969486820
:102F100000F0F9FC41EC1B0B9FED130B53EC102B55
:102F200000F01CFD41EC1A0B9FED110B53EC102B24
:102F300000F034FB41EC190B00F056FA08EE100AD1
:102F40000848D0ED040AB0EE600AF0EE480A683096
:102F5000FDF782FFB1EE400A024880ED060ABDECA3
:102F6000088B10BDC4000020000000000000F03FEE
:102F7000A4703D0AD7A3E03FB7EE001AB0EE410AB5
:102F8000B7EE001AF0EE410A1E48007A20B9BFEEF3
:102F9000001AB0EE410A1EE01A48007A022812DC3C
:102FA0001848807900F0010020B91648C07900F077
:102FB000010040B19FED141AB0EE410AB0EE001AC4
:102FC000F0EE410A07E09FED111AB0EE410AB0EEB3
:102FD000001AF0EE410ABBEE041A20EE011A09486D
:102FE000D0ED001A01EEE01A80ED031ABBEE041AD0
:102FF00020EE011AD0ED001A11EEE01A80ED041A4D
:1030000070470000C4000020CDCC4C3F9A99193F76
:1030100010B50024FFF70AFC04462011FFF7CCFB93
:103020001649887104F00F00FFF7C6FB1349C871F9
:1030300008468079C979084410490872201108713E
:10304000102000EAC400082101EA44010843C4F347
:10305000C0010843022101EA64010843074948719D
:10306000084600794979401A00EE100AB8EEC00A05
:10307000024880ED000A007A10BD000058020020CE
:1030800010B52DED088B2A49C969086800F03BFC92
:1030900041EC1B0B9FED270B53EC102B00F05EFC5B
:1030A00041EC1A0B9FED250B53EC102B00F076FA38
:1030B00041EC190B00F098F908EE100A1C48D0ED0D
:1030C000030AB0EE600AF0EE480A2030FDF7C4FEB5
:1030D000174880ED050A0146C969486800F013FCED
:1030E00041EC1B0B9FED130B53EC102B00F036FC47
:1030F00041EC1A0B9FED110B53EC102B00F04EFA24
:1031000041EC190B00F070F908EE100A0848D0EDF8
:10311000040AB0EE600AF0EE480A6830FDF79CFE43
:10312000B1EE400A024880ED060ABDEC088B10BDE6
:1031300058020020000000000000F03FA4703D0A8B
:10314000D7A3E03F10B52DED0C8BB7EE000AB0EE23
:10315000408A824890F90000002802DC00207F4964
:1031600008707F48807903280DDB7D48C0790328EB
:1031700009DB7A480078401E40B278490870642024
:10318000FEF798FCDEE076488079042806DB08200C
:10319000724908701920FEF73DFCD3E07048807931
:1031A00070B96F48C07958B96C4890F9000001288F
:1031B00006DB5A20FEF75CFC002068490870C1E07D
:1031C0006748C079032809DB64480078401E40B294
:1031D000624908706420FEF76DFCB3E05F48007838
:1031E000401E40B25D4908705D48007A70B9DC202D
:1031F000FEF73EFC9FED5B0A594880ED030A9FED08
:10320000590A80ED040ABDEC0C8B10BD5448007ABD
:1032100002280EDC5248807900F0010020B95048A5
:10322000C07900F0010020B1B7EE000AB0EE408A8C
:1032300019E04B48007A042804DC9FED4B0AB0EEFD
:10324000408A10E04648007A052808DB4448007AA6
:10325000062804DC9FED450AB0EE408A03E09FEDAE
:10326000440AB0EE408A3E48807900F00100B0B9CF
:103270003B48C07900F0010088B918EE100A00F050
:1032800055FD41EC1A0B9FED3B0B53EC102B00F05E
:1032900065FB41EC190B00F0A7F808EE100A304866
:1032A00090ED000A10EE101A084600F03FFD41ECC8
:1032B0001C0B9FED320B53EC102B00F04FFB41EC3D
:1032C0001A0BBAEE020A28EE000A10EE101A08468F
:1032D00000F02CFD41EC1B0B53EC1A2B00F03CFCD6
:1032E00041EC190B00F080F81D49C860084690EDCC
:1032F000000A10EE101A084600F018FD41EC1D0BF4
:103300009FED1E0B53EC102B00F028FB41EC1B0B28
:10331000BAEE020A28EE000A10EE101A084600F073
:1033200005FD41EC1C0B53EC1B2B00F08FF841EC1E
:103330001A0B00F04DF841EC190B00F055F8084954
:10334000086160E79FED070A054880ED030A9FEDDD
:10335000050A80ED040A00BF55E700007800002050
:1033600058020020000000006666663F3333333F9A
:10337000CDCC4C3E333333333333EB3F00000000CE
:103380000000E03F10B58AB0044628220D49684687
:10339000FCF7DCFF21466846FEF7DCFC0A480068C3
:1033A00001220C2183691046984769460748FEF7B9
:1033B000C5F905483C3000688168044888470AB070
:1033C00010BD00002C47000024080002001000403F
:1033D00081F00041704780F00040704721F00041CB
:1033E000704720F00040704721F00042A2F1605287
:1033F000B2F5801F01F0004328BFD2F17F6C0BD9DA
:103400005FEA001C43EAC20242EB507018BF7047EB
:1034100028BF20F001007047B2F5801FBCBF1846DE
:1034200070474FEA410C1CF5001F02D2084600F01D
:10343000F3BC70B500F03CFB00000089FFF7F6BF5D
:103440004FF00040A0F580007047000010B591EAF1
:10345000030F48BF83F0004300F18683841A71EBA9
:10346000030C05D2121943EB0C03001B61EB0C019A
:10347000DFF824E14FEA1154A4EB135C1EEA430F7A
:1034800018BF9EEA445F73D023EA0E03DCF1200EDE
:1034900021EA045143F4801332D322FA0CFE10EBDC
:1034A0000E0023FA0CFE41EB0E01CCF1200E03FAC4
:1034B0000EFE10EB0E0051F10001B1F5801FCCF1B2
:1034C000200E32D201EB045112FA0EF2BDE8104088
:1034D00058BF7047401C38BF5FEA420218BF7047B0
:1034E000002814BF20F0010041F100014FEA410320
:1034F00013F5001F38BF7047A1F1C04100F026BB93
:10350000012A43EB0302ACF1200CDCF11F0E32BFA9
:103510004FF0000E23FA0CF310EB030041EB0451C3
:10352000B4EB115FD0D0A1EB045101F58011490833
:103530005FEA300001EB04510ED350F1000038BFB8
:1035400012FA0EFE08D1BDE81040C9E7401C38BF92
:103550005FEA4202CAD1C3E7BDE810404FEA410327
:1035600013F5001F38BF7047A1F1C04100F0EEBA5B
:103570009EEA445F08D011EA5E0FBDE8104004BF28
:1035800001F0004100207047BDE8104070B500F028
:103590008FFA00BF64FBBE3E0000E0FF2DE9C04192
:1035A00030B4DFF8A0C23CEA111418BF3CEA13148F
:1035B00000F0EC8081EA03051CEA111444EAD5749A
:1035C00018BF1CEA131500F0C780A4EB05044FF0E8
:1035D000004545EAC12145EAC32341EA505143EA87
:1035E000525304F17F74994204F500344FEAC0202D
:1035F0004FEAC22208BF904200F09C804FEA136558
:103600000FF24016765D4FEA134506FB05F7C7F14A
:10361000807706FB07F74FEAD737A7FB03687642A8
:10362000C8F58038A7FB06CE38BFA8F1010807FB14
:1036300008E64FF0000EA6FB028CE6FB03CEDCF1A1
:10364000000CCEF1004E38BFAEF1010EA6FB0C58B7
:103650004FF000074FF00005E6FB0E87A1FB08C600
:10366000A0FB07CE16EB0E0645F10005E1FB076552
:1036700015F1E04E7EBFA4F580345FEA46066D4149
:1036800016F1800745F100054FEA17274FEA066655
:1036900047EA0567A6F1DE46B6F1805F4FEA1525D9
:1036A0001FD9384624F0010C05EBC471BCF1FE6F44
:1036B00001EB0C1102D8F0BCBDE8008124425CBFD4
:1036C00001F5801E9EEAC47F02D4F0BCBDE80081F3
:1036D000244238D4F0BCA1F1C041BDE8004100F063
:1036E00035BA4FEAD22242EA43524FEAD323A7FB2C
:1036F00002864FEAD02040EA415007FB03661EEAEB
:103700000E0F4FEAD12105FB026658BFA6EB00560B
:10371000B6EB00564FEA520E4EEAC37E18EB0E0E81
:1037200056EB530EBDD518EB02085E417F1C55F1D8
:103730000005B6E74FF480154FF000074FF0000684
:103740004FF00008ADE7F0BC4FF0000001F1C041C0
:1037500001F00041BDE8008111EA0C1F0CEA1315CD
:1037600000D00CE013EA0C1F00F025804FF00000A1
:10377000F0BC81EA030101F00041BDE80081F0BC2A
:10378000BDE8004181EA030100F0E0B9F0BCBDE80A
:10379000004170B500F08CF9097EFC3E00F007B8DE
:1037A00081EA03014FF0000001F00041704781EA17
:1037B000030100F0CBB9F0BCBDE800414FF00000C0
:1037C00021497047FFFDFBF9F7F5F4F2F0EEEDEB60
:1037D000E9E8E6E4E3E1E0DEDDDBDAD8D7D5D4D30F
:1037E000D1D0CFCDCCCBCAC8C7C6C5C4C2C1C0BF5B
:1037F000BEBDBCBBBAB9B8B7B6B5B4B3B2B1B0AF61
:10380000AEADACABAAA9A8A8A7A6A5A4A3A3A2A144
:10381000A09F9F9E9D9C9C9B9A99999897979695FF
:1038200095949393929191908F8F8E8E8D8C8C8B9B
:103830008B8A898988888787868585848483838223
:10384000828181800000FF070000F87F4FEA41037A
:103850004FEA5353A3F58063D3F11E03C8BFD3F1DE
:10386000210C0CDD4FF0004242EAC12242EA5052E4
:1038700032FA03FC8CEAE17CACEBE1707047102B70
:10388000C4BF0020704703F5787CBCF1FF3F04D033
:103890006FF0004282EA2100704770B500F008F92D
:1038A0004992248000207047F2E700004FEA11534C
:1038B000A3F58063D3F11E03A8BFD3F1200C08DB6E
:1038C0004FF0004242EAC12252EA505232FA03F06B
:1038D000704709420BD4102BC4BF0020704703F57A
:1038E000787CBCF1FF3F05D04FF0FF3070474FF0C0
:1038F0000000704770B500F0DBF800BF49922480EB
:1039000000207047F0E710F0004248BF4042B0FA94
:1039100080F310FA03F10AD0C3F11D0303F58063AD
:103920004FEA415002EB035202EBD12170474FF0B6
:1039300000007047B0FA80F310FA03F10AD0C3F127
:103940001D0303F580634FEA41504FEA035202EB37
:10395000D12170474FF0000070470000DFF848C1E8
:1039600070B51CEA111E1EBF1CEA13159EEA0C0F4F
:1039700095EA0C0F00F06F8081EA030423EA4C13F0
:103980004EEAD47E21EA4C1141F4801143F48013B5
:10399000AE44A1FB024CA0FB0365AEF17F7E36195D
:1039A00055EB0C05A1FB034C4CF10003A0FB021CE2
:1039B00016EB0C06654153F10003094218BF46F0AF
:1039C000010613F4007F0BD14FEA03314FEA0530B3
:1039D000340341EA155140EA16506FF003020AE041
:1039E0004FEAC3214FEAC520F40241EA555140EAAB
:1039F00056506FF0020202EB2E4201EB025585EAAF
:103A0000CE710AD05FEA440C18BF24F0004450F194
:103A1000000041F1000120EAD47040F2FE7C6245D2
:103A200000D270BDA84214BF4FF080444FF0404414
:103A3000002E08BF0024BEF1806FA8BFA1F1C041D5
:103A4000BDE8704080F282804FF0000001F1C0417B
:103A500001F0004170479EEA0C0F0CEA131518BFE5
:103A600095EA0C0F06D04FF0000081EA030E0EF02D
:103A7000004170BD00F01CF88900013E00F007B85D
:103A800000F009B84FEA430C5FEA5C5C08D081EAB9
:103A9000030100F05BB84FEA410C5FEA5C5CF6D1D1
:103AA0004FF00000014970470000FF070000F87F59
:103AB0000EF1020E2EF0030E5EF8046B364205D4B2
:103AC000012A43EB030515F5001F12D8012841EB2D
:103AD000010C1CF5001F0CD80ED14FEAD17C15F556
:103AE000001F0CEB4C0C0CF1020C08BF4CEBD37C10
:103AF00004E04FF0080C01E04FEAD37C0CEB4C05DE
:103B000026FA05F606F00706B6F1040C06D20EEB0F
:103B1000860CBDE870404CF0010C6047DFE80CF00B
:103B2000090B02024FF000414FF00000A1F5002107
:103B300070BD19461046012851EB010418BFD4F599
:103B4000001484BF002001F0004170BD0808A0F5FA
:103B500000114FEA3101704710B591EA030F48BFD9
:103B600083F000433FF57AAC841A71EB030C07D263
:103B700012198CF0004C43EB0C03001B61EB0C01A1
:103B8000DFF8A4E14FEA1154A4EB135C1EEA430FE3
:103B900018BF9EEA445F00F0B08023EA6E035242F1
:103BA00021EA0451C3EB6E0338BF5B1EDCF1200E2B
:103BB00025D322FA0CFE10EB0E0043FA0CFE41EB6B
:103BC0000E01CCF1200E03FA0EFE10EB0E0051F1A7
:103BD0000001CCF1200E29D412FA0EF201EB0451AF
:103BE000BDE8104058BF7047401C1CBFB2F1004FE9
:103BF000704700280CBF491C20F00100704712EBF1
:103C0000020E43EB030218BF4FF0010E4EEA4202D0
:103C1000ACF1200CDCF11E0E54D943FA0CFE10EB73
:103C20000E0051F1FF31CCF11E0ED5D50EF1010E73
:103C300012FA0EFE404141EB010101EB445C5FEAE8
:103C40005C5C10D910EBDE7001EB045138BFBEF1A3
:103C5000004FBDE8104018BF704700280CBF491C3A
:103C600020F00100704730D24FEAD42C11F500113A
:103C700024F400641BD0B1FA81F20B3AA41AA41EFA
:103C8000D2F12003914030FA03F31943904001EB45
:103C9000CC71002C01EB0451BDE81040A8BF704767
:103CA00001F1C0414FF0000001F000417047B0FA4F
:103CB00080F310FA03F100D110BDE41A173C480557
:103CC000C90AE4E701EB045110BD491001EB0451AE
:103CD000BDE810404FEA300002E04FF000017047AD
:103CE0004A0008BF0042F8D0B2F5001F28BF704755
:103CF00001F000414FF0000070479EEA445F07D09A
:103D000011EA5E0FBDE8104004BF0021002070479B
:103D1000BDE8104070B5FFF7CBFE00BF40DFF63EB8
:103D200083F00041104670470000E0FF43004FEA77
:103D3000D30C4FEA3C0C43401FBF40070CF16051CD
:103D400013F0FE4F70471CF0006F03D100200CF001
:103D5000004170470CF0004343EA507010B540EA50
:103D6000CC0000F00EF800BF000000924FEA000106
:103D7000FFF7ECBE4FF000414FF00000A1F500212D
:103D800070470EF1020E2EF0030E5EF8044B244233
:103D900004D44FEA4102B2F17F4F11D84FEA4003F9
:103DA000B3F17F4F0CD80ED14FEAD07CB2F17F4FE8
:103DB0000CEB4C0C0CF1020C08BF4CEBD17C04E07A
:103DC0004FF0080C01E04FEAD17C0CEB4C0324FAD5
:103DD00003F404F00704B4F1040C06D20EEB840CD7
:103DE000BDE810404CF0010C6047DFE80CF007081C
:103DF00002024FF00040A0F5800010BD08464200CE
:103E000018BFD2F1807288BF00F0004010BD4FF0A3
:103E10004070E1EE100A7047FF2141EAD050C00522
:103E200070470000000000000000002F00000000AC
:103E30000700070000147F147F1400242A7F2A1231
:103E40000062640813230036495522500000050320
:103E5000000000001C224100000041221C00001450
:103E6000083E08140008083E0808000000A0600092
:103E70000008080808080000606000000020100822
:103E80000402003E5149453E0000427F400000428E
:103E900061514946002141454B31001814127F10F1
:103EA000002745454539003C4A4949300001710920
:103EB000050300364949493600064949291E0000D4
:103EC000363600000000563600000008142241007B
:103ED00000141414141400004122140800020151AB
:103EE000090600324959513E007C1211127C007FB4
:103EF00049494936003E41414122007F4141221C4F
:103F0000007F49494941007F09090901003E4149B3
:103F1000497A007F0808087F0000417F41000020A7
:103F200040413F01007F08142241007F4040404053
:103F3000007F020C027F007F0408107F003E414199
:103F4000413E007F09090906003E4151215E007F84
:103F5000091929460046494949310001017F0101FB
:103F6000003F4040403F001F2040201F003F40389E
:103F7000403F0063140814630007087008070061DD
:103F80005149454300007F41410000020C30400090
:103F9000000041417F000004020102040040404053
:103FA0004040000001020400002054545478007F77
:103FB0004844443800384444442000384444487F4E
:103FC00000385454541800087E0901020018A4A4B3
:103FD000A47C007F080404780000447D4000004079
:103FE00080847D00007F102844000000417F400055
:103FF000007C04180478007C0804047800384444E9
:10400000443800FC242424180018242418FC007CC4
:104010000804040800485454542000043F4440203D
:10402000003C4040207C001C2040201C003C4030D4
:10403000403C004428102844001CA0A0A07C004460
:1040400064544C4400000876420000007E000000EA
:104050000042760800000008100810000000000070
:10406000000000000000000000000000000000F858
:1040700000000000000000333000000000100C06BB
:10408000100C0600000000000000000040C0784056
:10409000C0784000043F04043F040400007088FC22
:1040A00008300000001820FF211E0000F008F0007A
:1040B000E018000000211C031E211E0000F00888EB
:1040C000700000001E2123241927211010160E0055
:1040D000000000000000000000000000000000E000
:1040E0001804020000000007182040000002041815
:1040F000E00000000040201807000000404080F071
:10410000804040000202010F01020200000000F0A6
:10411000000000000101011F01010100000000007A
:104120000000000080B070000000000000000000EF
:104130000000000000010101010101010000000078
:10414000000000000030300000000000000000000F
:1041500080601804006018060100000000E01008EC
:104160000810E000000F102020100F00001010F8C1
:10417000000000000020203F202000000070080800
:104180000888700000302824222130000030088880
:10419000884830000018202020110E000000C020A8
:1041A00010F8000000070424243F240000F80888C9
:1041B000880808000019212020110E0000E0108856
:1041C00088180000000F112020110E000038080888
:1041D000C83808000000003F000000000070880898
:1041E00008887000001C222121221C0000E0100819
:1041F0000810E0000000312222110F00000000C072
:10420000C00000000000003030000000000000800E
:1042100000000000000080600000000000008040FE
:104220002010080000010204081020004040404017
:10423000404040000404040404040400000810206A
:1042400040800000002010080402010000704808AF
:104250000808F0000000003036010000C030C82817
:10426000E810E0000718272423140B000000C038D2
:10427000E0000000203C23020227382008F888884C
:1042800088700000203F202020110E00C030080858
:1042900008083800071820202010080008F808082F
:1042A0000810E000203F202020100F0008F8888828
:1042B000E8081000203F20202320180008F88888F4
:1042C000E8081000203F200003000000C03008086C
:1042D0000838000007182020221E020008F80800F5
:1042E0000008F808203F210101213F20000808F8BC
:1042F000080800000020203F2020000000000808DF
:10430000F8080800C08080807F00000008F888C09E
:1043100028180800203F20012638200008F808004F
:1043200000000000203F20202020300008F8F80086
:10433000F8F80800203F003F003F200008F830C098
:104340000008F808203F200007183F00E010080888
:104350000810E0000F10202020100F0008F80808B7
:104360000808F000203F210101010000E0100808CA
:104370000810E0000F18242438504F0008F88888EF
:1043800088887000203F2000030C302000708808CF
:10439000080838000038202121221C00180808F8DD
:1043A000080818000000203F2000000008F808005E
:1043B0000008F808001F202020201F00087888002F
:1043C00000C83808000007380E010000F80800F89F
:1043D0000008F800033C0700073C03000818688049
:1043E0008068180820302C03032C30200838C800BF
:1043F000C83808000000203F20000000100808080E
:10440000C83808002038262120201800000000FEAF
:10441000020202000000007F40404000000C30C05B
:1044200000000000000000010638C0000002020287
:10443000FE000000004040407F0000000000040239
:104440000202040000000000000000000000000064
:104450000000000080808080808080800002020454
:10446000000000000000000000000000000080804C
:10447000808000000019242222223F2008F80080BA
:1044800080000000003F112020110E00000000807D
:1044900080800000000E112020201100000000800C
:1044A0008088F800000E112020103F20000080803E
:1044B00080800000001F222222221300008080F052
:1044C000888888180020203F20200000000080807D
:1044D00080808000006B94949493600008F80080C2
:1044E00080800000203F210000203F20008098981D
:1044F000000000000020203F20200000000000807D
:104500009898000000C08080807F000008F80000BC
:1045100080808000203F24022D302000000808F811
:10452000000000000020203F2020000080808080CC
:1045300080808000203F20003F20003F808000805E
:1045400080800000203F210000203F20000080806C
:1045500080800000001F202020201F00808000801D
:104560008000000080FFA12020110E0000000080CC
:1045700080808000000E112020A0FF8080808000BD
:104580008080800020203F212000010000008080EA
:10459000808080000033242424241900008080E0DF
:1045A000808000000000001F2020000080800000AC
:1045B00000808000001F202020103F20808080008D
:1045C0000080808000010E3008060100808000809D
:1045D000008080800F300C030C300F0000808000C2
:1045E000808080000020312E0E31200080808000ED
:1045F0000080808080818E7018060100008080809D
:10460000808080000021302C22213000000000003A
:10461000807C020200000000003F404000000000DB
:10462000FF00000000000000FF0000000002027C0C
:10463000800000000040403F000000000006010133
:104640000202040400000000000000000000F0105E
:10465000101010FF10101010F000000000000F04E8
:10466000040404FF040404040F0000004040405F01
:10467000555555755555555F404040000040200F39
:10468000094989790909090F2040000000FE02420A
:104690004ACA4A4ACA4A4A4202FE000000FF405043
:1046A0004C4340404F50505C40FF00000000F888F1
:1046B000888888FF88888888F800000000001F0824
:1046C0000808087F888888889F80F000808282821E
:1046D000828282E2A2928A868280800000000000AC
:1046E0000040807F0000000000000000101010FF5C
:1046F000109008888888FF88888808000444827F92
:1047000001808040432C102846818000001010104A
:1047100010D030FF30D0121C10100000100804021E
:10472000010000FF000001020408100080000000EA
:104730001A000000000000006F00000000000000F0
:104740000000000000000000000000000100000068
:104750000000000000020000300000000000000027
:104760000400000002000000004000000000000003
:10477000000800001000000000000000A8FDFFFF7E
:104780005802000058020000A8FDFFFFBC02000014
:10479000BC02000044FDFFFF44FDFFFF5802000083
:1047A000A8FDFFFF000000003300000034000000FF
:1047B000350000003600000037000000380000001F
:1047C00000000000004C0040014C0040204C004024
:1047D000214C0040404C0040414C0040604C0040A7
:1047E000614C0040804C0040814C0040204D004016
:1047F00010480000000000209C0000008001000024
:10480000AC4800009C0000207C0500009C010000DA
:1048100000000000E8030000E803000000000000C2
:104820000000000000000000000000000000000088
:104830000000000000000000000000000000000078
:10484000000000000000C84200000000000000005E
:104850000000C8420000000000000000000000004E
:104860000000000000000000000000000000000048
:104870000000C84200000000000000000000C84224
:104880000000000000000000000000000000C8421E
:1048900000000000000000000000C842000000000E
:0C48A0000000000000000000000000000C
:0400000500000145B1
:00000001FF
