:020000040000FA
:10000000B0020020ED010000F5010000F701000042
:10001000F9010000FB010000FD01000000000000EC
:10002000000000000000000000000000FF010000D0
:1000300001020000000000000302000005020000B1
:10004000070200000702000007020000070200008C
:10005000070200000702000007020000070200007C
:10006000E90A000007020000070200000702000082
:10007000070200000D0B000007020000F90B000052
:10008000070200000702000007020000070200004C
:10009000070200000702000007020000070200003C
:1000A00005050000B90A0000D10A0000070200009F
:1000B000070200000702000007020000070200001C
:1000C000070200000702000007020000F10800001C
:1000D00007020000070200000702000007020000FC
:1000E0000702000000000000000000000000000007
:1000F0000000000000000000000000000000000000
:1001000000000000000000000000000000000000EF
:1001100000000000000000000000000000000000DF
:1001200000000000000000000000000000000000CF
:1001300000000000000000000000000000000000BF
:100140000000000000F002F800F041F80AA090E87A
:10015000000C82448344AAF10107DA4501D100F082
:1001600036F8AFF2090EBAE80F0013F0010F18BF0E
:10017000FB1A43F001031847A0120000C012000050
:10018000103A24BF78C878C1FAD8520724BF30C8C3
:1001900030C144BF04680C60704700000023002495
:1001A00000250026103A28BF78C1FBD8520728BF87
:1001B00030C148BF0B607047642900F07780002091
:1001C00070471FB501F0D4F81FBD10B510BD00F089
:1001D00067F91146FFF7F5FF01F01AF800F085F90D
:1001E00003B4FFF7F2FF03BC00F06AFE0948804742
:1001F00009480047FEE7FEE7FEE7FEE7FEE7FEE709
:10020000FEE7FEE7FEE7FEE704480549034A054B23
:10021000704700004D0A000045010000B0000020BA
:10022000B0020020B0000020704700000FB4044965
:1002300010B503AA029800F005F910BC5DF814FB94
:10024000140000202DE9F0410E46044600202062F3
:100250002046E168884730B3252805D0D4E901213C
:100260009047206A401CF2E7E16820460027884753
:10027000050018D0A5F14100192802D820354FF407
:1002800000673246294620462760FFF795FF40B1B8
:10029000012804D0F61D26F007060836D8E7361DDB
:1002A000D6E72846DAE7206ABDE8F0812DE9F0417B
:1002B0000646002410687529314616A510D0AFF304
:1002C0000080002802DA404213A507E031688A075F
:1002D00001D512A502E0490704D511A5012401E0CA
:1002E000AFF3008000210A2206F1240709E0B0FBE9
:1002F000F2FCB0FBF2F302FB1C00303078541846DD
:10030000491C0028F3D123462A463046BDE8F04177
:1003100000F03EB8000000002D0000002B0000009F
:100320002000000010B5203AC0F00B80B1E8185052
:10033000203AA0E81850B1E81850A0E81850BFF4CF
:10034000F5AF5FEA027C24BFB1E81850A0E818506E
:1003500044BF18C918C0BDE810405FEA827C24BFC2
:1003600051F8043B40F8043B08BF7047D20728BF50
:1003700031F8023B48BF11F8012B28BF20F8023B9F
:1003800048BF00F8012B70477047704770477047AF
:100390002DE9F0470D4699469246044600F124089F
:1003A0000168880604D5E06921F01001216000E0B1
:1003B0000120A84201DD471B00E00027A1697A194E
:1003C00002EB0900081AA0612078C00602D420467A
:1003D000AFF30080002608E0D4E901211AF80600F6
:1003E0009047206A401C761C20624E45F4DB207842
:1003F000C0060AD52046AFF3008006E0D4E901210B
:1004000030209047206A401C2062381EA7F1010767
:10041000F4DC07E0D4E9012118F805009047206AD0
:10042000401C2062281EA5F10105F3DC2046AFF335
:1004300000802078000602D50220BDE8F087012068
:10044000FBE70000074B70B50D467B4400F011F848
:100450000446284600F020F810B14FF0FF3070BD80
:10046000204670BD330D000001694A1C0261087806
:10047000704700B58FB0CDE90131002105910549E4
:100480007944CDE9031011466846FFF7DBFE0FB053
:1004900000BD0000E5FFFFFF007B00F0800070471B
:1004A000754600F02BF8AE4605006946534620F02D
:1004B0000700854618B020B5FFF7A6FEBDE820402E
:1004C0004FF000064FF000074FF000084FF0000B10
:1004D00021F00701AC46ACE8C009ACE8C009ACE8C3
:1004E000C009ACE8C0098D46704710B50446AFF3AB
:1004F00000802046BDE81040FFF772BE00487047FC
:100500004C00002070B5002413490968886E8047AC
:1005100005460E4610480068C26E28463146904790
:10052000022305EA0300002148404940084312D055
:100530000A4800F01DF800BF08E0084830F8142011
:10054000214607A0FFF772FE601CC4B2022CF4DB48
:1005500006A0FFF76BFE70BD040800020C0000202F
:100560005B25645D3A25640D090000000D0A00005A
:10057000094B10B55968C1F3044109E003EB81024E
:10058000D2F8984020F811409269120602D4491C12
:100590002029F3D310BD000000200140064A46F692
:1005A0005A111160044950310A6802430A60034934
:1005B00001200870704700000004014000802042C4
:1005C000044908680968C0F3022001F0E0610901EC
:1005D00000F0CABB080401401CB56B4601AA00210B
:1005E000032000F0C5F937490868374A00F4E020D5
:1005F000B0F5403F2ED007DC30B3B0F5803F25D0BA
:10060000B0F5003F06D123E0B0F5802F24D0B0F53F
:10061000A02F23D00020019B002B51D00968C1F3EB
:1006200009018B0502D541F47E4109B2002947D06A
:10063000264B904293F8D82016D1002A009A0FD06A
:1006400092ED0F0A526A19E02148E4E72148E2E7F7
:100650002148E0E72148DEE72148DCE71046DAE7F9
:1006600092ED070A526809E0002A009A03D092ED41
:100670000E0A126A02E092ED060A126800EE901A63
:10068000C2F54071B7EE002AF8EEE00A20EE201A1B
:1006900000EE901AF8EEE01AF0EE420A40EE210A5F
:1006A00081EE200AF0EE420A70EEC00A00EE100A57
:1006B000B8EE400A80EE201ABCEEC10A10EE100A15
:1006C0001CBD000004040140006CDC0200802042DC
:1006D00060E31600C0C62D00808D5B00001BB700D4
:1006E00000366E0104490868096800F0070001F44B
:1006F000E021090300F038BB080401400449086800
:100700000968C0F3021001F0E04100F02DBB0000C9
:1007100008040140014AC2E900107047240000208B
:10072000002100F001B800002DE9F0470C462249F5
:10073000064646F65A10086000F012F900F001096A
:10074000012000F0FDF800F06FFB0CB1012500E086
:1007500000251A49012281F8C021174B0C331F686C
:1007600027F4E00707431F60002316B181F8E42156
:1007700001E081F8E43181F8E021114FDFF844C055
:1007800003E00DB1641E05D03A709CF80080B8F10A
:10079000000FF6D12EB910B181F8C02101E081F827
:1007A000C0310A70484600F0D3F805B114B10120F9
:1007B000BDE8F0870020FBE70004014000802042F4
:1007C000048A204204892042002100F001B8000080
:1007D0002DE9F0470C462249064646F65A100860B5
:1007E00000F0BEF800F00109012000F0A9F8B6F50C
:1007F000007F03D000201CB1012502E00120FAE7B0
:100800000025174A174B0C32012110B183F8A411AF
:1008100006E0176847F003071760002783F8A47104
:1008200083F8A011104FDFF844C003E00DB1641E3F
:1008300005D039709CF80080B8F1000FF6D120B9CE
:10084000106820F00300304310601970484600F033
:100850007FF805B114B10120BDE8F0870020FBE767
:100860000004014000802042008A2042008920428A
:10087000034A52F820000088084000D00120704749
:10088000E8130000074A52F8200042898A43428157
:1008900082898A43828182888A438280C2888A438D
:1008A000C2807047E8130000064A52F820004289CF
:1008B0008A43428182898A43828182880A43828074
:1008C00070470000E8130000034A52F820004288F5
:1008D0000A43428070470000E8130000034A52F8C0
:1008E000200042888A43428070470000E8130000DD
:1008F00010B512480068C16B0120884704460F48B4
:1009000000682146426B01209047192000F06AFCE4
:1009100004F0020030B14FF498404FF0844101EBF5
:100920004010007904F0100030B14FF498404FF0BF
:10093000844101EB4010007C10BD0000240800023F
:1009400002494A6882434A6070470000003004E070
:1009500002494A6802434A6070470000003004E0E0
:100960000248406800F4702070470000003004E046
:10097000F0B50F4C002625686D1C16D00D4F25686C
:1009800085420AD0BD4208D0854201D129B1491E15
:10099000656804EB85040834F1E7854205D1606899
:1009A0008000083410601C60F0BD16601E60F0BD51
:1009B000041020001DE1D00B10B54FF4B5402049C4
:1009C00008802048006801220C2183690B20984789
:1009D0001C4800680122032183690B2098471A49AB
:1009E0004FF40040FFF796FE16481030006801688B
:1009F000012088471348083800680121426D002013
:100A000090471048083800680121426D0846904719
:100A10000020FFF785FE0320FFF7D6FE09481038B7
:100A20000068002205210368022098470548103815
:100A300000680022052103680820984710BD0000C7
:100A40000C48004024080002006CDC0215480068D5
:100A500040F47000134908604FF4B5401249088013
:100A600080201249486146F65A10114908604FF437
:100A70008030091D0860081D006820F00710C01CA8
:100A8000091D086000200A4908600A48006920F032
:100A90003000084908610846406920F0300048618C
:100AA0007047000088ED00E00C480040003004E092
:100AB000000401400010014010B503480068016ABD
:100AC0000248884710BD00005C08000200C00040DA
:100AD00010B503480068016A0248884710BD00004D
:100AE0005C08000220C0004010B5074800680221E1
:100AF000C26B480790470448343800680121C26837
:100B00000846904710BD00005808000210B536484E
:100B1000007800F08000002864D134480068C16C7F
:100B20003348884708B331480068816B30488847AC
:100B3000002140F604004FF0844202EB40100171A6
:100B40002948007800F0400078B12748007800F08C
:100B50003F003F280AD12448007840F08000224915
:100B600008704FF6FF702349088004E01E480078A3
:100B7000401C1D4908701D4800680421C26D1C48B6
:100B8000904778B3194800680421C26B1848904711
:100B90001548007800F04000A0B114480068082211
:100BA0000421C3691248984760B90F48007840F0A3
:100BB00080000D49087004210D4800F079F80D49B6
:100BC00008800FE00020084908700A49088007489B
:100BD00000688169064888470348007840F0400073
:100BE0000149087010BD00001000002058080002E4
:100BF000000800401200002010B5294800680221BA
:100C0000C26D28489047B0B1254800680221C26BE8
:100C10002448904720210A20FFF72AFE28B12248C5
:100C20000069401C2049086139E01F480069401EE6
:100C30001D49086133E01A4800680621C26D194851
:100C40009047B0B1164800680621C26B154890471E
:100C500004210920FFF70CFE28B113484069401C0D
:100C6000114948611BE010484069401E0E49486127
:100C700015E00E480068401C0C49086008464068B2
:100C8000401C4860002140F602404FF0844202EBD5
:100C90004010017140F6064002EB4010017110BD9A
:100CA00058080002000C00402C0000201C0000200E
:100CB000FF2202EB5101C9B200EB4100408A7047AC
:100CC00070B50126420102F1844234461670038851
:100CD0000D8823F0C0032B4303804B69002513B11B
:100CE00082F8344001E082F834508B6913B182F805
:100CF0002C4001E082F82C500B6923B1012B05D068
:100D0000022B0CD107E082F83C5008E082F83C400E
:100D100082F8385003E082F83C4082F838404B6A51
:100D200013B182F8304001E082F830508A88C280E6
:100D30000A7B0B89120202EB03120B8C1A4402810C
:100D400002884FF6C103898B1A400A43028030465D
:100D500070BD420102F1844292F844330BB1C1816B
:100D6000704792F88433F9E72DE9F04131F0704291
:100D700016D10917082913D2DFE801F0120406087A
:100D80000A0C0E1002240CE004240AE0082408E0F7
:100D9000102406E0202404E0402402E0802400E047
:100DA00001241D4BDFF874804FF4FA354FF40046F0
:100DB00006282FD2DFE800F003210B272A14184F52
:100DC000387850B10120FFF7E9FB387828B118785E
:100DD000B0B1B5FBF4F0BDE8F081D8F8040016E03E
:100DE0000F4F3F1D387828B10220FFF7D7FB387826
:100DF0000028ECD1D8F8000009E042F2107006E0BB
:100E0000B6FBF4F0E7E7FFF7E7FB00E00548B0FBCF
:100E1000F4F0E0E70020DEE73C86204224000020DA
:100E20000089204200366E011A481B4900684218AA
:100E30001A498A422BD91A491A4A0144914202D8C6
:100E40004FF4801070471849421818498A4202D856
:100E50004FF400107047164A02448A4202D84FF4F9
:100E600040107047134A02448A4202D84FF480006F
:100E70007047114A02448A4202D84FF4A0007047DA
:100E80000E4A1044884202D84FF4C0007047002038
:100E90007047000024000020C0BDF0FFC0C62D0038
:100EA000FFF6C2FFFF083D00FFED85FFFF117A004E
:100EB000FFDB0BFFFFC991FEFFB717FEFFA59DFDEE
:100EC00000BF7047024601208840104008B1012051
:100ED00070470020FCE7000000B58BB0042109201A
:100EE000FFF7D0FC20210A20FFF7CCFC294800683E
:100EF00001220421C369082098472648006801227E
:100F00001021C3690A209847234B0FCBCDE9092351
:100F1000CDE907011F483430006807A942681F481F
:100F2000904718221C49103101A8FFF7FBF9194816
:100F30003430006801A902691848904706200190E2
:100F400014483430006801A90269144890471148D8
:100F50003430006820210268104890470D48343032
:100F60000068816B0D4888470A48343000680221C8
:100F7000C26B0A4890470748343000680621C26BAC
:100F80000648904703480830006881691F20884759
:100F90000BB000BD24080002A4130000000C0040A8
:100FA00010B5FFF79FFB0749B0FBF1F00649087049
:100FB0004FF0E020006940F004004FF0E0210861AC
:100FC00010BD000040420F00180000200146114AE9
:100FD00012784A434FF0E0235A6100229A611A4680
:100FE000126942F001021A6100BF4FF0E02210695D
:100FF00000F001021AB100F48032002AF5D04FF05F
:10100000E022126922F001024FF0E0231A6100226F
:101010009A617047180000202DE9F0472DED048BF0
:1010200004460E4604B11EB9BDEC048BBDE8F08742
:101030002068802803D1FFF761FB05460BE020689C
:10104000402803D1FFF7BCFA054604E08020206069
:10105000FFF754FB0546AE4200D9E5E700EE105A13
:10106000F8EE400A00EE106AB8EE400A80EE801AF0
:10107000BCEEC10A10EE100A1FFA80F89FED3D9AEF
:101080004FF0000954E09FED3C0AF0EE408A4FF02B
:10109000000A002739E03B46F81707EB5070C010F4
:1010A000A7EBC000C0F1070081B24846FFF70AFF76
:1010B00040448244781C00EE100AB8EEC01A00EEDC
:1010C000106AB8EE400AC1EE000A00EE10AAB8EEAF
:1010D000401A00EE105AB8EE400AC1EE001A30EE87
:1010E000E10AB0EE408AB5EEC08AF1EE10FA03D202
:1010F000B1EE480AB0EE408AB4EEE88AF1EE10FA9A
:1011000001DDF0EE488A781CC7B20A2FC3DD38EE45
:10111000C90ADFED1A0AB4EEE00AF1EE10FA03D2C2
:10112000B0EE689AC4F80C9009F101001FFA80F93A
:10113000B9F1FF0FA7DDB8F1140F05DA0020206226
:10114000C4F80480A06013E00120206200EE108A41
:10115000B8EE400AF3EE000A80EE201ABCEEC10A97
:1011600010EE100A80B260606068A8EB0010A0600A
:1011700000BF59E70050C34700000000476C00ADB6
:1011800070B504460D46E1B20248FFF7E2FD204685
:1011900070BD00000010004010B508210520FFF7C9
:1011A00083FB08210520FFF78FFBFF210720FFF7B6
:1011B0007BFBFF210720FFF787FB0A20FFF706FFD5
:1011C000FF210720FFF75EFB4FF4FA70FFF7FEFEEA
:1011D0000348047808210520FFF780FB204610BD56
:1011E000604C004008B50CE00021009104E0BDF81F
:1011F0000010491C89B20091BDF80010B1F57A7F4A
:10120000F5DB011EA0F1010290B2EDD108BD000096
:10121000FFF7D2FB4FF4E13000F084F8FFF7C0FE97
:1012200000F028F8FFF758FE08A0FEF7FFFF0B4973
:1012300009680868804708E0FFF7AEFF08490870B2
:101240000846017807A0FEF7F1FFF5E748656C6CEA
:101250006F2C4D5350343332210D0A002C080002FC
:10126000000000207072696E7466203D2025640ABB
:101270000000000010B530214FF47A7000F01AF829
:1012800040210120FFF710FB80210120FFF70CFB1C
:1012900040210320FFF708FB80210320FFF704FB18
:1012A00040210320FFF710FB80210320FFF70CFBF8
:1012B00010BD000030B587B004460D4618480068E0
:1012C00001224021836902209847154800680122C5
:1012D00080218369022098474FF4007001900295A5
:1012E000039408200490C0200590002006900C482C
:1012F0003430006801A9C26A4FF0804090470A204C
:10130000049007483430006801A9C26A4FF0804059
:10131000904708210520FFF7D7FA07B030BD00003D
:101320002408000210B58AB0044628220D496846F8
:10133000FEF7F8FF21466846FFF76EFE0A48006890
:1013400001220C2183691046984769460748FFF738
:10135000B7FC05483C3000688168044888470AB0FB
:1013600010BD00007C1300002408000200100040A3
:101370004FF04070E1EE100A70470000800000005E
:101380001A000000000000006F00000000000000D4
:10139000000000000000000000000000010000004C
:1013A0000000000000020000300000000200000009
:1013B00004000000020000000040000000000000E7
:1013C000000000001000000000000000000000000D
:1013D000330000003400000035000000360000003B
:1013E000370000003800000000000000004C004002
:1013F000014C0040204C0040214C0040404C00403B
:10140000414C0040604C0040614C0040804C00402A
:10141000814C0040204D00403814000000000020A6
:101420002C00000080010000641400002C0000204B
:10143000840200009C01000000000000F401000094
:101440002003000000000000000000000000000079
:10145000000000000000000000000000000000008C
:041460000000000088
:0400000500000145B1
:00000001FF
