:020000040000FA
:10000000F0410020FD010000050200000702000091
:10001000090200000B0200000D02000000000000B9
:100020000000000000000000000000000F020000BF
:100030001102000000000000130200001502000081
:10004000170200001702000017020000170200004C
:10005000170200001702000017020000170200003C
:100060004D1C0000170200001702000017020000DC
:10007000711C0000F91C0000E51D0000491E000075
:10008000170200001702000017020000170200000C
:1000900017020000170200001702000017020000FC
:1000A000B91200001D1C0000351C000017020000E2
:1000B00017020000170200001702000017020000DC
:1000C000170200001702000017020000551A000076
:1000D00017020000170200001702000017020000BC
:1000E00017020000000000000000000000000000F7
:1000F0000000000000000000000000000000000000
:1001000000000000000000000000000000000000EF
:1001100000000000000000000000000000000000DF
:1001200000000000000000000000000000000000CF
:1001300000000000000000000000000000000000BF
:100140000000000000F002F800F049F80AA090E872
:10015000000C82448344AAF10107DA4501D100F082
:100160003EF8AFF2090EBAE80F0013F0010F18BF06
:10017000FB1A43F001031847F4380000143900005B
:10018000103A24BF78C878C1FAD8520724BF30C8C3
:1001900030C144BF04680C60704700000023002495
:1001A00000250026103A28BF78C1FBD8520728BF87
:1001B00030C148BF0B607047662903F06883002098
:1001C00070471FB503F059FB00F024FB040000202A
:1001D000002102F0E1FDE0601FBD10B510BD00F090
:1001E00035FC1146FFF7EDFF02F05AFB00F053FC1F
:1001F00003B4FFF7F2FF03BC02F058F80948804748
:1002000009480047FEE7FEE7FEE7FEE7FEE7FEE7F8
:10021000FEE7FEE7FEE7FEE704480549054A064B10
:1002200070470000B11B000045010000F0010020F4
:10023000F0410020F0210020F02100207047000054
:100240000FB4044910B503AA029800F0D1FA10BC0B
:100250005DF814FB0C0000202DE9F0474FF0000A78
:1002600089460446C0F820A02046E1688847002857
:1002700076D0252806D0D4E901219047206A401C79
:100280002062F1E7E168204600258847C4F81CA0F9
:1002900006460027C4F818A02A2E09D0304601F0DF
:1002A000FEFF38B304EB8708303EC8F8186019E049
:1002B00059F8041B204604EB87029161E1688847E6
:1002C000012F064618D1E069002820DA25F0200524
:1002D0001DE0D8F8180000EB800006EB4000303835
:1002E000C8F818002046E1688847064601F0D7FFA5
:1002F0000028EED1012F0AD02E2E08D12046E16829
:1003000088477F1C0646022F45F02005C4DBA06904
:10031000002803DA404245F00105A061E80701D05A
:1003200025F01005B6B1A6F14100192802D82036F3
:1003300045F400654A463146204625604D46FFF7A4
:100340003BFF58B1012806D0ED1D25F0070000F154
:10035000080989E704E005F1040985E730468AE7E2
:10036000206ABDE8F08710B5203AC0F00B80B1E8F4
:100370001850203AA0E81850B1E81850A0E81850DA
:10038000BFF4F5AF5FEA027C24BFB1E81850A0E8E3
:10039000185044BF18C918C0BDE810405FEA827CFD
:1003A00024BF51F8043B40F8043B08BF7047D20714
:1003B00028BF31F8023B48BF11F8012B28BF20F8B5
:1003C000023B48BF00F8012B7047704770477047E9
:1003D000704770472DE9FF4F0C461E464FF0FF3720
:1003E0008BB0D2E90001DDF860800A908A46C1F343
:1003F0000A5505B93D46002108464FF00000BAF104
:10040000000F00F4400005DA00EB80004FF44001DB
:1004100001EA50004FEA9059B9F1010F00DDB946E9
:100420000A9850EA4A000ED044F61050A5F2FF3563
:1004300045432F14B8F1000F1ED07542291E1EDD52
:10044000C9F100021CE0B8F1010F4FF0000001D02B
:10045000302103E0F24305E02154401CB042FBDBB5
:1004600030460022002121540B99C1F80880C1E9CF
:1004700000200FB0BDE8F08FBD1B6D1CDEE74A46C3
:1004800000DA694206A800F067FA06AB93E80700B5
:1004900003AB83E8070050460A9900F045FB8DE85E
:1004A0000700A0F500501F3800900398002D0ADDCA
:1004B00042F21F014A460844002303A903906846FC
:1004C00000F0AEFD09E0A0F500504A461F380023B9
:1004D00003A90390684600F0B8FD8DE8070000040A
:1004E000000C03D04FF0FF30410800E01046B8F197
:1004F000000F03D00022009215461EE0751E05D4A1
:1005000000F08CF9303262556D1EF9D5B3460122E8
:10051000084302D000227F1C04E02078302801D15B
:1005200000227F1E002A099784D01DE0112D07DAD2
:1005300000F074F9303262556D1C50EA0102F5D1B9
:10054000084302D00098C8B10EE00021681E05E003
:10055000235C625C63542254401E491C8142F7DBD9
:10056000AB46A81B401E0990002004F80B000B9816
:10057000099AC0F80880C0E9002B7AE711264FF0ED
:10058000000857E72DE9F04F88460446D21D22F0B7
:10059000070191B0D1E90001CDE90A0101F0BCFDEC
:1005A00002460B98C00F01D02D2007E0206881077C
:1005B00001D52B2002E0202101EAC000032A099086
:1005C00001D0072A05DB03464146204600F084F9A6
:1005D0000BE12078800601D5E06900E00620B8F143
:1005E000650F814606D0B8F1660F18D0B8F1670FD5
:1005F00070D131E00020B9F1110F009001DB11231F
:1006000001E009F101030AAA01A90CA8FFF7E2FE23
:10061000DDE90C70002609F10105834647E0012061
:100620004B4600904FF000470AAA01A90CA8FFF71B
:10063000D1FEDDE90DB00C995D46002610B909F137
:1006400001000D18B9EB050003D4C0F1FF3609F124
:100650000105A5EB09002BE0B9F1010F01DA4FF01C
:1006600001090020B9F1110F0090484601DD112366
:1006700000E003460AAA01A90CA8FFF7ABFEDDE9DA
:100680000C704D4600268346207800070AD4AB45FF
:1006900000DA5D4601A8012D04DD411911F8011CA5
:1006A000302907D04F4502DA17F1040F04DA012090
:1006B00082460FE06D1EEEE7002F02DCED1B3E448C
:1006C00003E0781CA84200DD7D1CB81B00F1010A84
:1006D0004FF000472078000703D4AA4501DB4FF014
:1006E000FF3A0021B7F1004F0DF143088DF8431098
:1006F00024D002202B23002F01DA7F422D230A2150
:10070000021EA0F1010000DC5FB197FBF1FC97FB3A
:10071000F1F201FB1C7C17460CF1300C08F801CDFE
:10072000EEE7A8F1010003702188090501D54521F4
:1007300000E06521A0F1010800F8011C09980FA94B
:10074000A1EB0807FF1D00B10120411901EBEA7080
:10075000A1693844081A401EA0612078C00602D45E
:100760002046AFF30080099828B1D4E901219047D1
:10077000206A401C20622078C00622D52046AFF3B4
:1007800000801EE0002E04DBB34502DD01A8805D81
:1007900000E03020D4E901219047206A401C20620B
:1007A000761CAAF101005FEA000A0AD100F032F8D3
:1007B000C0680168405CD4E901219047206A401C70
:1007C0002062281EA5F10105DCDC07E0D4E9012147
:1007D00018F8010B9047206A401C2062381EA7F1D0
:1007E0000107F3DC2046AFF30080032011B041E69F
:1007F000074B70B50D467B4400F05BF80446284675
:1008000000F01CF910B14FF0FF3070BD204670BDF4
:100810004B1E000000487047AC01002030B5B0F11D
:100820000A024FEA900E71F100034EEA817EB0EBAE
:100830000E0061EB91014FEA101E4EEA017E10EBB3
:100840000E0041EB11114FEA102E4EEA016E10EB33
:100850000E0041EB11214FEA104E4EEA014E10EB13
:100860000E0041EB1141401841F100014FEAD00068
:1008700040EA41704FEAD10110EB80054FEA810454
:1008800044EA907444EB01046D1944EB0404521BD8
:10089000A3414FF0000348BF0A3200D530BD401CD1
:1008A00041F1000130BD000001694A1C0261087875
:1008B000704700B58FB0CDE90131002105910549A0
:1008C0007944CDE9031011466846FFF7C5FC0FB027
:1008D00000BD0000E5FFFFFF2DE9F0411F46044683
:1008E00003260168072A01F4006004DB08B116A59D
:1008F00005E016A503E008B115A500E015A521F057
:1009000010002060A069C01EA0610FB1401EA06150
:100910002046AFF300804FB1D4E90121384690471B
:10092000206A401C2062C01C206206E0206AFAE7B0
:10093000D4E9012115F8010B9047761EF8D2204624
:10094000AFF30080BDE8F0814E414E006E616E0055
:10095000494E4600696E66002DE9F047814616460D
:100960008AB0354878440DC88DE80D003248784487
:10097000801C03AC0DC884E80D0041F69B30084490
:10098000372190FBF1F290FBF1F5A5F1800501FB19
:1009900012041B3C02D56442012000E00020DFF875
:1009A00098A080460027FA44AAF1BE0A0EE0E007AC
:1009B0000AD03246684607EB470101230AEB810162
:1009C00000F043FB8DE8070064107F1C002CEED183
:1009D000194F7F44AE3F19E0E80715D007EB04102C
:1009E0000DF1180A90E80E008AE80E00C068F04287
:1009F00001D1981908903246012306A903A800F0F6
:100A000024FB03AB83E807006D10641C002DE3D1C9
:100A10004FF0010332466946B8F1000F03A802D037
:100A200000F0FEFA01E000F010FBC9E90001C9F88E
:100A300008200AB0BDE8F087EC300000007B00F031
:100A400080007047004870478C0100207546FFF712
:100A5000F9FFAE4605006946534620F0070085467B
:100A600018B020B5FFF7D8FBBDE820404FF00006D6
:100A70004FF000074FF000084FF0000B21F0070186
:100A8000AC46ACE8C009ACE8C009ACE8C009ACE8C9
:100A9000C0098D46704710B50446AFF3008020466C
:100AA000BDE81040FFF7A4BB4FF0013C50F8042B09
:100AB00051F8043B9A4221D1A2EB0C03934313EA71
:100AC000CC1317D150F8042B51F8043B9A4215D19E
:100AD000A2EB0C03934313EACC130BD150F8042B75
:100AE00051F8043B9A4209D1A2EB0C03934313EA59
:100AF000CC13DBD04FF00000704700BFD01A01BA12
:100B0000B1FA81F101F0180122FA01F0CB40C1F1F4
:100B10002001DBB2C0B2C01A2CFA01F3D11A914302
:100B200011EAC311E6D170475FEA400C08BF91F0AB
:100B3000000F4FEA8C234FEAC12243EA51514FEA9A
:100B40001C5018BF00F5F0404FEA300018BF41F0CC
:100B500000415FEA6C5C00F02980BCF1FF3F08BFF8
:100B600040F080407047130C06BF12044FF0100C89
:100B70004FF0000C130E04BF12020CF1080C130FFF
:100B800004BF12010CF1040C930F04BF92000CF18E
:100B9000020CD30F04BF52000CF1010C11464FF0B0
:100BA0000002A0F11F00A0EB0C00704711F0004FF5
:100BB00008BF704731F000413FF4D5AF0B0C06BFC2
:100BC00009044FF0100C4FF0000C0B0E04BF09028B
:100BD0000CF1080C0B0F04BF09010CF1040C8B0F76
:100BE00004BF89000CF1020CCB0F04BF49000CF1CB
:100BF000010CCCF12003A0EB0C0022FA03F302FA63
:100C00000CF241EA030100F10100704720F07F4C33
:100C100080EA030023F07F47ACEB070303F57C5326
:100C200000F0004003F1FF032DE980494FEA154B26
:100C300009B44FEA144325EA0B4E24EA03480FF2A5
:100C4000042606EB132749083E785FEA320203FBCD
:100C50000667C7F5000707FB06F64FEA54374FEA69
:100C6000D64606F1020607FB066CCCF1005C4FEAA3
:100C70001C472CEA074C07FB06F40CFB06F504EBBB
:100C800015464FEA961634BF00204FF000404FEA59
:100C9000D13706FB07FC4FEA1C4C0CFB0BF7D21BB1
:100CA00003FB0CF761EB07010CFB0EF7B0EB074001
:100CB00072EB17420CFB08F734BFA2EB0742B2EB12
:100CC000074261EB17414FEA0C444FEA910706FBDC
:100CD00007FC4FEA1C4C0CFB0BF7B0EBC74072EB68
:100CE000573203FB0CF734BFA2EBC742B2EBC7424B
:100CF00061EB57310CFB0EF7B0EBC70072EB57728C
:100D00000CFB08F734BFA2EBC702B2EBC70261EBE2
:100D10005771039F4FEA816141EA921104EBCC04C1
:100D20004FEAD1374FEA826206FB07FC42EA901293
:100D30004FEA80604FEA1C4C0CFB0BF7D21B03FB05
:100D40000CF761EB07010CFB0EF7B0EB074072EB01
:100D500017420CFB08F734BFA2EB0742B2EB074285
:100D600061EB17414FEA8C554FEA910704EB9C2445
:100D700006FB07FC4FEA1C4C0CFB0BF7B0EBC74023
:100D800072EB573203FB0CF734BFA2EBC742B2EB56
:100D9000C74261EB57310CFB0EF7B0EBC70072EBAB
:100DA00057720CFB08F734BFA2EBC702B2EBC702C5
:100DB00061EB577115EB4C254FEA816141EA9211C5
:100DC0004FEA82624FEAD13742EA901206FB07FCF3
:100DD00044F100044FEA80604FEA1C4C0CFB0BF717
:100DE000D21B03FB0CF761EB07010CFB0EF7B0EB1A
:100DF000074072EB17420CFB08F734BFA2EB074227
:100E0000B2EB074261EB174115EB1C154FEA81313C
:100E100041EA92414FEA823242EA90424FEA803000
:100E20004FEA0C7644F1000448EA03434EEA0B48CB
:100E30004FF0000EB2EB080C71EB030724BF6246C3
:100E400039464EEB0E0E4FF0000B0018524149414F
:100E50004BEB0B0BB2EB080C71EB03077BF1000BB8
:100E600024BF624639464EEB0E0E4FF0000B0018C1
:100E7000524149414BEB0B0BB2EB080C71EB0307F2
:100E80007BF1000B24BF624639464EEB0E0E51EA51
:100E9000020718BF46F0010616EB0E7655F1000268
:100EA00054F1000103D5BDE88901BDE80088BDE823
:100EB0008901BDE80048B619524141EB0101A3F197
:100EC0000103704780807F7E7D7C7B7A797877769E
:100ED00076757473727171706F6E6E6D6C6C6B6A17
:100EE0006A696868676666656464636362616160B5
:100EF000605F5F5E5E5D5D5C5C5B5B5A5A59595832
:100F0000585757565655555554545353525252519B
:100F1000515050504F4F4F4E4E4D4D4D4C4C4C4BF1
:100F20004B4B4A4A4A494949484848474747474638
:100F30004646454545444444444343434342424274
:100F400042414141002B9C4630D477002BD01CB548
:100F50004FEA370703B44FF010004FF01001BAF119
:100F6000000F06D0BCF1000FDCBF40F0080040F0DD
:100F700008014FF000000FBCBDE810400BF1010B61
:100F8000BBF1010F08BF5FEA170722BF12F1010290
:100F900011F101014FF0004143F1000300F0004066
:100FA00043EA00007047F9D35708D0E746EA0646FF
:100FB00013F1400F4FEA16461FDD13F1200FDFBF7C
:100FC00016430A46002120335B42BED0C3F12007FE
:100FD00046EA064602FA07F74FEA164646EA0706C9
:100FE000C3F1200722FA03F201FA07F721FA03F10D
:100FF0004FF0000342EA0702A7E746EA020646EA84
:1010000006464FEA164646EA0106BCBF46EA0646D1
:10101000360C4FF000034FF000024FF0000194E750
:101020002DE9804C9A46934670B491E8380007C881
:1010300031EA400C48BF34EA430C03D5FFF7E6FD24
:10104000FFF780FFF0BCBDE8008C2DE9804C9A468C
:10105000934670B491E8380007C810F0804F08BF7D
:1010600013F0804F03D100F005F8FFF76BFFF0BCE1
:10107000BDE8008C20F07F4780EA030023F07F4C1E
:1010800007EB0C03A3F57C5300F00040A3F1FE0333
:1010900092F0000F00F0B38095F0000F00F0778021
:1010A0002DE901494FEA11404FEA144621EA004870
:1010B00000FB06FC24EA064708FB06F607FB08F8D7
:1010C00000FB07F718EB06484CEB164C4FEA124BA7
:1010D00018EB07484FEA15464CEB174022EA0B4E37
:1010E0000BFB06FC25EA06470EFB06F607FB0EFE89
:1010F0000BFB07F71EEB064E4CEB164C4FF00006B1
:101100001EEB074E4CEB174B18EB0B0840F10000A1
:1011100018EB0E0B58EB000840F100008F1A4FF04F
:1011200000013CBFC943661B14BFB5EB040C002192
:101130003CBFC943F61B4FEA17444EEA8E0E27EA1E
:1011400004454FEA1C4704FB07622CEA074C05FBE9
:1011500007F70CFB05F604FB0CFC16EB074642EB0D
:10116000174216EB0C4642EB1C421BEB060658EBF3
:101170000202414146EA9E0601D5BDE80189B61941
:10118000524141EB0101A3F10103BDE801894FEA9E
:1011900014454FEA114724EA054621EA074C05FBAE
:1011A00007F406FB07F70CFB06F105FB0CFC11EB43
:1011B000074144EB17444FEA124711EB0C4144EB53
:1011C0001C4422EA074C05FB07F206FB07F70CFB61
:1011D00006F605FB0CFC16EB074642EB174216EB36
:1011E0000C4642EB1C456A1854F1000148BF704799
:1011F000B619524141EB0101A3F10103704795F08B
:10120000000F37D04FEA11424FEA144721EA024655
:1012100024EA074C02FB07F106FB07F70CFB06F478
:1012200002FB0CFC14EB074441EB17414FEA154756
:1012300014EB0C4441EB1C4125EA074C02FB07F57B
:1012400006FB07F70CFB06F602FB0CFC16EB074649
:1012500045EB174516EB0C4645EB1C42121951F1B4
:10126000000148BF7047B619524141EB0101A3F19B
:10127000010370474FEA14454FEA114724EA054637
:1012800021EA074C05FB07F106FB07F70CFB06F20A
:101290004FF0000605FB0CFC12EB074241EB174137
:1012A00012EB0C4251EB1C4148BF7047921841EBC6
:1012B0000101A3F10103704770B50C490968886EFC
:1012C000804704460D4609480068C26E20462946FC
:1012D0009047022304EA03000021484049400843A4
:1012E00002D0034800F076F870BD00000408000248
:1012F000040000202DE9F047994616468846054629
:10130000012400F07DF8D0B91CE015EA040014D0E7
:10131000A543640000F018FF202810D00D49B9F152
:10132000000F51F82000016821EA070141EA060197
:1013300001D041F40051016008E0640006E00020A3
:10134000BDE8F08742F61F7746EA0806002DDCD19B
:101350000120F5E70C3900002DE9F04115460E4655
:10136000074600F04DF870BB0020184C014654F8B9
:101370002020520102F184421177401C2028F6D32C
:10138000304600F0E1FE20281ED054F82000012154
:10139000400100F184400177384600F0D5FE0C4949
:1013A0004A6822F4F81242EA0040486008682DB109
:1013B00040F4C02008600120BDE8F08120F4C02086
:1013C00040F40030F6E7FFE70020F5E70C390000B5
:1013D00000200140094B10B55968C1F3044109E0F0
:1013E00003EB8102D2F8984020F81140926912066E
:1013F00002D4491C2029F3D310BD00000020014075
:10140000034890F84000002800D0012070470000F9
:101410000000244210B52A49096808688047284915
:101420000968C868804726491C39096808688047E8
:1014300023481C38006800234FF0E0721946846886
:101440001846A0471E48001D006803223021C369CA
:1014500005209847012202211046FFF77DFF002357
:101460001A464FF480710120FFF744FF0023012248
:1014700011020220FFF73EFF11481C380068C26DC0
:101480000220002190470E480C3000688169282016
:1014900088470B490C3109680868804708481C38A0
:1014A0000068416F8020884705491C390968486AEF
:1014B000804703491C390968086F804710BD000048
:1014C00020080002064A46F65A11116004495031BC
:1014D0000A6802430A60034901200870704700004F
:1014E0000004014000802042044908680968C0F3F4
:1014F000022001F0E061090100F062BD0804014032
:101500001CB56B4601AA0021032000F0E3FA37491D
:101510000868374A00F4E020B0F5403F2ED007DCE1
:1015200030B3B0F5803F25D0B0F5003F06D123E0C1
:10153000B0F5802F24D0B0F5A02F23D00020019B40
:10154000002B51D00968C1F309018B0502D541F484
:101550007E4109B2002947D0264B904293F8D8200B
:1015600016D1002A009A0FD092ED0F0A526A19E0A4
:101570002148E4E72148E2E72148E0E72148DEE7A7
:101580002148DCE71046DAE792ED070A526809E0E5
:10159000002A009A03D092ED0E0A126A02E092ED40
:1015A000060A126800EE901AC2F54071B7EE002AE2
:1015B000F8EEE00A20EE201A00EE901AF8EEE01A9B
:1015C000F0EE420A40EE210A81EE200AF0EE420AD5
:1015D00070EEC00A00EE100AB8EE400A80EE201A43
:1015E000BCEEC10A10EE100A1CBD0000040401404C
:1015F000006CDC020080204260E31600C0C62D00B3
:10160000808D5B00001BB70000366E01044908683E
:10161000096800F0070001F4E021090300F0D0BCE4
:1016200008040140044908680968C0F3021001F089
:10163000E04100F0C5BC000008040140014AC2E9D5
:101640000010704750000020002100F001B8000099
:101650002DE9F0470C462249064646F65A10086026
:1016600000F030FA00F00109012000F01BFA00F050
:1016700007FD0CB1012500E000251A49012281F87F
:10168000C021174B0C331F6827F4E00707431F6086
:10169000002316B181F8E42101E081F8E43181F8FA
:1016A000E021114FDFF844C003E00DB1641E05D006
:1016B0003A709CF80080B8F1000FF6D12EB910B145
:1016C00081F8C02101E081F8C0310A70484600F07D
:1016D000F1F905B114B10120BDE8F0870020FBE766
:1016E0000004014000802042048A204204892042F4
:1016F000002100F001B800002DE9F0470C46224916
:10170000064646F65A10086000F0DCF900F00109C0
:10171000012000F0C7F9B6F5007F03D000201CB10E
:10172000012502E00120FAE70025174A174B0C3289
:10173000012110B183F8A41106E0176847F00307F0
:101740001760002783F8A47183F8A011104FDFF809
:1017500044C003E00DB1641E05D039709CF80080D0
:10176000B8F1000FF6D120B9106820F00300304323
:1017700010601970484600F09DF905B114B10120C0
:10178000BDE8F0870020FBE7000401400080204214
:10179000008A204200892042034A52F82000008833
:1017A000084000D001207047A8390000074A52F8CD
:1017B000200042898A43428182898A4382818288C9
:1017C0008A438280C2888A43C2807047A839000059
:1017D000064A52F8200042898A43428182898A431C
:1017E000828182880A43828070470000A839000005
:1017F000034A52F8200042880A43428070470000A2
:10180000A8390000B0EE401A10B99FED790A704770
:1018100090ED100A80ED110A90ED0F0A80ED100A8C
:10182000C0ED060A80ED071A30EEC10A80ED0F0AFE
:101830000178002975D190ED010AD0ED0F1A20EE44
:10184000210A80ED090A90ED0A0AD0ED021A90ED06
:101850000F2A01EE820A80ED0A0A90ED0D0A80ED52
:101860000E0A90ED0C0A80ED0D0A90ED0F0AD0EDF6
:10187000101A30EE610A80ED0C0A90ED030AD0EDEB
:101880000C1A20EE210A80ED0B0A90ED0A0AD0ED29
:10189000051AB4EEE10AF1EE10FA04DD90ED050A46
:1018A00080ED0A0A10E090ED0A0AD0ED051AF1EE7B
:1018B000611AB4EEE10AF1EE10FA05D290ED050AD4
:1018C000B1EE400A80ED0A0A90ED090AD0ED0A1A3D
:1018D00030EE210AD0ED0B1A30EE210A80ED080A15
:1018E00090ED080AD0ED041AB4EEE10AF1EE10FA18
:1018F00004DD90ED040A80ED080A76E090ED080A18
:10190000D0ED041AF1EE611AB4EEE10AF1EE10FA2C
:101910006BD290ED040AB1EE400A80ED080A64E053
:10192000FFE70178012960D190ED0F0AD0ED101A80
:1019300030EE610AD0ED011A20EE210A80ED090A8D
:1019400090ED020AD0ED0F1A20EE210A80ED0A0A6E
:1019500090ED0D0A80ED0E0A90ED0C0A80ED0D0A57
:1019600090ED0F0AD0ED101AB0EE002A02EE610AD7
:10197000D0ED111A30EE210A80ED0C0A90ED030A29
:10198000D0ED0C1A20EE210A80ED0B0A90ED090A29
:10199000D0ED0A1A30EE210AD0ED0B1A30EE210AF2
:1019A000D0ED081A30EE210A80ED080A90ED080A01
:1019B000D0ED041AB4EEE10AF1EE10FA04DD90ED78
:1019C000040A80ED080A10E090ED080AD0ED041A30
:1019D000F1EE611AB4EEE10AF1EE10FA05D290EDE3
:1019E000040AB1EE400A80ED080A90ED080A0EE7FD
:1019F0000000000000B102B97047017092ED001ABA
:101A000080ED011A92ED011A80ED021A92ED021A90
:101A100080ED031A80ED040AC0ED050A9FED0C1A53
:101A200080ED0E1A80ED0D1A80ED0C1A9FED081A4C
:101A300080ED081A80ED0B1A80ED0A1A80ED091A64
:101A400080ED111A80ED101A80ED0F1A00BFD3E758
:101A50000000000010B512480068C16B01208847E3
:101A600004460F4800682146426B01209047192028
:101A700000F0C8FE04F0020030B14FF498404FF07F
:101A8000844101EB4010007904F0100030B14FF4B4
:101A900098404FF0844101EB4010007C10BD0000E5
:101AA0002408000202494A6882434A6070470000E5
:101AB000003004E002494A6802434A60704700006F
:101AC000003004E00248406800F4702070470000D5
:101AD000003004E0F0B50F4C002625686D1C16D0D0
:101AE0000D4F256885420AD0BD4208D0854201D1FC
:101AF00029B1491E656804EB85040834F1E7854285
:101B000005D160688000083410601C60F0BD16606C
:101B10001E60F0BD041020001DE1D00B10B54FF485
:101B2000B540204908802048006801220C218369C3
:101B30000B2098471C4800680122032183690B2071
:101B400098471A494FF40040FFF778FD16481030C7
:101B5000006801680120884713480838006801219F
:101B6000426D002090471048083800680121426DFE
:101B7000084690470020FFF767FD0320FFF7B8FDF8
:101B800009481038006800220521036802209847A0
:101B9000054810380068002205210368082098478E
:101BA00010BD00000C48004024080002006CDC025C
:101BB0001548006840F47000134908604FF4B540C0
:101BC0001249088080201249486146F65A1011498E
:101BD00008604FF48030091D0860081D006820F07F
:101BE0000710C01C091D086000200A4908600A4847
:101BF000006920F03000084908610846406920F07B
:101C0000300048617047000088ED00E00C4800405B
:101C1000003004E0000401400010014010B503480A
:101C20000068016A0248884710BD00005C08000295
:101C300000C0004010B503480068016A02488847A8
:101C400010BD00005C08000220C0004010B507482D
:101C500000680221C26B4807904704483438006886
:101C60000121C2680846904710BD000058080002D4
:101C700010B51B4800680221C26B1A48904700212A
:101C800040F602004FF0844202EB4010017116480A
:101C9000806816490968401A134908600846C068F8
:101CA00012494968401A10494860084680680F493F
:101CB00008600D48C068486000F058FE0C48006895
:101CC000401C0B49086008460068642806D10020C3
:101CD000086008480068401C0649086010BD000004
:101CE0005808000200080040580000201C00002096
:101CF000180000201400002010B53648007800F0CD
:101D00008000002864D134480068C16C334888479B
:101D100008B331480068816B30488847002140F69D
:101D200004004FF0844202EB401001712948007812
:101D300000F0400078B12748007800F03F003F28CD
:101D40000AD12448007840F08000224908704FF6FC
:101D5000FF702349088004E01E480078401C1D499C
:101D600008701D4800680421C26D1C48904778B374
:101D7000194800680421C26B18489047154800783C
:101D800000F04000A0B11448006808220421C36993
:101D90001248984760B90F48007840F080000D491C
:101DA000087004210D4800F0AFF80D4908800FE0DD
:101DB0000020084908700A490880074800688169BE
:101DC000064888470348007840F040000149087001
:101DD00010BD000008000020580800020008004064
:101DE0000A00002010B5154800680221C26D144891
:101DF000904710B3114800680221C26B1048904709
:101E0000002140F602404FF0844202EB4010017185
:101E10000C488069401C0B49886120210A20FFF78B
:101E2000BBFC28B107488068401C0649886004E074
:101E300004488068401E0349886010BD58080002AD
:101E4000000C00405800002010B51548006806211D
:101E5000C26D1448904710B3114800680621C26B48
:101E600010489047002140F606404FF0844202EBB4
:101E7000401001710C48C069401C0B49C861042125
:101E80000920FFF789FC28B10748C068401C0649B3
:101E9000C86004E00448C068401E0349C86010BD23
:101EA00058080002000C00405800002000B587B020
:101EB0004FF4007001903020029044F620600390AF
:101EC0000020049010200590042006900C48006823
:101ED00001A982680B4890470948006810210268F0
:101EE00008489047064800680221C26B05489047A1
:101EF00003482C38006881691C20884707B000BD62
:101F00005808000200080040FF2202EB5101C9B24C
:101F100000EB4100408A704770B50126420102F192
:101F200084423446167003880D8823F0C0032B4387
:101F300003804B69002513B182F8344001E082F838
:101F400034508B6913B182F82C4001E082F82C5098
:101F50000B6923B1012B05D0022B0CD107E082F8CD
:101F60003C5008E082F83C4082F8385003E082F8A8
:101F70003C4082F838404B6A13B182F8304001E0AF
:101F800082F830508A88C2800A7B0B89120202EBE9
:101F900003120B8C1A44028102884FF6C103898B0D
:101FA0001A400A430280304670BD420102F1844269
:101FB00092F844330BB1C181704792F88433F9E74A
:101FC0002DE9F04131F0704216D10917082913D2DA
:101FD000DFE801F0120406080A0C0E1002240CE0DF
:101FE00004240AE0082408E0102406E0202404E089
:101FF000402402E0802400E001241D4BDFF87480BF
:102000004FF4FA354FF4004606282FD2DFE800F0EF
:1020100003210B272A14184F387850B10120FFF7FD
:1020200051FA387828B11878B0B1B5FBF4F0BDE8B2
:10203000F081D8F8040016E00F4F3F1D387828B122
:102040000220FFF73FFA38780028ECD1D8F80000DA
:1020500009E042F2107006E0B6FBF4F0E7E7FFF7A4
:102060004FFA00E00548B0FBF4F0E0E70020DEE7BF
:102070003C862042500000200089204200366E013C
:102080001A481B49006842181A498A422BD91A4932
:102090001A4A0144914202D84FF4801070471849FF
:1020A000421818498A4202D84FF400107047164A65
:1020B00002448A4202D84FF440107047134A024447
:1020C0008A4202D84FF480007047114A02448A4283
:1020D00002D84FF4A00070470E4A1044884202D83C
:1020E0004FF4C000704700207047000050000020EF
:1020F000C0BDF0FFC0C62D00FFF6C2FFFF083D00C7
:10210000FFED85FFFF117A00FFDB0BFFFFC991FE9A
:10211000FFB717FEFFA59DFD03B40198410000988D
:1021200050EAC12018BF04204A0D18BF40F001003A
:1021300040F2FF72B2EB515F08BF40F0020001288D
:1021400008BF052002B07047B0F5004F70D02EDCFC
:10215000802872D013DC082864D009DCB0F1004F6D
:1021600068D0012858D0022858D0042852D157E00E
:10217000102859D0202859D040284BD15BE0B0F529
:10218000006F62D009DCB0F5807F58D0B0F5007FD9
:1021900057D0B0F5806F3DD155E0B0F5805F56D097
:1021A000B0F5005F55D0B0F5804F33D153E0B0F5B6
:1021B000000F62D017DCB0F5002F56D009DCB0F567
:1021C000803F4CD0B0F5003F4BD0B0F5802F21D1EF
:1021D00049E0B0F5801F4AD0B0F5001F49D0B0F5F6
:1021E000800F17D147E0B0F1006F4ED009DCB0F19D
:1021F000807F44D0B0F1007F43D0B0F1806F09D12F
:1022000041E0B0F1805F42D0B0F1005F41D0B0F169
:10221000804F40D020207047002070470120704739
:102220000220704703207047042070470520704744
:1022300013E002E031E00620F9E70720F7E7082085
:10224000F5E70920F3E70A20F1E70B20EFE70C2080
:10225000EDE70D20EBE70E20E9E70F20E7E7102080
:10226000E5E71120E3E71220E1E71320DFE7142080
:10227000DDE71520DBE71620D9E71720D7E7182080
:10228000D5E71920D3E71A20D1E71B20CFE71C2080
:10229000CDE71D20CBE71E20C9E71F20C7E7303858
:1022A0000A2801D2012070470020704700BF704704
:1022B000024601208840104008B1012070470020EC
:1022C000FCE7000000B58BB004210920FFF76EFA8F
:1022D00020210A20FFF76AFA2C4800680122042115
:1022E000C369082098472948006801221021C36962
:1022F0000A209847264B0FCBCDE90923CDE90701EA
:1023000022483430006807A94268224890471822C2
:102310001F49103101A8FEF726F81C483430006828
:1023200001A902691B4890470620019017483430E4
:10233000006801A9026917489047144834300068C2
:102340002021026813489047104834300068816BA0
:10235000104888470D48343000680221C26B0D4890
:1023600090470A48343000680621C26B09489047FC
:1023700006480830006881691F20884703480830F4
:10238000006881691E2088470BB000BD2408000248
:10239000BC380000000C004010B5FFF737F90749C2
:1023A000B0FBF1F0064908704FF0E020006940F002
:1023B00004004FF0E021086110BD000040420F0012
:1023C0001000002010B5044604E04FF47A7000F0CD
:1023D00005F8641E002CF8D110BD00000146114A1A
:1023E00012784A434FF0E0235A6100229A611A465C
:1023F000126942F001021A6100BF4FF0E022106939
:1024000000F001021AB100F48032002AF5D04FF03A
:10241000E022126922F001024FF0E0231A6100224B
:102420009A617047100000202DE9F0472DED048BD4
:1024300004460E4604B11EB9BDEC048BBDE8F0871E
:102440002068802803D1FFF7EDF805460BE02068EF
:10245000402803D1FFF748F8054604E080202060BB
:10246000FFF7E0F80546AE4200D9E5E700EE105A66
:10247000F8EE400A00EE106AB8EE400A80EE801ACC
:10248000BCEEC10A10EE100A1FFA80F89FED3D9ACB
:102490004FF0000954E09FED3C0AF0EE408A4FF007
:1024A000000A002739E03B46F81707EB5070C010D0
:1024B000A7EBC000C0F1070081B24846FFF7F8FE65
:1024C00040448244781C00EE100AB8EEC01A00EEB8
:1024D000106AB8EE400AC1EE000A00EE10AAB8EE8B
:1024E000401A00EE105AB8EE400AC1EE001A30EE63
:1024F000E10AB0EE408AB5EEC08AF1EE10FA03D2DE
:10250000B1EE480AB0EE408AB4EEE88AF1EE10FA75
:1025100001DDF0EE488A781CC7B20A2FC3DD38EE21
:10252000C90ADFED1A0AB4EEE00AF1EE10FA03D29E
:10253000B0EE689AC4F80C9009F101001FFA80F916
:10254000B9F1FF0FA7DDB8F1140F05DA0020206202
:10255000C4F80480A06013E00120206200EE108A1D
:10256000B8EE400AF3EE000A80EE201ABCEEC10A73
:1025700010EE100A80B260606068A8EB0010A060E6
:1025800000BF59E70050C34700000000476C00AD92
:1025900010B52DED048B9FED200A204880ED000A38
:1025A0009FED1D0A80ED020A9FED1B0A80ED030AD4
:1025B00000F01EF91949886100F012F917494860C6
:1025C000DFED170A9FED170A174A002113481C3048
:1025D000FFF710FADFED120A9FED120A124A0C32D1
:1025E00000210E486430FFF705FA1048006801F03A
:1025F000D3F821F0004100F0E5FB08EE100ADFED12
:10260000060AB0EE480A0A4A00210448AC30FFF737
:10261000F1F9BDEC048B10BD00000000800000202B
:102620000000C84300007A442C000020280000204D
:102630004400002010B500F0B5FA00F051FB00F0A6
:10264000EDFA10BD70B504460D46E1B20248FFF741
:10265000ACFC204670BD00000010004010B500F03A
:10266000E7F800F0F9F9FFF793FF01200849087037
:102670000020487000F0BCF80549486000F0B4F84C
:10268000034988600020C86000210148016110BD35
:102690007801002010B52DED068B00F0D9F800F080
:1026A000ABF830B900204349C860002141480161BE
:1026B0007BE000F0A1F801285CD13E4800780128B9
:1026C00073D1FFF7B7FF3B48806890ED040ABDEE79
:1026D000C00A384880ED030A806890ED050ABDEE17
:1026E000C00A344880ED040A0146896849680888B0
:1026F00000F01AFE41EC1A0B9FED2F0B53EC102B40
:1027000000F062FE41EC190B9FED2D0B53EC102BEA
:1027100000F03EFC41EC180B9FED2B0B53EC102B03
:1027200000F016FE41D8234989684968488800F0BE
:10273000FBFD41EC1A0B9FED200B53EC102B00F02E
:1027400043FE41EC190B9FED1E0B53EC102B00F0D8
:102750001FFC41EC180B9FED1C0B53EC102B00F0F1
:10276000F7FD22D8002013490870C86000211148E5
:1027700001611AE000F040F8022816D10D480078F7
:10278000012812D1FFF756FF0A48806890ED040A2D
:10279000BDEEC00A074880ED030A806890ED050A87
:1027A000BDEEC00A034880ED040A00F011F8BDEC4C
:1027B000068B10BD780100206666666666660A4074
:1027C000000000000000D040666666666666F63F60
:1027D00010B5024800F09CF910BD000084010020F3
:1027E0000048704704000020004870478000002027
:1027F00000487047580000200148007870470000EA
:102800002400002008B50CE00021009104E0BDF890
:102810000010491C89B20091BDF80010B1F57A7F13
:10282000F5DB011EA0F1010290B2EDD108BD000060
:1028300010B50648006810214269062090470348F9
:102840000068012142690620904710BD240800025B
:1028500010B5104800680121026A0620904730B97F
:102860000D48007818B100200C49087010E00020D5
:1028700009490870074800681021026A062090473D
:1028800018B101200549087002E0022003490870D0
:1028900010BD0000240800022500002024000020B4
:1028A0002DED088B82B0FFF739F94FF4E13000F0DD
:1028B0004DFAFFF771FDFEF7ADFDFFF7CFFEFFF715
:1028C0008FFF21490860214909680868804739E07D
:1028D0001D490968488800F027FD41EC1B0B9FED5E
:1028E0001C0B53EC102B00F06FFD41EC1A0B9FED0D
:1028F0001A0B53EC102B00F04BFB41EC180B124958
:102900000968088800F010FD41EC1B0B9FED100BCF
:1029100053EC102B00F058FD41EC1A0B9FED0E0B01
:1029200053EC102B00F034FB41EC190B8DED008BB8
:1029300053EC192B0AA0FDF783FCFFF7ABFE012037
:10294000FFF740FDC4E70000000000202C08000253
:102950006666666666660A40000000000000D040B9
:10296000252E32662C252E32660A000010B52DED7C
:10297000068B3449886900F0D7FC41EC1A0B9FEDB7
:10298000320B53EC102B00F01FFD41EC190B9FEDA7
:10299000300B53EC102B00F0FBFA41EC180B00F05D
:1029A0007FFC28490862C86900F0BEFC41EC1A0BA4
:1029B0009FED250B53EC102B00F006FD41EC190B9D
:1029C0009FED230B53EC102B00F0E2FA41EC180BB7
:1029D00000F066FC1B494862886800F08EFC41EC00
:1029E0001A0B9FED190B53EC102B00F0EDFC41EC92
:1029F000190B9FED170B53EC102B00F0C9FA41ECAB
:102A0000180B00F01DFC0F490861C86800F075FC48
:102A100041EC1A0B9FED0C0B53EC102B00F0D4FC87
:102A200041EC190B9FED0A0B53EC102B00F0B0FAA0
:102A300041EC180B00F004FC02494861BDEC068B28
:102A400010BD0000580000209320046EE25C354069
:102A5000000000000080764010B530214FF47A70FD
:102A600000F01EF840210120FEF7B2FE8021012077
:102A7000FEF7AEFE40210320FEF7AAFE80210320D0
:102A8000FEF7A6FE40210320FEF7B2FE80210320C0
:102A9000FEF7AEFEFFF716FCFFF708FA10BD0000C8
:102AA00030B587B004460D46184800680122402121
:102AB00083690220984715480068012280218369B4
:102AC000022098474FF4007001900295039408206B
:102AD0000490C0200590002006900C483430006817
:102AE00001A9C26A4FF0804090470A20049007482D
:102AF0003430006801A9C26A4FF080409047082135
:102B00000520FEF775FE07B030BD00002408000266
:102B100070B50546002440E055F8240000281DDA71
:102B2000402000EB84111E48006842680120904755
:102B300055F82400002802DB55F8240002E055F87F
:102B4000240040420246082000EB4401144834307F
:102B50000068436B4FF0804098471CE0402000EB3A
:102B600084110F48006882680120904755F82400BE
:102B7000002802DB55F8240002E055F8240040420A
:102B80000246082000EB4401054834300068436BDE
:102B90004FF080409847601CC4B2022CBCDB70BD73
:102BA0002408000210B52DED088B154949680988E5
:102BB000134A52685288881A00F09FFB41EC1B0BA5
:102BC0009FED100B53EC102B00F0FEFB41EC1A0BA9
:102BD0009FED0E0B53EC102B00F0DAF941EC190BC2
:102BE0009FED0C0B53EC102B00F01EF941EC180B71
:102BF00000F0E8F802490860BDEC088B10BD000049
:102C0000800000206666666666660A400000000076
:102C10000000D0407B14AE47E17A843F10B52DED23
:102C2000088B2A498969086800F067FB41EC1B0B97
:102C30009FED270B53EC102B00F0C6FB41EC1A0B59
:102C40009FED250B53EC102B00F0A2F941EC190B72
:102C500000F0B8F808EE100A1C48D0ED020AB0EEF9
:102C6000600AF0EE480A1C30FEF7CCFD174880EDF4
:102C7000040A01468969486800F03FFB41EC1B0BE0
:102C80009FED130B53EC102B00F09EFB41EC1A0B45
:102C90009FED110B53EC102B00F07AF941EC190B5E
:102CA00000F090F808EE100A0848D0ED030AB0EEE4
:102CB000600AF0EE480A6430FEF7A4FDB1EE400A67
:102CC000024880ED050ABDEC088B10BD8000002095
:102CD000000000000000F03FA4703D0AD7A3E03FD1
:102CE00010B52DED028B9FED160AB0EE408A154807
:102CF000D0ED000AB0EE600ADFED110AAC30FEF74D
:102D000081FD104880ED3D0AB7EE000AB0EE408A22
:102D100090ED3D0A0C48D0ED000A10EEC80A0948B3
:102D200080ED020A90ED3D0A0748D0ED000A10EE52
:102D3000880A044880ED030ABDEC028B10BD000038
:102D400000000000800000202800002010B58AB09C
:102D5000044628220D496846FDF705FB21466846D2
:102D6000FFF762FB0A48006801220C2183691046C4
:102D7000984769460748FFF7CFF805483C30006898
:102D80008168044888470AB010BD000094380000EC
:102D9000240800020010004010B500290AD008786D
:102DA000002807D005487844FDF77EFE002801D0B2
:102DB000002010BD0248784410BD0000E60C000061
:102DC000DE0C000021F00042A2F16052B2F5801F3B
:102DD00001F0004328BFD2F17F6C0BD95FEA001CE1
:102DE00043EAC20242EB507018BF704728BF20F080
:102DF00001007047B2F5801FBCBF184670474FEA0C
:102E0000410C1CF5001F02D2084600F03BBD70B516
:102E100000F084FB00000089FFF7F6BF4FF0004090
:102E2000A0F580007047000010B591EA030F48BF7D
:102E300083F0004300F1CE83841A71EB030C05D2BA
:102E4000121943EB0C03001B61EB0C01DFF824E1CA
:102E50004FEA1154A4EB135C1EEA430F18BF9EEA1D
:102E6000445F73D023EA0E03DCF1200E21EA045103
:102E700043F4801332D322FA0CFE10EB0E0023FA37
:102E80000CFE41EB0E01CCF1200E03FA0EFE10EB0E
:102E90000E0051F10001B1F5801FCCF1200E32D2AD
:102EA00001EB045112FA0EF2BDE8104058BF704712
:102EB000401C38BF5FEA420218BF7047002814BFA9
:102EC00020F0010041F100014FEA410313F5001F1A
:102ED00038BF7047A1F1C04100F06EBB012A43EB3F
:102EE0000302ACF1200CDCF11F0E32BF4FF0000EDC
:102EF00023FA0CF310EB030041EB0451B4EB115F28
:102F0000D0D0A1EB045101F5801149085FEA3000EF
:102F100001EB04510ED350F1000038BF12FA0EFE3F
:102F200008D1BDE81040C9E7401C38BF5FEA420243
:102F3000CAD1C3E7BDE810404FEA410313F5001FB3
:102F400038BF7047A1F1C04100F036BB9EEA445F34
:102F500008D011EA5E0FBDE8104004BF01F0004147
:102F600000207047BDE8104070B500F0D7FA00BFF0
:102F700064FBBE3E0000E0FF491058BFC1F1404174
:102F80005B1058BFC3F140438B42EFF300807047A2
:102F90002DE9C04130B4DFF8A0C23CEA111418BFDB
:102FA0003CEA131400F0EC8081EA03051CEA1114DA
:102FB00044EAD57418BF1CEA131500F0C780A4EBCF
:102FC00005044FF0004545EAC12145EAC32341EA23
:102FD000505143EA525304F17F74994204F500348E
:102FE0004FEAC0204FEAC22208BF904200F09C8006
:102FF0004FEA13650FF24016765D4FEA134506FB64
:1030000005F7C7F1807706FB07F74FEAD737A7FB2D
:1030100003687642C8F58038A7FB06CE38BFA8F112
:10302000010807FB08E64FF0000EA6FB028CE6FB4A
:1030300003CEDCF1000CCEF1004E38BFAEF1010E34
:10304000A6FB0C584FF000074FF00005E6FB0E877B
:10305000A1FB08C6A0FB07CE16EB0E0645F1000546
:10306000E1FB076515F1E04E7EBFA4F580345FEA11
:1030700046066D4116F1800745F100054FEA172716
:103080004FEA066647EA0567A6F1DE46B6F1805FBD
:103090004FEA15251FD9384624F0010C05EBC47101
:1030A000BCF1FE6F01EB0C1102D8F0BCBDE8008151
:1030B00024425CBF01F5801E9EEAC47F02D4F0BCAE
:1030C000BDE80081244238D4F0BCA1F1C041BDE884
:1030D000004100F071BA4FEAD22242EA43524FEA6D
:1030E000D323A7FB02864FEAD02040EA415007FBDA
:1030F00003661EEA0E0F4FEAD12105FB026658BF98
:10310000A6EB0056B6EB00564FEA520E4EEAC37ECF
:1031100018EB0E0E56EB530EBDD518EB02085E41B0
:103120007F1C55F10005B6E74FF480154FF00007FE
:103130004FF000064FF00008ADE7F0BC4FF0000084
:1031400001F1C04101F00041BDE8008111EA0C1F0E
:103150000CEA131500D00CE013EA0C1F00F02580D8
:103160004FF00000F0BC81EA030101F00041BDE82E
:103170000081F0BCBDE8004181EA030100F01CBA07
:10318000F0BCBDE8004170B500F0C8F9097EFC3E16
:1031900000F007B881EA03014FF0000001F00041A0
:1031A000704781EA030100F007BAF0BCBDE80041B6
:1031B0004FF0000021497047FFFDFBF9F7F5F4F2ED
:1031C000F0EEEDEBE9E8E6E4E3E1E0DEDDDBDAD8C2
:1031D000D7D5D4D3D1D0CFCDCCCBCAC8C7C6C5C420
:1031E000C2C1C0BFBEBDBCBBBAB9B8B7B6B5B4B337
:1031F000B2B1B0AFAEADACABAAA9A8A8A7A6A5A422
:10320000A3A3A2A1A09F9F9E9D9C9C9B9A999998E5
:103210009797969595949393929191908F8F8E8E88
:103220008D8C8C8B8B8A8989888887878685858415
:1032300084838382828181800000FF070000F87F01
:103240004FEA41034FEA5353A3F58063D3F11E03C2
:10325000C8BFD3F1210C0CDD4FF0004242EAC1227D
:1032600042EA505232FA03FC8CEAE17CACEBE170AA
:103270007047102BC4BF0020704703F5787CBCF169
:10328000FF3F04D06FF0004282EA2100704770B522
:1032900000F044F94992248000207047F2E70000D2
:1032A0004FEA1153A3F58063D3F11E03A8BFD3F1F6
:1032B000200C08DB4FF0004242EAC12252EA505291
:1032C00032FA03F0704709420BD4102BC4BF002020
:1032D000704703F5787CBCF1FF3F05D04FF0FF301D
:1032E00070474FF00000704770B500F017F900BF4D
:1032F0004992248000207047F0E710F0004248BF58
:103300004042B0FA80F310FA03F10AD0C3F11D0372
:1033100003F580634FEA415002EB035202EBD121E7
:1033200070474FF000007047B0FA80F310FA03F1D5
:103330000AD0C3F11D0303F580634FEA41504FEA01
:10334000035202EBD12170474FF00000704700009C
:1033500051EA030C17D41CF5801F58BFBCF5801F21
:1033600000F10680994218BF704708BF904270472D
:1033700007D711F5801F58BF13F5801F19D4994244
:103380007047894270471CF5801F08D5BCF5801F27
:10339000F7D58B4218BF704708BF824270474FF481
:1033A000001C1CEB410F38BF1CEB430F01D28B42BA
:1033B000704770B500F0B2F8922449004FF0005108
:1033C0004FF08053FFF7D8BDDFF848C170B51CEA55
:1033D000111E1EBF1CEA13159EEA0C0F95EA0C0F76
:1033E00000F06F8081EA030423EA4C134EEAD47E96
:1033F00021EA4C1141F4801143F48013AE44A1FB47
:10340000024CA0FB0365AEF17F7E361955EB0C052F
:10341000A1FB034C4CF10003A0FB021C16EB0C06B5
:10342000654153F10003094218BF46F0010613F449
:10343000007F0BD14FEA03314FEA0530340341EAF4
:10344000155140EA16506FF003020AE04FEAC3211B
:103450004FEAC520F40241EA555140EA56506FF058
:10346000020202EB2E4201EB025585EACE710AD030
:103470005FEA440C18BF24F0004450F1000041F111
:10348000000120EAD47040F2FE7C624500D270BD9B
:10349000A84214BF4FF080444FF04044002E08BFB4
:1034A0000024BEF1806FA8BFA1F1C041BDE870400B
:1034B00080F282804FF0000001F1C04101F0004134
:1034C00070479EEA0C0F0CEA131518BF95EA0C0F13
:1034D00006D04FF0000081EA030E0EF0004170BDEF
:1034E00000F01CF88900013E00F007B800F009B8B0
:1034F0004FEA430C5FEA5C5C08D081EA030100F00C
:103500005BB84FEA410C5FEA5C5CF6D14FF000001B
:10351000014970470000FF070000F87F0EF1020E1E
:103520002EF0030E5EF8046B364205D4012A43EBFD
:10353000030515F5001F12D8012841EB010C1CF5FD
:10354000001F0CD80ED14FEAD17C15F5001F0CEBF3
:103550004C0C0CF1020C08BF4CEBD37C04E04FF098
:10356000080C01E04FEAD37C0CEB4C0526FA05F67B
:1035700006F00706B6F1040C06D20EEB860CBDE889
:1035800070404CF0010C6047DFE80CF0090B0202C0
:103590004FF000414FF00000A1F5002170BD194629
:1035A0001046012851EB010418BFD4F5001484BF64
:1035B000002001F0004170BD0808A0F500114FEA9D
:1035C0003101704710B591EA030F48BF83F0004303
:1035D0003FF532AC841A71EB030C07D212198CF050
:1035E000004C43EB0C03001B61EB0C01DFF8A4E182
:1035F0004FEA1154A4EB135C1EEA430F18BF9EEA76
:10360000445F00F0B08023EA6E03524221EA045185
:10361000C3EB6E0338BF5B1EDCF1200E25D322FA0C
:103620000CFE10EB0E0043FA0CFE41EB0E01CCF148
:10363000200E03FA0EFE10EB0E0051F10001CCF14A
:10364000200E29D412FA0EF201EB0451BDE810400D
:1036500058BF7047401C1CBFB2F1004F7047002894
:103660000CBF491C20F00100704712EB020E43EB27
:10367000030218BF4FF0010E4EEA4202ACF1200CDB
:10368000DCF11E0E54D943FA0CFE10EB0E0051F182
:10369000FF31CCF11E0ED5D50EF1010E12FA0EFE41
:1036A000404141EB010101EB445C5FEA5C5C10D9F5
:1036B00010EBDE7001EB045138BFBEF1004FBDE8E6
:1036C000104018BF704700280CBF491C20F00100B3
:1036D000704730D24FEAD42C11F5001124F4006465
:1036E0001BD0B1FA81F20B3AA41AA41ED2F1200326
:1036F000914030FA03F31943904001EBCC71002C58
:1037000001EB0451BDE81040A8BF704701F1C04172
:103710004FF0000001F000417047B0FA80F310FA5A
:1037200003F100D110BDE41A173C4805C90AE4E7CB
:1037300001EB045110BD491001EB0451BDE81040EC
:103740004FEA300002E04FF0000170474A0008BF26
:103750000042F8D0B2F5001F28BF704701F00041C9
:103760004FF0000070479EEA445F07D011EA5E0FF9
:10377000BDE8104004BF002100207047BDE81040A4
:1037800070B5FFF7CBFE00BF40DFF63E83F000418F
:10379000104670470000E0FF43004FEAD30C4FEAA9
:1037A0003C0C43401FBF40070CF1605113F0FE4F2B
:1037B00070471CF0006F03D100200CF000417047EF
:1037C0000CF0004343EA507010B540EACC0000F022
:1037D0000EF800BF000000924FEA0001FFF7ECBEB8
:1037E0004FF000414FF00000A1F5002170470EF1AD
:1037F000020E2EF0030E5EF8044B244204D44FEA6E
:103800004102B2F17F4F11D84FEA4003B3F17F4F2D
:103810000CD80ED14FEAD07CB2F17F4F0CEB4C0CA0
:103820000CF1020C08BF4CEBD17C04E04FF0080C0B
:1038300001E04FEAD17C0CEB4C0324FA03F404F0D2
:103840000704B4F1040C06D20EEB840CBDE8104062
:103850004CF0010C6047DFE80CF0070802024FF063
:103860000040A0F5800010BD0846420018BFD2F10C
:10387000807288BF00F0004010BD4FF04070E1EE54
:10388000100A7047FF2141EAD050C0057047FCF78D
:1038900079BE0000800000001A0000000000000057
:1038A0006F000000000000000000000000000000A9
:1038B0000000000001000000000000000002000005
:1038C00030000000000000000400000002000000C2
:1038D0000040000000000000000800001000000090
:1038E00000000000A8FDFFFF580200005802000081
:1038F000A8FDFFFFBC020000BC02000044FDFFFF6A
:1039000044FDFFFF58020000A8FDFFFF1820014002
:103910001C2001402020014024200140282001409B
:103920002C2001403020014034200140382001404B
:103930003C200140402001404420014048200140FB
:103940004C200140502001405420014058200140AB
:103950005C2001406020014064200140682001405B
:103960006C2001407020014074200140782001400B
:103970007C200140802001408420014088200140BB
:103980008C20014090200140942001400000000064
:103990003300000034000000350000003600000055
:1039A000370000003800000000000000004C00401C
:1039B000014C0040204C0040214C0040404C004055
:1039C000414C0040604C0040614C0040804C004045
:1039D000814C0040204D004002400000000000A04B
:1039E0000000000005400000000000C800000000CA
:1039F0000C4000000000409C000000001940000046
:103A00000020BCBE0000000034400000BFC91B8E77
:103A100000000004B5400000504BCFD06607E2CF55
:103A2000010000006C4100003E8251AADFEEA73485
:103A300001000000D9420000DCB5A0E23A301F9737
:103A4000FFFFFFFFB4450000FD25A0C8E9A3C14F5B
:103A5000FFFFFFFFFF3F00000000008000000000AC
:103A6000FF3F00000000008000000000A83A0000B6
:103A7000000000205800000080010000003B000012
:103A800058000020984100009C0100001C0000002C
:103A900043000000F8FFFFFF0C0000000E000000D4
:103AA0000F0000002E0000000000000000000000D9
:103AB0000000000000000000000000000000000006
:103AC00000000000000000000000000000010000F5
:103AD000000080C10000C84200000000000000009B
:103AE0000000C8420000000000000000000000418B
:103AF00000000000000000000000000000000000C6
:0400000500000145B1
:00000001FF
